AZAN5EP ZANDER/SDI GP941 V2.12
HFDTE270518
HFFXA050
HFPLT Pilot             :CARSTEN PORTMANN                        
HFGTY Glider type       :Nimbus 4M                               
HFGID Glider ID         :D-KUBR    
HFDTM100 GPS Datum      :WGS84
HFRFW Firmware Version  :12
HFRHW Hardware version  :2
HFFTY FR Type           :ZANDER/SDI GP941
HFGPS                   :Garmin,GPS25,12,30000
HFPRS Press Alt Sensor  :Intersema,MS5534A,10000
HFCCL Competition Class :Offene                                  
HFCID Competition ID    :ET        
I023638IAS3941ENL
J020810WDI1113WVE
LZAN 083958 PowerOn
C260518084606260518000103
C4959066N01138316E 001BTH      
C4954566N01136766E 042BTS      
C5037966N01043633E 164SUH      
C4846716N01016133E 005AAL      
C4908516N01204916E 139REG      
C4959066N01138316E 001BTH      
C4959066N01138316E 001BTH      
B0840024959275N01138637EV0042400000000000
B0840064959275N01138637EV0042400000000000
B0840104959275N01138637EV0042400000000000
B0840144959275N01138637EV0042400000000000
B0840184959275N01138637EV0042400000000000
B0840224959275N01138637EV0042400000000000
B0840264959275N01138637EV0042400000000000
B0840304959275N01138637EV0042400000000000
B0840344959054N01138312EA0042400488000000
B0840384959054N01138312EA0042400488000000
B0840424959054N01138308EA0042400480000000
B0840464959054N01138308EA0042400480000000
B0840504959054N01138308EA0042400480000000
B0840544959054N01138308EA0042400480000000
B0840584959054N01138308EA0042400480000000
B0841024959054N01138308EA0042400480000000
B0841064959054N01138308EA0042400488000000
B0841104959054N01138312EA0042400488000000
B0841144959054N01138312EA0042400488000000
B0841184959054N01138312EA0042400488000000
B0841224959054N01138312EA0042400488000000
B0841264959054N01138312EA0042400488000000
B0841304959054N01138312EA0042400488000000
B0841344959054N01138312EA0042400488000000
B0841384959054N01138312EA0042400488000000
B0841424959054N01138312EA0042300488000000
B0841464959054N01138312EA0042300488000000
B0841504959054N01138312EA0042400488000000
B0841544959054N01138312EA0042300488000000
B0841584959054N01138312EA0042300488000000
B0842024959054N01138312EA0042300488000000
B0842064959054N01138312EA0042300488000000
B0842104959050N01138312EA0042400488000000
B0842144959050N01138312EA0042400488000000
B0842184959050N01138312EA0042400488000000
B0842224959050N01138312EA0042400488000000
B0842264959050N01138312EA0042400488000000
B0842304959050N01138312EA0042400496000000
B0842344959050N01138316EA0042400488000000
B0842384959050N01138316EA0042400488000000
B0842424959050N01138316EA0042400488000000
B0842464959050N01138316EA0042400488000000
B0842504959050N01138316EA0042400488000000
B0842544959050N01138316EA0042400488000000
B0842584959054N01138316EA0042400488000000
B0843024959054N01138316EA0042400488000000
B0843064959054N01138316EA0042400488000000
B0843104959054N01138316EA0042400488000000
B0843144959054N01138312EA0042400488000000
B0843184959054N01138316EA0042400488000000
B0843224959054N01138312EA0042400488000000
B0843264959054N01138312EA0042400488000000
B0843304959050N01138312EA0042400488000000
B0843344959050N01138312EA0042400488000000
B0843384959050N01138312EA0042400488000000
B0843424959050N01138316EA0042400488000000
B0843464959050N01138316EA0042400488000000
B0843504959050N01138316EA0042400488000000
B0843544959050N01138316EA0042400488000000
B0843584959050N01138316EA0042400488000000
B0844024959050N01138316EA0042400488000000
B0844064959050N01138316EA0042400488000000
B0844104959050N01138316EA0042400488000000
B0844144959050N01138316EA0042400488000000
B0844184959054N01138316EA0042400488000000
B0844224959054N01138316EA0042400488000000
B0844264959054N01138316EA0042400488000000
B0844304959054N01138316EA0042400488000000
B0844344959054N01138316EA0042400488000000
B0844384959054N01138316EA0042400488000000
B0844424959054N01138316EA0042400488000000
B0844464959050N01138316EA0042400488000000
B0844504959050N01138316EA0042300488000000
B0844544959050N01138316EA0042300488000000
B0844584959050N01138316EA0042300488000000
B0845024959050N01138316EA0042300488000000
B0845064959050N01138316EA0042300488000000
B0845104959050N01138316EA0042400488000000
B0845144959050N01138316EA0042400488000000
B0845184959050N01138316EA0042500488000000
B0845224959050N01138316EA0042500488000000
B0845264959050N01138316EA0042500488000000
B0845304959050N01138316EA0042500488000000
B0845344959050N01138316EA0042500488000000
B0845384959050N01138316EA0042500488000000
B0845424959050N01138316EA0042500488000000
B0845464959050N01138316EA0042500488000000
B0845504959050N01138316EA0042500488000000
B0845544959050N01138316EA0042500488000000
B0845584959050N01138316EA0042500488000000
B0846024959050N01138316EA0042500488000000
B0846064959050N01138316EA0042500488000004
B0846104959050N01138316EA0042500488000000
B0846144959050N01138316EA0042500488000000
B0846184959050N01138316EA0042500488000000
B0846224959050N01138316EA0042500488000000
B0846264959050N01138316EA0042500488000000
B0846304959050N01138316EA0042500488000000
B0846344959050N01138316EA0042500488000000
B0846384959050N01138316EA0042500488000000
B0846424959050N01138316EA0042500488000000
B0846464959050N01138316EA0042500488000000
B0846504959050N01138316EA0042500488000000
B0846544959050N01138316EA0042500488000000
B0846584959054N01138316EA0042500488000000
B0847024959054N01138316EA0042500488000000
B0847064959054N01138316EA0042500488000000
B0847104959054N01138316EA0042500488000000
B0847144959050N01138316EA0042500488000000
B0847184959050N01138316EA0042500488000000
B0847224959050N01138316EA0042500488000000
B0847264959050N01138316EA0042500488000000
B0847304959050N01138316EA0042500488000000
B0847344959050N01138316EA0042500488000000
B0847384959050N01138316EA0042500488000000
B0847424959050N01138316EA0042500488000000
B0847464959050N01138316EA0042500488000000
B0847504959050N01138316EA0042500488000000
B0847544959050N01138316EA0042500488000000
B0847584959050N01138316EA0042500488000000
B0848024959050N01138316EA0042500488000000
B0848064959054N01138316EA0042500488000000
B0848104959054N01138312EA0042500488000000
B0848144959054N01138312EA0042500488000000
B0848184959054N01138316EA0042500488000000
B0848224959054N01138316EA0042500488000000
B0848264959050N01138316EA0042500488000000
B0848304959050N01138316EA0042500488000000
B0848344959050N01138316EA0042500488000000
B0848384959050N01138316EA0042500488000000
B0848424959050N01138316EA0042500488000000
B0848464959050N01138316EA0042500488000000
B0848504959054N01138316EA0042500488000000
B0848544959054N01138316EA0042500488000000
B0848584959054N01138312EA0042500488000000
B0849024959054N01138312EA0042500488000000
B0849064959054N01138312EA0042600488000000
B0849104959054N01138312EA0042600488000000
B0849144959054N01138312EA0042600488000000
B0849184959054N01138312EA0042600488000000
B0849224959054N01138316EA0042600488000000
B0849264959054N01138316EA0042600488000000
B0849304959054N01138316EA0042600488000000
B0849344959054N01138316EA0042600488000000
B0849384959054N01138312EA0042600488004000
B0849424959054N01138312EA0042600488000000
B0849464959054N01138312EA0042600488000000
B0849504959054N01138316EA0042600488000000
B0849544959054N01138316EA0042600488000000
B0849584959050N01138316EA0042600488000000
B0850024959050N01138316EA0042600488000000
B0850064959050N01138316EA0042600488000000
B0850104959050N01138316EA0042600488000000
B0850144959050N01138316EA0042600488000000
B0850184959050N01138316EA0042600488000000
B0850224959054N01138316EA0042600488000000
B0850264959054N01138316EA0042600488000000
B0850304959054N01138316EA0042600488000000
B0850344959050N01138316EA0042600488000000
B0850384959050N01138316EA0042600488000000
B0850424959050N01138316EA0042600488000000
B0850464959050N01138316EA0042600488000000
B0850504959050N01138316EA0042600488000000
B0850544959050N01138316EA0042600488000000
B0850584959050N01138316EA0042600488000000
B0851024959050N01138316EA0042600488000000
B0851064959050N01138312EA0042600488000000
B0851104959050N01138312EA0042600488000000
B0851144959050N01138312EA0042600488000000
B0851184959054N01138312EA0042600488000000
B0851224959054N01138312EA0042600488000000
B0851264959050N01138312EA0042600488000000
B0851304959050N01138312EA0042600488000000
B0851344959050N01138312EA0042600488000000
B0851384959050N01138312EA0042600488000000
B0851424959050N01138312EA0042600488000000
B0851464959050N01138312EA0042600488000000
B0851504959050N01138312EA0042600488000000
B0851544959050N01138312EA0042600488000000
B0851584959050N01138312EA0042600488000000
B0852024959050N01138312EA0042600488000000
B0852064959050N01138312EA0042600488000000
B0852104959050N01138312EA0042600488000000
B0852144959050N01138316EA0042600488000000
B0852184959050N01138316EA0042600488000000
B0852224959050N01138316EA0042600488000000
B0852264959050N01138316EA0042600488000000
B0852304959050N01138312EA0042600488000000
B0852344959050N01138312EA0042600488000000
B0852384959050N01138312EA0042500488000000
B0852424959050N01138312EA0042500488000000
B0852464959050N01138312EA0042500488000000
B0852504959050N01138312EA0042500488000000
B0852544959050N01138312EA0042500488000000
B0852584959050N01138312EA0042500488000000
B0853024959050N01138312EA0042500488000000
B0853064959050N01138312EA0042500488000000
B0853104959050N01138312EA0042500488000000
B0853144959050N01138312EA0042500488000000
B0853184959050N01138312EA0042500488000000
B0853224959050N01138312EA0042500488000000
B0853264959050N01138312EA0042500488000000
B0853304959050N01138312EA0042500488000000
B0853344959050N01138312EA0042500488000000
B0853384959050N01138312EA0042500488000000
B0853424959050N01138312EA0042500488000000
B0853464959050N01138312EA0042500488000000
B0853504959050N01138312EA0042500488000000
B0853544959050N01138312EA0042500488000000
B0853584959050N01138312EA0042500488000000
B0854024959050N01138312EA0042500488000000
B0854064959050N01138312EA0042500488000000
B0854104959050N01138312EA0042500488000000
B0854144959050N01138312EA0042500488000000
B0854184959050N01138312EA0042500488000000
B0854224959050N01138312EA0042500488000000
B0854264959050N01138312EA0042500488000000
B0854304959050N01138312EA0042500488000000
B0854344959050N01138312EA0042500488000000
B0854384959050N01138312EA0042500488000000
B0854424959050N01138312EA0042500488000000
B0854464959050N01138312EA0042500488000000
B0854504959050N01138312EA0042500488000000
B0854544959050N01138312EA0042600488000000
B0854584959050N01138312EA0042600488000000
B0855024959050N01138312EA0042600488000000
B0855064959050N01138312EA0042600488000000
B0855104959050N01138312EA0042600488000000
B0855144959050N01138312EA0042600488000000
B0855184959050N01138312EA0042600488000000
B0855224959050N01138312EA0042600488000000
B0855264959050N01138312EA0042600488000000
B0855304959050N01138312EA0042600488000000
B0855344959050N01138312EA0042600488000000
B0855384959050N01138312EA0042600488000000
B0855424959050N01138312EA0042600488000000
B0855464959050N01138312EA0042600488000000
B0855504959050N01138312EA0042600488000000
B0855544959050N01138312EA0042600488000000
B0855584959050N01138312EA0042600488000000
B0856024959050N01138312EA0042600488000000
B0856064959050N01138312EA0042600488000000
B0856104959050N01138312EA0042600488000000
B0856144959050N01138312EA0042600488000000
B0856184959050N01138312EA0042600488000000
B0856224959050N01138312EA0042600488000000
B0856264959050N01138312EA0042600488000000
B0856304959050N01138312EA0042600488000000
B0856344959050N01138312EA0042600488000000
B0856384959050N01138312EA0042600488000000
B0856424959050N01138312EA0042600488000000
B0856464959050N01138312EA0042600488000000
B0856504959050N01138312EA0042600488000000
B0856544959050N01138312EA0042600488000000
B0856584959050N01138316EA0042600488000000
B0857024959050N01138312EA0042600488000000
B0857064959050N01138312EA0042600488000000
B0857104959050N01138312EA0042800488000000
B0857144959050N01138312EA0042800488000000
B0857184959050N01138312EA0042800488000000
B0857224959050N01138312EA0042600488000000
B0857264959050N01138312EA0042600488000000
B0857304959050N01138312EA0042600488000000
B0857344959050N01138312EA0042600488000000
B0857384959050N01138312EA0042600488000000
B0857424959050N01138312EA0042600488000000
B0857464959050N01138312EA0042600488000000
B0857504959050N01138312EA0042600488000000
B0857544959050N01138312EA0042600488000000
B0857584959054N01138312EA0042600488000000
B0858024959054N01138316EA0042600488000000
B0858064959054N01138312EA0042600488000000
B0858104959054N01138312EA0042600488000000
B0858144959054N01138312EA0042600488000000
B0858184959054N01138312EA0042600488000000
B0858224959050N01138312EA0042600488000000
B0858264959050N01138312EA0042800488000000
B0858304959050N01138312EA0042800488000000
B0858344959050N01138312EA0042800488000000
B0858384959050N01138316EA0042800488000000
B0858424959050N01138316EA0042800488000000
B0858464959050N01138316EA0042800488000000
B0858504959054N01138312EA0042800488000000
B0858544959054N01138312EA0042600488000004
B0858584959054N01138312EA0042600496000000
B0859024959054N01138312EA0042600488000008
B0859064959054N01138312EA0042600488000008
B0859104959050N01138312EA0042800488000000
B0859144959050N01138312EA0042800488000004
B0859184959050N01138312EA0042800488000000
B0859224959050N01138312EA0042800488000000
B0859264959050N01138312EA0042800488000000
B0859304959050N01138312EA0042800488000000
B0859344959050N01138312EA0042800488000000
B0859384959050N01138312EA0042800488000000
B0859424959050N01138312EA0042800488000000
B0859464959050N01138312EA0042800488000000
B0859504959050N01138312EA0042800488000000
B0859544959050N01138312EA0042800488000000
B0859584959050N01138312EA0042800488000000
B0900024959050N01138312EA0042800488000000
B0900064959050N01138312EA0042800488000000
B0900104959050N01138312EA0042800488000000
B0900144959050N01138312EA0042800488000000
B0900184959050N01138312EA0042800488000000
B0900224959050N01138312EA0042800488000000
B0900264959050N01138312EA0042600488000000
B0900304959050N01138312EA0042600496000000
B0900344959050N01138312EA0042600496000000
B0900384959050N01138312EA0042600496000000
B0900424959050N01138312EA0042600496000000
B0900464959050N01138312EA0042600496000000
B0900504959050N01138312EA0042600496000000
B0900544959050N01138312EA0042600496000000
B0900584959050N01138312EA0042600496000000
B0901024959050N01138312EA0042600496000000
B0901064959050N01138312EA0042600496000000
B0901104959050N01138312EA0042600496000000
B0901144959050N01138312EA0042600488000000
B0901184959050N01138312EA0042600488000000
B0901224959050N01138312EA0042600488000000
B0901264959050N01138312EA0042600488000000
B0901304959050N01138312EA0042600488000000
B0901344959050N01138312EA0042600488000000
B0901384959050N01138312EA0042600488000000
B0901424959050N01138312EA0042600488000000
B0901464959050N01138312EA0042600488000000
B0901504959050N01138312EA0042600488000000
B0901544959050N01138312EA0042600488000000
B0901584959050N01138312EA0042600488000000
B0902024959050N01138312EA0042600488000000
B0902064959050N01138312EA0042600488000000
B0902104959050N01138312EA0042600488000000
B0902144959050N01138312EA0042600488000000
B0902184959050N01138312EA0042600488000000
B0902224959050N01138312EA0042600488000000
B0902264959050N01138312EA0042600488000000
B0902304959050N01138312EA0042600488000000
B0902344959050N01138312EA0042600488000000
B0902384959050N01138312EA0042600488000000
B0902424959050N01138312EA0042600488000000
B0902464959050N01138312EA0042600488000000
B0902504959050N01138312EA0042600488000000
B0902544959050N01138312EA0042600488000000
B0902584959050N01138312EA0042600488000000
B0903024959050N01138312EA0042600488000000
B0903064959050N01138312EA0042600488000000
B0903104959050N01138312EA0042600488000000
B0903144959050N01138312EA0042600488000000
B0903184959050N01138312EA0042600488000000
B0903224959050N01138312EA0042600488000000
B0903264959050N01138312EA0042600488000000
B0903304959050N01138312EA0042600488000000
B0903344959050N01138316EA0042600488000000
B0903384959050N01138316EA0042600496000000
B0903424959050N01138316EA0042600496000000
B0903464959050N01138316EA0042600496000000
B0903504959050N01138316EA0042600496000000
B0903544959050N01138316EA0042600496000000
B0903584959050N01138316EA0042600496000000
B0904024959050N01138316EA0042600496000000
B0904064959050N01138316EA0042600496000000
B0904104959050N01138316EA0042600496000000
B0904144959050N01138316EA0042600488000000
B0904184959050N01138316EA0042600488000000
B0904224959050N01138316EA0042600488000000
B0904264959050N01138316EA0042600488000000
B0904304959050N01138316EA0042600488000000
B0904344959050N01138316EA0042600488000000
B0904384959050N01138312EA0042600488000000
B0904424959050N01138312EA0042600488000000
B0904464959050N01138312EA0042600496000000
B0904504959050N01138312EA0042600496000000
B0904544959050N01138312EA0042600496000000
B0904584959050N01138312EA0042600496000000
B0905024959050N01138312EA0042600496000000
B0905064959050N01138312EA0042600488000000
B0905104959050N01138312EA0042600488000000
B0905144959050N01138316EA0042600488000000
B0905184959050N01138316EA0042600488000000
B0905224959050N01138316EA0042600488000000
B0905264959050N01138316EA0042600488000000
B0905304959050N01138316EA0042600488000000
B0905344959050N01138316EA0042600488000000
B0905384959050N01138316EA0042600488000000
B0905424959054N01138316EA0042600488000000
B0905464959050N01138316EA0042600488000000
B0905504959050N01138316EA0042600488000000
B0905544959050N01138316EA0042600488000000
B0905584959050N01138316EA0042600488000000
B0906024959050N01138316EA0042600488000000
B0906064959050N01138316EA0042600488000000
B0906104959050N01138316EA0042600488000000
B0906144959050N01138316EA0042600488000000
B0906184959050N01138316EA0042600488000000
B0906224959050N01138316EA0042600488000000
B0906264959050N01138316EA0042600488000000
B0906304959050N01138316EA0042600496000000
B0906344959050N01138316EA0042600496000000
B0906384959050N01138316EA0042600496000000
B0906424959050N01138316EA0042600496000000
B0906464959050N01138316EA0042600496000000
B0906504959050N01138316EA0042600496000000
B0906544959050N01138316EA0042600488000000
B0906584959050N01138316EA0042600488000000
B0907024959050N01138316EA0042600488000000
B0907064959050N01138316EA0042600488000000
B0907104959050N01138316EA0042600488000000
B0907144959050N01138316EA0042600488000000
B0907184959050N01138316EA0042600488000004
B0907224959050N01138316EA0042600488000000
B0907264959050N01138312EA0042600488000000
B0907304959050N01138316EA0042600488000000
B0907344959050N01138312EA0042600488000000
B0907384959050N01138312EA0042600488000000
B0907424959050N01138312EA0042600488000000
B0907464959050N01138312EA0042600488000000
B0907504959050N01138316EA0042600488000004
B0907544959050N01138316EA0042600488000000
B0907584959050N01138312EA0042600488000000
B0908024959050N01138312EA0042600488000000
B0908064959050N01138312EA0042600488000000
B0908104959050N01138312EA0042600488000000
B0908144959050N01138312EA0042600488000000
B0908184959050N01138312EA0042600488000000
B0908224959050N01138312EA0042600488000000
B0908264959050N01138312EA0042600488000000
B0908304959050N01138312EA0042600488000000
B0908344959050N01138312EA0042600488000000
B0908384959050N01138312EA0042600488000000
B0908424959050N01138312EA0042600488000000
B0908464959050N01138312EA0042600488000004
B0908504959050N01138312EA0042600488000000
B0908544959050N01138312EA0042600488000000
B0908584959050N01138312EA0042600488000000
B0909024959050N01138312EA0042600488000000
B0909064959050N01138316EA0042600488000000
B0909104959050N01138316EA0042600488000000
B0909144959050N01138316EA0042600488000000
B0909184959050N01138316EA0042600488000000
B0909224959050N01138312EA0042600488000000
B0909264959050N01138312EA0042600488000000
B0909304959050N01138312EA0042600488000000
B0909344959050N01138312EA0042600488000004
B0909384959050N01138312EA0042600488000000
B0909424959050N01138312EA0042600488000000
B0909464959050N01138312EA0042600488000000
B0909504959050N01138312EA0042600488000004
B0909544959050N01138312EA0042600488000000
B0909584959050N01138312EA0042600488000004
B0910024959050N01138312EA0042600488000004
B0910064959050N01138312EA0042600488000004
B0910104959050N01138312EA0042600488000004
B0910144959050N01138312EA0042600488000000
B0910184959054N01138312EA0042600488000000
B0910224959054N01138312EA0042600488000000
B0910264959054N01138312EA0042600488000000
B0910304959054N01138312EA0042600488000004
B0910344959054N01138312EA0042600488000000
B0910384959054N01138312EA0042600488000004
B0910424959054N01138312EA0042600488000004
B0910464959054N01138312EA0042600488000000
B0910504959054N01138312EA0042600488000000
B0910544959054N01138312EA0042600488000000
B0910584959054N01138312EA0042600488000000
B0911024959054N01138312EA0042600488000000
B0911064959054N01138312EA0042600488000000
B0911104959054N01138312EA0042600488000000
B0911144959054N01138312EA0042600488000000
B0911184959054N01138312EA0042600488000004
B0911224959054N01138312EA0042600488000000
B0911264959054N01138312EA0042600488000000
B0911304959054N01138312EA0042600488000000
B0911344959054N01138312EA0042600488000000
B0911384959054N01138312EA0042600488000000
B0911424959054N01138312EA0042600488000000
B0911464959054N01138312EA0042600488000000
B0911504959054N01138312EA0042600488000000
B0911544959054N01138312EA0042600488000000
B0911584959054N01138312EA0042600488000000
B0912024959054N01138312EA0042600488000000
B0912064959050N01138312EA0042600488000000
B0912104959050N01138312EA0042600488000000
B0912144959054N01138312EA0042600488000000
B0912184959054N01138312EA0042600488000000
B0912224959054N01138312EA0042600488000000
B0912264959050N01138316EA0042600488000000
B0912304959050N01138316EA0042600488000004
B0912344959050N01138316EA0042600488000000
B0912384959050N01138316EA0042600488000004
B0912424959050N01138316EA0042600488000004
B0912464959050N01138316EA0042600488000008
B0912504959050N01138316EA0042600488000008
B0912544959050N01138316EA0042600488000008
B0912584959050N01138316EA0042600488000008
B0913024959050N01138316EA0042600488000008
B0913064959050N01138316EA0042600488000008
B0913104959050N01138316EA0042600488000008
B0913144959050N01138316EA0042600488000008
B0913184959050N01138316EA0042600488000012
B0913224959050N01138316EA0042600488000008
B0913264959050N01138312EA0042600488000012
B0913304959050N01138312EA0042600488000012
B0913344959050N01138308EA0042600488000028
B0913384959045N01138304EA0042600488000020
B0913424959045N01138304EA0042600488000016
B0913464959045N01138300EA0042600488000024
B0913504959045N01138295EA0042600488000020
B0913544959041N01138295EA0042600488000016
B0913584959041N01138295EA0042600488000016
B0914024959041N01138295EA0042600488000016
B0914064959041N01138295EA0042600488000000
B0914104959041N01138295EA0042600488000008
B0914144959041N01138295EA0042600488000012
B0914184959041N01138291EA0042600488000008
B0914224959041N01138287EA0042600488000012
B0914264959041N01138287EA0042600488000012
B0914304959041N01138283EA0042600488000028
B0914344959037N01138279EA0042600488000020
B0914384959037N01138275EA0042600488000016
B0914424959037N01138270EA0042600488000024
B0914464959033N01138270EA0042600488000016
B0914504959033N01138266EA0042600488000016
B0914544959033N01138262EA0042600488000016
B0914584959029N01138258EA0042600488000016
B0915024959029N01138258EA0042600488000016
B0915064959029N01138254EA0042600488000016
B0915104959029N01138250EA0042600488000020
B0915144959025N01138245EA0042600488000016
B0915184959025N01138241EA0042600488000000
B0915224959025N01138237EA0042600488000008
B0915264959020N01138233EA0042600488000012
B0915304959020N01138229EA0042600488000008
B0915344959020N01138225EA0042600488000012
B0915384959016N01138220EA0042600488000012
B0915424959016N01138220EA0042600488000012
B0915464959016N01138216EA0042600488000012
B0915504959012N01138212EA0042600488000012
B0915544959012N01138208EA0042600488000012
B0915584959012N01138204EA0042600488000012
B0916024959008N01138200EA0042600488000012
B0916064959008N01138195EA0042600488000012
B0916104959008N01138195EA0042600488000012
B0916144959004N01138191EA0042600488000012
B0916184959004N01138187EA0042600488000012
B0916224959004N01138187EA0042600488000012
B0916264959004N01138183EA0042600488000012
B0916304959004N01138183EA0042600488000012
B0916344959000N01138179EA0042600488000012
B0916384959000N01138179EA0042600488000012
B0916424959000N01138179EA0042600488000012
B0916464959000N01138179EA0042600488000028
B0916504959000N01138179EA0042600488000020
B0916544959000N01138179EA0042600488000016
B0916584959000N01138179EA0042600488000024
B0917024959000N01138179EA0042600488000016
B0917064959000N01138179EA0042600488000016
B0917104959000N01138179EA0042600488000004
B0917144959000N01138179EA0042600488000008
B0917184959000N01138179EA0042600488000028
B0917224959000N01138179EA0042600488000016
B0917264959000N01138179EA0042600488000016
B0917304959000N01138179EA0042600488000024
B0917344959000N01138179EA0042600488000024
B0917384959000N01138179EA0042600488000020
B0917424959000N01138179EA0042600488000020
B0917464959000N01138179EA0042600488000024
B0917504959000N01138179EA0042500488000036
B0917544959000N01138179EA0042500488000028
B0917584959000N01138179EA0042500488000028
B0918024959000N01138179EA0042500488000032
B0918064959000N01138179EA0042500488000020
B0918104959000N01138179EA0042500488000024
B0918144959000N01138179EA0042500488000020
B0918184959000N01138179EA0042500488000020
B0918224959000N01138179EA0042500488000020
B0918264959000N01138179EA0042500488000020
B0918304959000N01138179EA0042500488000044
B0918344959000N01138179EA0042500488000032
B0918384959000N01138179EA0042500488000032
B0918424959000N01138179EA0042500488000040
B0918464959000N01138179EA0042500488000020
B0918504959000N01138179EA0042500488000024
B0918544959000N01138179EA0042500488000028
B0918584959000N01138179EA0042500488000024
B0919024959000N01138179EA0042500488000020
B0919064959000N01138179EA0042500488000024
B0919104959000N01138179EA0042500488000020
B0919144959000N01138175EA0042500488000020
B0919184959000N01138175EA0042500488000020
B0919224959000N01138179EA0042500488000020
B0919264959000N01138179EA0042500488000016
B0919304959000N01138179EA0042500488000016
B0919344959000N01138179EA0042500488000016
B0919384959000N01138179EA0042500488000016
B0919424959000N01138179EA0042500488000016
B0919464959000N01138179EA0042500488000016
B0919504959000N01138179EA0042500488000016
B0919544959000N01138179EA0042500488000016
B0919584959000N01138179EA0042500488000016
B0920024959000N01138179EA0042500488000016
B0920064959000N01138179EA0042500488000020
B0920104959000N01138179EA0042500488000016
B0920144959000N01138179EA0042500488000020
B0920184959000N01138179EA0042500488000020
B0920224959000N01138179EA0042500488000016
B0920264959000N01138179EA0042500488000016
B0920304959000N01138179EA0042500488000016
B0920344959000N01138179EA0042500488000016
B0920384959000N01138179EA0042500488000000
B0920424959000N01138179EA0042500488000008
B0920464959000N01138179EA0042500488000004
B0920504959000N01138179EA0042500488000000
B0920544959000N01138179EA0042500488000000
B0920584959000N01138179EA0042500488000000
B0921024959000N01138179EA0042500488000000
B0921064959000N01138179EA0042500488000000
B0921104959000N01138179EA0042500488000000
B0921144959000N01138179EA0042500488000000
B0921184959000N01138179EA0042500488001000
B0921224959000N01138179EA0042500488000000
B0921264959000N01138179EA0042500488000000
B0921304959000N01138179EA0042500488000000
B0921344959000N01138179EA0042500488000000
B0921384959000N01138179EA0042500488000000
B0921424959000N01138179EA0042500488000000
B0921464959000N01138179EA0042500488000000
B0921504959000N01138179EA0042500488000004
B0921544959000N01138179EA0042500488000000
B0921584959000N01138179EA0042500488000000
B0922024959000N01138179EA0042500488000000
B0922064959000N01138179EA0042500488000004
B0922104959000N01138179EA0042500488000000
B0922144959000N01138179EA0042500488000000
B0922184959000N01138179EA0042500488000000
B0922224959000N01138179EA0042500488000000
B0922264959000N01138179EA0042500488000000
B0922304959000N01138179EA0042500488000000
B0922344959000N01138179EA0042500488000000
B0922384959000N01138179EA0042500488000000
B0922424959000N01138179EA0042500488000000
B0922464959000N01138179EA0042500488000000
B0922504959000N01138179EA0042500488000000
B0922544959000N01138179EA0042500488000000
B0922584959000N01138179EA0042500488000000
B0923024959000N01138179EA0042500488000000
B0923064959000N01138179EA0042500488000000
B0923104959000N01138179EA0042500488000000
B0923144959000N01138179EA0042500488000000
B0923184959000N01138179EA0042500488000000
B0923224959000N01138179EA0042500488000000
B0923264959000N01138179EA0042500488000000
B0923304959000N01138179EA0042500488000000
B0923344959000N01138179EA0042500488000000
B0923384959000N01138179EA0042500488000000
B0923424959000N01138179EA0042500488000000
B0923464959000N01138179EA0042500488000000
B0923504959000N01138179EA0042500488000000
B0923544959000N01138179EA0042500488000000
B0923584959000N01138179EA0042500488000000
B0924024959000N01138179EA0042400488000000
B0924064959000N01138179EA0042400488000000
B0924104959000N01138179EA0042400488000000
B0924144959000N01138179EA0042400488000000
B0924184959000N01138179EA0042400488000000
B0924224959000N01138179EA0042400488000004
B0924264959000N01138179EA0042400488000000
B0924304959000N01138179EA0042400488000000
B0924344959000N01138179EA0042400488000000
B0924384959000N01138179EA0042400488000000
B0924424959000N01138179EA0042400488000000
B0924464959000N01138179EA0042400488000000
B0924504959000N01138179EA0042400488000000
B0924544959000N01138179EA0042400488000000
B0924584959000N01138179EA0042400488000000
B0925024959000N01138179EA0042400488000000
B0925064959000N01138179EA0042400488000000
B0925104959000N01138179EA0042400488000000
B0925144959000N01138179EA0042400488000000
B0925184959000N01138179EA0042400488000000
B0925224959000N01138179EA0042400488000000
B0925264959000N01138179EA0042400488000000
B0925304959000N01138179EA0042400488000000
B0925344959000N01138179EA0042400488000000
B0925384959000N01138179EA0042400488000000
B0925424959000N01138179EA0042400488000000
B0925464959000N01138179EA0042400488000000
B0925504959000N01138179EA0042400488000000
B0925544959000N01138179EA0042400488000000
B0925584959000N01138179EA0042400488000000
B0926024959000N01138179EA0042400488000000
B0926064959000N01138179EA0042400488000000
B0926104959000N01138179EA0042400488000000
B0926144959000N01138179EA0042400488000000
B0926184959000N01138179EA0042400488000000
B0926224959000N01138179EA0042400488000000
B0926264959000N01138179EA0042400488000000
B0926304959000N01138179EA0042400488000000
B0926344959000N01138179EA0042400488000000
B0926384959000N01138179EA0042400488000000
B0926424959000N01138179EA0042400488000000
B0926464959000N01138179EA0042400488000000
B0926504959000N01138179EA0042400488000000
B0926544959000N01138179EA0042400488000000
B0926584959000N01138179EA0042400488000000
B0927024959000N01138179EA0042400488000000
B0927064959000N01138179EA0042400488000000
B0927104959000N01138179EA0042400488000000
B0927144959000N01138179EA0042400488000000
B0927184959000N01138179EA0042400488000000
B0927224959000N01138179EA0042400488000000
B0927264959000N01138179EA0042400488000000
B0927304959000N01138179EA0042400488000000
B0927344959000N01138179EA0042400488000000
B0927384959000N01138179EA0042400488000000
B0927424959000N01138179EA0042400488000000
B0927464959000N01138179EA0042400488000000
B0927504959000N01138179EA0042400488000000
B0927544959000N01138179EA0042400488000000
B0927584959000N01138179EA0042400488000000
B0928024959000N01138179EA0042400488000000
B0928064959000N01138179EA0042400488000000
B0928104959000N01138179EA0042400488003000
B0928144959000N01138179EA0042400488000000
B0928184959000N01138179EA0042400488000000
B0928224959000N01138179EA0042400488000000
B0928264959000N01138179EA0042400488000000
B0928304959000N01138179EA0042400488000000
B0928344959000N01138179EA0042400488000000
B0928384959000N01138179EA0042400488000000
B0928424959000N01138179EA0042400488000000
B0928464959000N01138179EA0042400488000000
B0928504959000N01138179EA0042400488000000
B0928544959000N01138179EA0042400488000000
B0928584959000N01138175EA0042400488000000
B0929024959000N01138175EA0042400488000000
B0929064959000N01138175EA0042400488000000
B0929104959000N01138175EA0042400488000000
B0929144959000N01138175EA0042400488000000
B0929184959000N01138175EA0042400488000000
B0929224959000N01138175EA0042400488000000
B0929264959000N01138175EA0042400488000000
B0929304959000N01138175EA0042400488000000
B0929344959000N01138175EA0042400488000000
B0929384959000N01138179EA0042400488000000
B0929424959000N01138179EA0042400488000000
B0929464959000N01138179EA0042400488000000
B0929504959000N01138179EA0042400488000000
B0929544959000N01138179EA0042400488000000
B0929584959000N01138179EA0042400488000000
B0930024959000N01138179EA0042400488000000
B0930064959000N01138179EA0042400488000000
B0930104959000N01138179EA0042400488000000
B0930144959000N01138179EA0042400488000000
B0930184959000N01138179EA0042400488000000
B0930224959000N01138179EA0042400488000000
B0930264959000N01138179EA0042400488000000
B0930304959000N01138179EA0042400488000000
B0930344959000N01138179EA0042400488000000
B0930384959000N01138179EA0042400488000000
B0930424959000N01138179EA0042400488000000
B0930464959000N01138179EA0042400488000000
B0930504959000N01138179EA0042400488000000
B0930544959000N01138179EA0042400488000000
B0930584959000N01138179EA0042400488000000
B0931024959000N01138179EA0042400488000000
B0931064959000N01138179EA0042400488000000
B0931104959000N01138179EA0042400488000000
B0931144959000N01138179EA0042400488000000
B0931184959000N01138179EA0042400488000000
B0931224959000N01138179EA0042400488000000
B0931264959000N01138179EA0042400488000000
B0931304959000N01138179EA0042400488000000
B0931344959000N01138179EA0042400488000000
B0931384959000N01138179EA0042400488000000
B0931424959000N01138179EA0042400488000000
B0931464959000N01138179EA0042400488000000
B0931504959000N01138179EA0042400488000000
B0931544959000N01138179EA0042400488000000
B0931584959000N01138179EA0042400488000000
B0932024959000N01138179EA0042400488000000
B0932064959000N01138179EA0042400488000000
B0932104959000N01138179EA0042400488000000
B0932144959000N01138179EA0042400488000000
B0932184959000N01138179EA0042400488000000
B0932224959000N01138179EA0042400488000000
B0932264959000N01138179EA0042400488000000
B0932304959000N01138179EA0042400488000000
B0932344959000N01138179EA0042400488000000
B0932384959000N01138179EA0042400488000000
B0932424959000N01138179EA0042400488000000
B0932464959000N01138179EA0042400488000000
B0932504959000N01138179EA0042400488000000
B0932544959000N01138179EA0042400488000000
B0932584959000N01138179EA0042400488000000
B0933024959000N01138179EA0042400488000000
B0933064959000N01138179EA0042400488000000
B0933104959000N01138179EA0042400488000000
B0933144959000N01138179EA0042400488000000
B0933184959000N01138179EA0042400488000000
B0933224959000N01138179EA0042400488000000
B0933264959000N01138179EA0042400488000000
B0933304959000N01138179EA0042400488000000
B0933344959000N01138179EA0042400488000000
B0933384959000N01138179EA0042400488000000
B0933424959000N01138179EA0042400488000000
B0933464959000N01138179EA0042400488000000
B0933504959000N01138179EA0042400488000004
B0933544959000N01138179EA0042400488000000
B0933584959000N01138179EA0042500488000000
B0934024959000N01138179EA0042500488000000
B0934064959000N01138179EA0042500488000000
B0934104959000N01138179EA0042500488000000
B0934144959000N01138179EA0042500488000004
B0934184959000N01138179EA0042500488000000
B0934224959000N01138179EA0042500488000000
B0934264959000N01138179EA0042500488000000
B0934304959000N01138179EA0042500488000000
B0934344959000N01138179EA0042500488000000
B0934384959000N01138179EA0042500488000004
B0934424959000N01138179EA0042500488000000
B0934464959000N01138179EA0042500488000000
B0934504959000N01138179EA0042500488000000
B0934544959000N01138179EA0042500488000000
B0934584959000N01138179EA0042500488000000
B0935024959000N01138179EA0042500488000000
B0935064959000N01138179EA0042500488000000
B0935104959000N01138179EA0042500488000000
B0935144959000N01138179EA0042500488000000
B0935184959000N01138179EA0042500488000000
B0935224959000N01138179EA0042500488000000
B0935264959000N01138179EA0042500488000000
B0935304959000N01138179EA0042500488000000
B0935344959000N01138179EA0042500488000000
B0935384959000N01138179EA0042500488000000
B0935424959000N01138179EA0042500488000000
LZAN 093542 PowerOff
LZAN 093550 PowerOn
B0935544959000N01138179EV0042500000000000
B0935584959000N01138179EV0042500000000000
B0936024959000N01138175EA0042500480000000
B0936064959000N01138175EA0042500488000000
B0936104959000N01138175EA0042500488000000
B0936144959000N01138175EA0042500488000000
B0936184959000N01138175EA0042500488000000
B0936224959000N01138175EA0042500488000000
B0936264959000N01138175EA0042500488000000
B0936304959000N01138179EA0042500488000000
B0936344959000N01138179EA0042500488000000
B0936384959000N01138179EA0042500488000000
B0936424959000N01138179EA0042500488000000
B0936464959000N01138179EA0042500488000000
B0936504959000N01138179EA0042400488000000
B0936544959000N01138179EA0042400488000016
B0936584959000N01138179EA0042400488000008
B0937024959000N01138179EA0042400488000016
B0937064959000N01138179EA0042400488000016
B0937104959000N01138179EA0042400488000024
B0937144959000N01138179EA0042400488000020
B0937184959000N01138179EA0042400488000020
B0937224959000N01138179EA0042400488000024
B0937264959000N01138179EA0042400488000016
B0937304959000N01138179EA0042400488000016
B0937344959000N01138179EA0042400488000016
B0937384959000N01138179EA0042400488000016
B0937424959000N01138179EA0042400488000016
B0937464959000N01138179EA0042500488000016
B0937504959000N01138179EA0042500488000020
B0937544959000N01138179EA0042500488000016
B0937584959000N01138179EA0042500488000020
B0938024959000N01138179EA0042500488000020
B0938064959000N01138179EA0042500488000020
B0938104959000N01138179EA0042500488000020
B0938144959000N01138179EA0042500488000020
B0938184959000N01138179EA0042500488000020
B0938224959000N01138175EA0042500488000020
B0938264959000N01138175EA0042500488000020
B0938304959000N01138179EA0042500488000020
B0938344959000N01138179EA0042500488000020
B0938384959000N01138179EA0042500488000024
B0938424959000N01138179EA0042500488000024
B0938464959000N01138179EA0042500488000024
B0938504959000N01138179EA0042500488000024
B0938544959000N01138179EA0042500488000020
B0938584959000N01138175EA0042500488000024
B0939024959000N01138175EA0042500488000020
B0939064959000N01138175EA0042500488000020
B0939104959000N01138175EA0042500488000020
B0939144959000N01138179EA0042500488000020
B0939184959000N01138179EA0042500488000020
B0939224959000N01138179EA0042500488000020
B0939264959000N01138179EA0042500488000020
B0939304959000N01138179EA0042500488000020
B0939344959000N01138179EA0042500488000020
B0939384959000N01138179EA0042500488000020
B0939424959000N01138179EA0042500488000024
B0939464959000N01138179EA0042500488000024
B0939504959000N01138179EA0042500488000024
B0939544959000N01138179EA0042500488000024
B0939584959000N01138179EA0042500488000024
B0940024959000N01138179EA0042500488000024
B0940064959000N01138179EA0042500488000024
B0940104959000N01138179EA0042500488000024
B0940144959000N01138179EA0042500488000024
B0940184959000N01138179EA0042500488000024
B0940224959000N01138179EA0042500488000024
B0940264959000N01138179EA0042500488000024
B0940304959000N01138179EA0042500488000020
B0940344959000N01138175EA0042500488000024
B0940384959000N01138175EA0042500488000024
B0940424959000N01138175EA0042400488000024
B0940464959000N01138175EA0042400488000024
B0940504959000N01138175EA0042400488000024
B0940544959000N01138175EA0042400488000024
B0940584959000N01138175EA0042400488000024
B0941024959000N01138175EA0042400488000028
B0941064959000N01138175EA0042400488000024
B0941104959000N01138179EA0042400488000020
B0941144959000N01138179EA0042400488000024
B0941184959000N01138179EA0042400488000020
B0941224959000N01138179EA0042400488000020
B0941264959000N01138179EA0042400488000024
B0941304959000N01138179EA0042400488000024
B0941344959000N01138179EA0042400488000028
B0941384959000N01138179EA0042400488000024
B0941424959000N01138179EA0042400488000024
B0941464959000N01138179EA0042400488000024
B0941504959000N01138179EA0042400488000024
B0941544959000N01138179EA0042400488000024
B0941584959000N01138179EA0042400488000020
B0942024959000N01138179EA0042400488000024
B0942064959000N01138179EA0042400488000052
B0942104959000N01138179EA0042400488000036
B0942144959000N01138179EA0042400488000064
B0942184959000N01138179EA0042400488000056
B0942224959000N01138179EA0042400488000040
B0942264959000N01138179EA0042400488000052
B0942304959000N01138179EA0042400488000020
B0942344959000N01138179EA0042400488000032
B0942384959000N01138179EA0042400488000020
B0942424959000N01138179EA0042400488000020
B0942464959000N01138179EA0042400488000068
B0942504959000N01138179EA0042400488000132
B0942544959000N01138179EA0042400488000100
B0942584959000N01138179EA0042400488000116
B0943024959000N01138179EA0042400488000052
B0943064959000N01138179EA0042400488000076
B0943104959000N01138179EA0042400488000016
B0943144959000N01138179EA0042400488000032
B0943184959000N01138179EA0042400488000024
B0943224959000N01138179EA0042400488000020
B0943264959000N01138179EA0042400488000020
B0943304959000N01138179EA0042400488000024
B0943344959000N01138179EA0042400488000028
B0943384959000N01138179EA0042400488000024
B0943424959000N01138179EA0042400488000060
B0943464959000N01138179EA0042400488000044
B0943504959000N01138179EA0042400488000040
B0943544959000N01138179EA0042400488000048
B0943584959000N01138179EA0042400488000012
B0944024959000N01138179EA0042400488000024
B0944064959000N01138179EA0042400488000012
B0944104959000N01138179EA0042400488000012
B0944144959000N01138179EA0042400488000008
B0944184959000N01138175EA0042400488000008
B0944224959000N01138175EA0042400488000008
B0944264959000N01138179EA0042400488000008
B0944304959000N01138179EA0042400488000012
B0944344959000N01138179EA0042400488000008
B0944384959000N01138179EA0042400488000012
B0944424959000N01138179EA0042400488000012
B0944464959000N01138179EA0042400488000012
B0944504959000N01138179EA0042400488000012
B0944544959000N01138179EA0042400488000040
B0944584959000N01138179EA0042400488000024
B0945024959000N01138179EA0042400488000076
B0945064959000N01138179EA0042400488000056
B0945104959000N01138179EA0042400488000004
B0945144959000N01138179EA0042400488000040
B0945184959000N01138179EA0042400488000012
B0945224959000N01138179EA0042400488000008
B0945264959000N01138179EA0042400488000000
B0945304959000N01138179EA0042400488000008
B0945344959000N01138179EA0042400488000004
B0945384959000N01138179EA0042400488000000
B0945424959000N01138179EA0042400488000000
B0945464959000N01138175EA0042400488000000
B0945504959000N01138175EA0042400488000000
B0945544959000N01138175EA0042400488000000
B0945584959000N01138175EA0042400488000000
B0946024959000N01138175EA0042400488000000
B0946064959000N01138179EA0042400488000000
B0946104959000N01138175EA0042400488000000
B0946144959000N01138175EA0042400488000000
B0946184959000N01138175EA0042400488000000
B0946224959000N01138175EA0042400488000000
B0946264959000N01138175EA0042400488000000
B0946304959000N01138175EA0042400488000000
B0946344959000N01138175EA0042400488000000
B0946384959000N01138175EA0042400488000004
B0946424959000N01138175EA0042400488000000
B0946464959000N01138179EA0042400488000000
B0946504959000N01138179EA0042400488000000
B0946544959000N01138179EA0042400488000000
B0946584959000N01138179EA0042400488000000
B0947024959000N01138179EA0042400488000004
B0947064959000N01138179EA0042400488000000
B0947104959000N01138179EA0042400488000004
B0947144959000N01138179EA0042400488000004
B0947184959000N01138179EA0042400488000004
B0947224959000N01138179EA0042400488000004
B0947264959000N01138179EA0042400488000004
B0947304959000N01138179EA0042400488000004
B0947344959000N01138179EA0042400488000004
B0947384959000N01138179EA0042400488000004
B0947424959000N01138179EA0042400488000004
B0947464959000N01138179EA0042400488000004
B0947504959000N01138179EA0042400488000000
B0947544959000N01138179EA0042400488000000
B0947584959000N01138179EA0042400488000004
B0948024959000N01138179EA0042400488000000
B0948064959000N01138179EA0042400488000008
B0948104959000N01138179EA0042400488000008
B0948144959000N01138179EA0042400488000004
B0948184959000N01138179EA0042400488000008
B0948224959000N01138179EA0042400488000004
B0948264959000N01138179EA0042400488000004
B0948304959000N01138179EA0042400488000000
B0948344959000N01138179EA0042400488000000
B0948384959000N01138179EA0042400488000004
B0948424959000N01138179EA0042500488000000
B0948464959000N01138179EA0042500488000008
B0948504959000N01138179EA0042500488000008
B0948544959000N01138179EA0042500488000008
B0948584959000N01138179EA0042500488000008
B0949024959000N01138179EA0042500488000008
B0949064959000N01138179EA0042500488000008
B0949104959000N01138179EA0042500488000012
B0949144959000N01138179EA0042500488000008
B0949184959000N01138179EA0042500488000004
B0949224959000N01138179EA0042500488000008
B0949264959000N01138179EA0042500488000000
B0949304959000N01138179EA0042500488000000
B0949344959000N01138179EA0042500488000000
B0949384959000N01138179EA0042500488000000
B0949424959000N01138175EA0042500488000000
B0949464959000N01138175EA0042500488000000
B0949504959000N01138175EA0042500488000000
B0949544959000N01138175EA0042500488000000
B0949584959000N01138175EA0042500488000000
B0950024959000N01138175EA0042500488000000
B0950064959000N01138175EA0042500488000000
B0950104959000N01138175EA0042500488000000
B0950144959000N01138175EA0042500488000000
B0950184959000N01138175EA0042500488000000
B0950224959000N01138175EA0042500488001000
B0950264959000N01138175EA0042500488000000
B0950304959000N01138175EA0042500488000000
B0950344959000N01138175EA0042500488000000
B0950384959000N01138175EA0042500488000000
B0950424959000N01138175EA0042500488000000
B0950464959000N01138175EA0042500488000004
B0950504959000N01138175EA0042500488000000
B0950544959000N01138175EA0042500488000008
B0950584959000N01138175EA0042500488000008
B0951024959000N01138175EA0042500488000004
B0951064959000N01138175EA0042500488000008
B0951104959000N01138175EA0042500488000008
B0951144959000N01138175EA0042500488000008
B0951184959000N01138175EA0042500488000004
B0951224959000N01138175EA0042500488000008
B0951264959000N01138175EA0042500488000012
B0951304959000N01138175EA0042500488000008
B0951344959000N01138179EA0042500488000008
B0951384959000N01138175EA0042500488000008
B0951424959000N01138175EA0042500488000008
B0951464959000N01138175EA0042500488000008
B0951504959000N01138175EA0042500488000008
B0951544959000N01138175EA0042500488000008
B0951584959000N01138175EA0042500488000008
B0952024959000N01138179EA0042500488000008
B0952064959000N01138175EA0042500488000024
B0952104959000N01138175EA0042500488000016
B0952144959000N01138175EA0042500488000000
B0952184959000N01138175EA0042500488000012
B0952224959000N01138175EA0042500488000012
B0952264959000N01138175EA0042500488000008
B0952304959000N01138175EA0042500488000008
B0952344959000N01138179EA0042500488000008
B0952384959000N01138179EA0042500488000004
B0952424959000N01138179EA0042500488000008
B0952464959000N01138175EA0042500488000004
B0952504959000N01138175EA0042500488000004
B0952544959000N01138175EA0042500488000008
B0952584959000N01138175EA0042500488000008
B0953024959000N01138175EA0042500488000004
B0953064959000N01138175EA0042500488000008
B0953104959000N01138175EA0042500488000004
B0953144959000N01138175EA0042500488000004
B0953184959000N01138175EA0042500488000004
B0953224959000N01138175EA0042500488000004
B0953264959000N01138175EA0042500488000000
B0953304959000N01138175EA0042500488000000
B0953344959000N01138175EA0042500488000004
B0953384959000N01138175EA0042500488000000
B0953424959000N01138179EA0042500488000000
B0953464959000N01138179EA0042500488000000
B0953504959000N01138179EA0042500488000008
B0953544959000N01138179EA0042500488000004
B0953584959000N01138179EA0042500488000020
B0954024959000N01138179EA0042500488000016
B0954064959000N01138179EA0042500488000104
B0954104959000N01138179EA0042500488000064
B0954144959000N01138179EA0042500488000040
B0954184959000N01138179EA0042500488000072
B0954224959000N01138179EA0042500488000000
B0954264959000N01138179EA0042500488000020
B0954304959000N01138179EA0042500488000008
B0954344959000N01138179EA0042500488000004
B0954384959000N01138179EA0042500488000004
B0954424959000N01138179EA0042500488000008
B0954464959000N01138179EA0042500488000004
B0954504959000N01138179EA0042500488000004
B0954544959000N01138179EA0042500488000004
B0954584959000N01138179EA0042500488000004
B0955024959000N01138179EA0042500488000004
B0955064959000N01138179EA0042500488000004
B0955104959000N01138179EA0042500488000004
B0955144959000N01138179EA0042500488000004
B0955184959000N01138179EA0042500488000004
B0955224959000N01138179EA0042500488000004
B0955264959000N01138179EA0042500488000008
B0955304959000N01138179EA0042500488000008
B0955344959000N01138179EA0042500488000024
B0955384959000N01138179EA0042500488000016
B0955424959000N01138179EA0042500488000084
B0955464959000N01138179EA0042500488000056
B0955504959000N01138179EA0042500488000040
B0955544959000N01138179EA0042500488000064
B0955584959000N01138179EA0042500488000008
B0956024959000N01138179EA0042500488000024
B0956064959000N01138179EA0042500488000012
B0956104959000N01138179EA0042500488000008
B0956144959000N01138179EA0042500488000004
B0956184959000N01138179EA0042500488000008
B0956224959000N01138179EA0042500488000004
B0956264959000N01138179EA0042500488000004
B0956304959000N01138179EA0042500488000008
B0956344959000N01138179EA0042500488000008
B0956384959000N01138179EA0042500488000008
B0956424959000N01138179EA0042500488000008
B0956464959000N01138179EA0042500488000004
B0956504959000N01138175EA0042500488000008
B0956544959000N01138175EA0042500488000004
B0956584959000N01138175EA0042500488000004
B0957024959000N01138175EA0042500488000020
B0957064959000N01138175EA0042500488000012
B0957104959000N01138175EA0042500488000020
B0957144959000N01138179EA0042500488000020
B0957184959000N01138179EA0042500488000148
B0957224959000N01138179EA0042500488000148
B0957264959000N01138179EA0042500488000048
B0957304959000N01138179EA0042500488000096
B0957344959000N01138175EA0042500488000012
B0957384959000N01138175EA0042500488000032
B0957424959000N01138175EA0042500488000008
B0957464959000N01138175EA0042500488000008
B0957504959000N01138175EA0042500488000008
B0957544959000N01138175EA0042500488000008
B0957584959000N01138175EA0042500488000044
B0958024959000N01138175EA0042500488000024
B0958064959000N01138175EA0042500488000032
B0958104959000N01138175EA0042500488000040
B0958144959000N01138175EA0042500488000084
B0958184959000N01138175EA0042500488000056
B0958224959000N01138175EA0042500488000024
B0958264959000N01138175EA0042500488000056
B0958304959000N01138175EA0042500488000008
B0958344959000N01138179EA0042500488000016
B0958384959000N01138179EA0042500488000004
B0958424959000N01138179EA0042500488000008
B0958464959000N01138179EA0042500488000008
B0958504959000N01138179EA0042500488000008
B0958544959000N01138179EA0042500488000012
B0958584959000N01138179EA0042500488000008
B0959024959000N01138179EA0042500488000024
B0959064959000N01138179EA0042500488000016
B0959104959000N01138179EA0042500488000000
B0959144959000N01138179EA0042500488000012
B0959184959000N01138179EA0042500488000008
B0959224959000N01138179EA0042500488000004
B0959264959000N01138179EA0042500488000000
B0959304959000N01138179EA0042500488000004
B0959344959000N01138179EA0042500488000000
B0959384959000N01138179EA0042500488000000
B0959424959000N01138175EA0042500488000000
B0959464959000N01138175EA0042500488000000
B0959504959000N01138175EA0042500488000000
B0959544959000N01138175EA0042500488000000
B0959584959000N01138175EA0042500488000000
B1000024959000N01138175EA0042500488000000
B1000064959000N01138175EA0042500488000000
B1000104959000N01138175EA0042500488000000
B1000144959000N01138175EA0042500488000000
B1000184959000N01138175EA0042500488000000
B1000224959000N01138175EA0042500488000000
B1000264959000N01138175EA0042500488000000
B1000304959000N01138175EA0042500488000000
B1000344959000N01138175EA0042500488000000
B1000384959000N01138179EA0042500488000000
B1000424959000N01138179EA0042500488000000
B1000464959000N01138179EA0042500488000000
B1000504959000N01138179EA0042500488000000
B1000544959000N01138179EA0042500488000000
B1000584959000N01138179EA0042500488000000
B1001024959000N01138179EA0042500488000000
B1001064959000N01138179EA0042500488000000
B1001104959000N01138179EA0042500488000000
B1001144959000N01138179EA0042500488000000
B1001184959000N01138179EA0042500488000000
B1001224959000N01138179EA0042500488000000
B1001264959000N01138179EA0042500488000004
B1001304959000N01138179EA0042600488000000
B1001344959000N01138179EA0042600488000000
B1001384959000N01138179EA0042400488000000
B1001424959000N01138175EA0042400488000000
B1001464959000N01138175EA0042400488000000
B1001504959000N01138179EA0042400488000004
B1001544959000N01138179EA0042400488000000
B1001584959000N01138179EA0042400488000004
B1002024959000N01138179EA0042400488000004
B1002064959000N01138179EA0042400488000012
B1002104959000N01138175EA0042500488000008
B1002144959000N01138175EA0042500488000008
B1002184959000N01138175EA0042500488000008
B1002224959000N01138175EA0042500488000004
B1002264959000N01138175EA0042500488000008
B1002304959000N01138175EA0042500488000004
B1002344959000N01138175EA0042500488000004
B1002384959000N01138175EA0042500488000004
B1002424959000N01138175EA0042500488000004
B1002464959000N01138175EA0042500488000008
B1002504959000N01138175EA0042500488000008
B1002544959000N01138175EA0042500488000020
B1002584959000N01138179EA0042500488000016
B1003024959000N01138179EA0042500488000012
B1003064959000N01138179EA0042500488000016
B1003104959000N01138179EA0042500488000012
B1003144959000N01138179EA0042500488000012
B1003184959000N01138179EA0042500488000000
B1003224959000N01138179EA0042500488000008
B1003264959000N01138179EA0042500488000000
B1003304959000N01138175EA0042500488000000
B1003344959000N01138179EA0042500488000000
B1003384959000N01138179EA0042500488000000
B1003424959000N01138179EA0042500488000004
B1003464959000N01138179EA0042500488000000
B1003504959000N01138179EA0042500488000004
B1003544959000N01138179EA0042500488000004
B1003584959000N01138179EA0042500488000004
B1004024959000N01138179EA0042500488000004
B1004064959000N01138179EA0042500488000004
B1004104959000N01138179EA0042500488000004
B1004144959000N01138179EA0042500488000004
B1004184959000N01138179EA0042500488000004
B1004224959000N01138179EA0042500488000008
B1004264959000N01138179EA0042500488000008
B1004304959000N01138179EA0042500488000012
B1004344959000N01138179EA0042500488000008
B1004384959000N01138179EA0042500488000008
B1004424959000N01138179EA0042500488000008
B1004464959000N01138179EA0042500488000024
B1004504959000N01138179EA0042500488000016
B1004544959000N01138179EA0042500488000000
B1004584959000N01138179EA0042500488004012
B1005024959000N01138179EA0042500488000008
B1005064959000N01138179EA0042500488000004
B1005104959000N01138179EA0042500488000008
B1005144959000N01138179EA0042500488006008
B1005184959000N01138175EA0042500488003008
B1005224959000N01138175EA0042500488001008
B1005264959000N01138175EA0042500488000068
B1005304959000N01138175EA0042500488000040
B1005344959000N01138175EA0042500488000080
B1005384959000N01138179EA0042500488000072
B1005424959000N01138179EA0042500488000020
B1005464959000N01138179EA0042500488000048
B1005504959000N01138179EA0042500488000008
B1005544959000N01138179EA0042500488000016
B1005584959000N01138179EA0042500488000008
B1006024959000N01138179EA0042500488000008
B1006064959000N01138179EA0042500488000008
B1006104959000N01138179EA0042500488000008
B1006144959000N01138179EA0042500488000008
B1006184959000N01138179EA0042500488000008
B1006224959000N01138179EA0042500488000008
B1006264959000N01138179EA0042500488000008
B1006304959000N01138179EA0042500488000008
B1006344959000N01138179EA0042500488000008
B1006384959000N01138179EA0042500488000004
B1006424959000N01138179EA0042500488000008
B1006464959000N01138179EA0042500488000012
B1006504959000N01138179EA0042600488000008
B1006544959000N01138179EA0042600488000012
B1006584959000N01138179EA0042600488000012
B1007024959000N01138179EA0042600488000012
B1007064959000N01138179EA0042600488000012
B1007104959000N01138179EA0042600488000108
B1007144959000N01138179EA0042600488000128
B1007184959000N01138179EA0042600488000092
B1007224959000N01138179EA0042600488000112
B1007264959000N01138179EA0042600488000024
B1007304959000N01138179EA0042600488000056
B1007344959000N01138179EA0042600488000012
B1007384959000N01138179EA0042600488000016
B1007424959000N01138179EA0042600488000012
B1007464959000N01138179EA0042600488000012
B1007504959000N01138179EA0042600488000020
B1007544959000N01138179EA0042600496000016
B1007584959000N01138179EA0042600496000016
B1008024959000N01138179EA0042600496000016
B1008064959000N01138179EA0042600496000024
B1008104959000N01138179EA0042600496000020
B1008144959000N01138179EA0042600496000020
B1008184959000N01138179EA0042600488000024
B1008224959000N01138175EA0042600488000020
B1008264959000N01138175EA0042600488000020
B1008304959000N01138175EA0042600488000012
B1008344959000N01138175EA0042600488000016
B1008384959000N01138175EA0042600488000028
B1008424959000N01138175EA0042600488000020
B1008464959000N01138179EA0042600488000020
B1008504959000N01138179EA0042600488000024
B1008544959000N01138179EA0042600488000016
B1008584959000N01138179EA0042600488000016
B1009024959000N01138179EA0042600488000152
B1009064959000N01138179EA0042600488000152
B1009104959000N01138179EA0042600488000024
B1009144959000N01138179EA0042600488000088
B1009184959000N01138179EA0042600496000012
B1009224959000N01138179EA0042600496000016
B1009264959000N01138179EA0042600496000004
B1009304959000N01138179EA0042600496000008
B1009344959000N01138179EA0042600496000000
B1009384959000N01138179EA0042600496000000
B1009424959000N01138179EA0042600496000000
B1009464959000N01138179EA0042600496000000
B1009504959000N01138179EA0042600496000004
B1009544959000N01138179EA0042600496000000
B1009584959000N01138179EA0042600496000004
B1010024959000N01138179EA0042600488000004
B1010064959000N01138179EA0042600488000004
B1010104959000N01138179EA0042600488000004
B1010144959000N01138179EA0042600488000000
B1010184959000N01138179EA0042600488000000
B1010224959000N01138179EA0042600488000000
B1010264959000N01138179EA0042600488000000
B1010304959000N01138179EA0042600488000000
B1010344959000N01138179EA0042600488000000
B1010384959000N01138179EA0042600488000000
B1010424959000N01138179EA0042600488000000
B1010464959000N01138179EA0042600488000000
B1010504959000N01138179EA0042600488000000
B1010544959000N01138179EA0042600488000000
B1010584959000N01138179EA0042600488000000
B1011024959000N01138179EA0042600488000000
B1011064959000N01138179EA0042600488000000
B1011104959000N01138179EA0042600488000000
B1011144959000N01138179EA0042600488000000
B1011184959000N01138179EA0042600488000000
B1011224959000N01138179EA0042600488000000
B1011264959000N01138179EA0042600488000000
B1011304959000N01138179EA0042600488000000
B1011344959000N01138179EA0042600488000004
B1011384959000N01138179EA0042600488000000
B1011424959000N01138179EA0042600488000004
B1011464959000N01138179EA0042600488000004
B1011504959000N01138179EA0042600488000004
B1011544959000N01138179EA0042600488000004
B1011584959000N01138179EA0042600488000004
B1012024959000N01138179EA0042600488000004
B1012064959000N01138179EA0042600488000008
B1012104959000N01138179EA0042600488000008
B1012144959000N01138179EA0042600488000008
B1012184959000N01138179EA0042600488000008
B1012224959000N01138179EA0042600488000024
B1012264959000N01138179EA0042600488000016
B1012304959000N01138179EA0042600488000000
B1012344959000N01138179EA0042600488000012
B1012384959000N01138179EA0042600488000028
B1012424959000N01138179EA0042600488000016
B1012464959000N01138179EA0042600488000044
B1012504959000N01138179EA0042600488000036
B1012544959000N01138179EA0042600488000052
B1012584959000N01138179EA0042600488000048
B1013024959000N01138175EA0042600488000024
B1013064959000N01138175EA0042600488000040
B1013104959000N01138175EA0042600488000000
B1013144959000N01138175EA0042600488000012
B1013184959000N01138175EA0042600488000004
B1013224959000N01138175EA0042600488000000
B1013264959000N01138175EA0042600480000004
B1013304959000N01138175EA0042600488000004
B1013344959000N01138175EA0042600488000000
B1013384959000N01138175EA0042600488000000
B1013424959000N01138175EA0042600488000000
B1013464959000N01138175EA0042600488000000
B1013504959000N01138179EA0042600488000004
B1013544959000N01138179EA0042600488000000
B1013584959000N01138179EA0042600488000008
B1014024959000N01138179EA0042600488000008
B1014064959000N01138179EA0042600488000020
B1014104959000N01138179EA0042600488000016
B1014144959000N01138179EA0042600488000016
B1014184959000N01138179EA0042600488000016
B1014224959000N01138179EA0042600488000000
B1014264959000N01138179EA0042600488000008
B1014304959000N01138179EA0042600488000012
B1014344959000N01138179EA0042600488000008
B1014384959000N01138179EA0042600488000004
B1014424959000N01138179EA0042600488000008
B1014464959000N01138179EA0042600488000004
B1014504959000N01138179EA0042600488000004
B1014544959000N01138179EA0042600488000008
B1014584959000N01138179EA0042600488000008
B1015024959000N01138179EA0042600488000024
B1015064959000N01138179EA0042600488000016
B1015104959000N01138179EA0042600488000016
B1015144959000N01138179EA0042600488000020
B1015184959000N01138179EA0042600488000212
B1015224959000N01138179EA0042600488000232
B1015264959000N01138179EA0042600488000112
B1015304959000N01138179EA0042600488000172
B1015344959000N01138179EA0042600488000016
B1015384959000N01138179EA0042600488000064
B1015424959000N01138179EA0042600488000024
B1015464959000N01138179EA0042600480000020
B1015504959000N01138179EA0042600480000000
B1015544959000N01138179EA0042600480000012
B1015584959000N01138179EA0042600480000012
B1016024959000N01138179EA0042600480000008
B1016064959000N01138179EA0042600480000008
B1016104959000N01138179EA0042600488000008
B1016144959000N01138179EA0042600488000008
B1016184959000N01138179EA0042600488000008
B1016224959000N01138179EA0042600488000004
B1016264959000N01138179EA0042600488000008
B1016304959000N01138179EA0042600488000008
B1016344959000N01138179EA0042600488000008
B1016384959000N01138179EA0042600488000008
B1016424959000N01138179EA0042600488000008
B1016464959000N01138179EA0042600488000008
B1016504959000N01138179EA0042600488000008
B1016544959000N01138179EA0042600488000004
B1016584959000N01138179EA0042600488000008
B1017024959000N01138179EA0042600488000008
B1017064959000N01138179EA0042600488000008
B1017104959000N01138179EA0042600488000028
B1017144959000N01138179EA0042600488000016
B1017184959000N01138179EA0042600488000016
B1017224959000N01138179EA0042600488000024
B1017264959000N01138179EA0042600488000016
B1017304959000N01138179EA0042600488000016
B1017344959000N01138179EA0042600488000024
B1017384959000N01138179EA0042600488000020
B1017424959000N01138179EA0042600488000000
B1017464959000N01138179EA0042600488000012
B1017504959000N01138179EA0042600488000004
B1017544959000N01138179EA0042600488000000
B1017584959000N01138179EA0042600488000004
B1018024959000N01138179EA0042600488000004
B1018064959000N01138179EA0042600488000004
B1018104959000N01138179EA0042600488000004
B1018144959000N01138179EA0042600488000008
B1018184959000N01138179EA0042600488000008
B1018224959000N01138179EA0042600488000012
B1018264959000N01138179EA0042600488000008
B1018304959000N01138179EA0042600488000008
B1018344959000N01138179EA0042600488000008
B1018384959000N01138179EA0042600488000008
B1018424959000N01138179EA0042600488000008
B1018464959000N01138179EA0042600488000008
B1018504959000N01138179EA0042600488000008
B1018544959000N01138179EA0042600488000092
B1018584959000N01138179EA0042600488000048
B1019024959000N01138179EA0042600488000104
B1019064959000N01138179EA0042600488000096
B1019104959000N01138179EA0042600488000024
B1019144959000N01138175EA0042600488000064
B1019184959000N01138179EA0042600488000012
B1019224959000N01138179EA0042600488000016
B1019264959000N01138179EA0042600488000008
B1019304959000N01138179EA0042600488000008
B1019344959000N01138179EA0042600488000008
B1019384959000N01138179EA0042600488000008
B1019424959000N01138179EA0042600488000008
B1019464959000N01138179EA0042600488000008
B1019504959000N01138179EA0042600488000120
B1019544959000N01138179EA0042600488000136
B1019584959000N01138179EA0042600488000072
B1020024959000N01138179EA0042600488000104
B1020064959000N01138179EA0042600488000008
B1020104959000N01138179EA0042600488000040
B1020144959000N01138179EA0042600488000012
B1020184959000N01138179EA0042600488000008
B1020224959000N01138179EA0042600488000008
B1020264959000N01138179EA0042600488000008
B1020304959000N01138179EA0042600488000004
B1020344959000N01138179EA0042600488000008
B1020384959000N01138179EA0042600488000004
B1020424959000N01138179EA0042600488000004
B1020464959000N01138179EA0042600488000008
B1020504959000N01138179EA0042600488000008
B1020544959000N01138179EA0042600488000008
B1020584959000N01138179EA0042600488000008
B1021024959000N01138179EA0042600488000008
B1021064959000N01138179EA0042600488000008
B1021104959000N01138179EA0042600488000008
B1021144959000N01138179EA0042600488000008
B1021184959000N01138179EA0042600488000008
B1021224959000N01138179EA0042600488000008
B1021264959000N01138179EA0042600488000004
B1021304959000N01138179EA0042600488000008
B1021344959000N01138179EA0042600488000004
B1021384959000N01138179EA0042600488000004
B1021424959000N01138179EA0042600488000000
B1021464959000N01138179EA0042600488000000
B1021504959000N01138179EA0042600488000000
B1021544959000N01138179EA0042600488000000
B1021584959000N01138179EA0042600488000000
B1022024959000N01138179EA0042600488000000
B1022064959000N01138179EA0042600488000000
B1022104959000N01138179EA0042600488000000
B1022144959000N01138179EA0042600488000000
B1022184959000N01138179EA0042600488000000
B1022224959000N01138179EA0042600488000000
B1022264959000N01138179EA0042600488000000
B1022304959000N01138179EA0042600488000004
B1022344959000N01138179EA0042600488000000
B1022384959000N01138179EA0042600488000000
B1022424959000N01138179EA0042800488000000
B1022464959000N01138179EA0042800488000004
B1022504959000N01138179EA0042800488000000
B1022544959000N01138179EA0042800488000012
B1022584959000N01138179EA0042800488000008
B1023024959000N01138179EA0042800488000004
B1023064959000N01138179EA0042800488000008
B1023104959000N01138179EA0042800488000004
B1023144959000N01138179EA0042800488000004
B1023184959000N01138179EA0042800488000000
B1023224959000N01138179EA0042800488000000
B1023264959000N01138179EA0042800488000000
B1023304959000N01138179EA0042800488000000
B1023344959000N01138179EV0042800000000004
B1023384959000N01138179EA0042800488000000
B1023424959000N01138179EA0042800488000004
B1023464959000N01138175EA0042800488000004
B1023504959000N01138175EA0042800488000020
B1023544959000N01138175EA0042800488000012
B1023584959000N01138175EA0042800488000004
B1024024959000N01138175EA0042800488000012
B1024064959000N01138175EA0042800488000008
B1024104959000N01138175EA0042800488000008
B1024144959000N01138175EA0042800488000008
B1024184959000N01138175EA0042800488000008
B1024224959000N01138175EA0042800488000012
B1024264959000N01138175EA0042800488000008
B1024304959000N01138175EA0042800488000012
B1024344959000N01138175EA0042800488000012
B1024384959000N01138175EA0042800488000012
B1024424959000N01138179EA0042800488000012
B1024464959000N01138179EA0042800488000008
B1024504959000N01138179EA0042800488000008
B1024544959000N01138179EA0042800488000012
B1024584959000N01138179EA0042800488000008
B1025024959000N01138179EA0042800488000012
B1025064959000N01138179EA0042800488000012
B1025104959000N01138179EA0042800488000008
B1025144959000N01138179EA0042800488000008
B1025184959000N01138179EA0042800488000008
B1025224959000N01138179EA0042800488000008
B1025264959000N01138179EA0042800488000012
B1025304959000N01138179EA0042800488000008
B1025344959000N01138179EA0042800488000008
B1025384959000N01138175EA0042800488000008
B1025424959000N01138179EA0042800488000004
B1025464959000N01138179EA0042800488000008
B1025504959000N01138179EA0042800488000008
B1025544959000N01138179EA0042800488000008
B1025584959000N01138179EA0042800488000012
B1026024959000N01138179EA0042800488000008
B1026064959000N01138179EA0042800488000004
B1026104959000N01138179EA0042800488000008
B1026144959000N01138179EA0042800488000004
B1026184959000N01138179EA0042800488000004
B1026224959000N01138179EA0042800488000004
B1026264959000N01138179EA0042800488000004
B1026304959000N01138179EA0042800488000004
B1026344959000N01138179EA0042800488000004
B1026384959000N01138179EA0042800488000004
B1026424959000N01138179EA0042800488000004
B1026464959000N01138179EA0042800488000004
B1026504959000N01138179EA0042800488000004
B1026544959000N01138179EA0042800488000008
B1026584959000N01138179EA0042800488000008
B1027024959000N01138179EA0042800488000040
B1027064959000N01138179EA0042800488000024
B1027104959000N01138179EA0042800488000016
B1027144959000N01138179EA0042800488000028
B1027184959000N01138179EA0042800488000008
B1027224959000N01138179EA0042800488000012
B1027264959000N01138179EA0042800488000012
B1027304959000N01138179EA0042800488000008
B1027344959000N01138179EA0042800488000024
B1027384959000N01138179EA0042800488000016
B1027424959000N01138179EA0042800488000036
B1027464959000N01138179EA0042800488000032
B1027504959000N01138179EA0042800488000028
B1027544959000N01138179EA0042800488000032
B1027584959000N01138179EA0042800488000012
B1028024959000N01138179EA0042800488000020
B1028064959000N01138179EA0042800488000008
B1028104959000N01138179EA0042800488000008
B1028144959000N01138179EA0042800488000008
B1028184959000N01138179EA0042800488000008
B1028224959000N01138179EA0042800488000008
B1028264959000N01138179EA0042800488000008
B1028304959000N01138179EA0042800488000012
B1028344959000N01138179EA0042800488000008
B1028384959000N01138179EA0042800488000028
B1028424959000N01138179EA0042800488000020
B1028464959000N01138179EA0042800488000016
B1028504959000N01138179EA0042800488000024
B1028544959000N01138179EA0042800488000008
B1028584959000N01138179EA0042800488000012
B1029024959000N01138179EA0042800488000012
B1029064959000N01138179EA0042800488000008
B1029104959000N01138179EA0042800488000028
B1029144959000N01138179EA0042800488000020
B1029184959000N01138179EA0042800488000032
B1029224959000N01138179EA0042800488000032
B1029264959000N01138179EA0042800488000100
B1029304959000N01138179EA0042800488000064
B1029344959000N01138179EA0042800488000044
B1029384959000N01138179EA0042800488000072
B1029424959000N01138179EA0042800488000004
B1029464959000N01138179EA0042800488000024
B1029504959000N01138179EA0042800488000008
B1029544959000N01138179EA0042800488000008
B1029584959000N01138179EA0042800488000008
B1030024959000N01138179EA0042800488000008
B1030064959000N01138179EA0042800488000024
B1030104959000N01138179EA0042800488000016
B1030144959000N01138179EA0042800488000072
B1030184959000N01138179EA0042800488000048
B1030224959000N01138179EA0042800488000056
B1030264959000N01138179EA0042800488000064
B1030304959000N01138179EA0042800488000004
B1030344959000N01138175EA0042800488000032
B1030384959000N01138175EA0042800488000012
B1030424959000N01138175EA0042800488000008
B1030464959000N01138175EA0042800488000024
B1030504959000N01138175EA0042800488000016
B1030544959000N01138175EA0042800488000068
B1030584959000N01138175EA0042800488000128
B1031024959000N01138179EA0042800488000116
B1031064959000N01138179EA0042800488000120
B1031104959000N01138179EA0042800488000004
B1031144959000N01138179EA0042800488000060
B1031184959000N01138179EA0042800488000004
B1031224959000N01138179EA0042800488000004
B1031264959000N01138179EA0042800488000000
B1031304959000N01138175EA0042800488000000
B1031344959000N01138175EA0042600488000000
B1031384959000N01138175EA0042600488000000
B1031424959000N01138175EA0042600488000000
B1031464959000N01138175EA0042600488000000
B1031504959000N01138175EA0042600488000000
B1031544959000N01138175EA0042600488000000
B1031584959000N01138175EA0042600488000000
B1032024959000N01138175EA0042600488000000
B1032064959000N01138175EA0042600488000000
B1032104959000N01138175EA0042600488000000
B1032144959000N01138175EA0042600488000000
B1032184959000N01138175EA0042600488000000
B1032224959000N01138179EA0042600488000000
B1032264959000N01138179EA0042800488000000
B1032304959000N01138175EA0042800488000000
B1032344959000N01138175EA0042800488000000
B1032384959000N01138175EA0042800488000000
B1032424959000N01138175EA0042800488000000
B1032464959000N01138175EA0042800488000000
B1032504959000N01138175EA0042800488000000
B1032544959000N01138175EA0042800488000000
B1032584959000N01138175EA0042800488000000
B1033024959000N01138175EA0042800488000000
B1033064959000N01138175EA0042800488000000
B1033104959000N01138175EA0042900488000004
B1033144959000N01138175EA0042900488000000
B1033184959000N01138175EA0042900488000004
B1033224959000N01138175EA0042900488000004
B1033264959000N01138175EA0042900488000000
B1033304959000N01138175EA0042900488000000
B1033344959000N01138175EA0042900488000000
B1033384959000N01138175EA0042800488000000
B1033424959000N01138179EA0042800488000020
B1033464959000N01138179EA0042800488000008
B1033504959000N01138179EA0042800488000004
B1033544959000N01138179EA0042800488000012
B1033584959000N01138179EA0042800488000012
B1034024959000N01138179EA0042800488000008
B1034064959000N01138179EA0042800488000004
B1034104959000N01138179EA0042800488000008
B1034144959000N01138179EA0042800488000000
B1034184959000N01138179EA0042800488000000
B1034224959000N01138179EA0042800488000000
B1034264959000N01138179EA0042800488000000
B1034304959000N01138179EA0042800488000000
B1034344959000N01138179EA0042800488000000
B1034384959000N01138179EA0042800488000004
B1034424959000N01138179EA0042800488000000
B1034464959000N01138179EA0042800488000000
B1034504959000N01138179EA0042800488000000
B1034544959000N01138179EA0042800488000004
B1034584959000N01138179EA0042800488000000
B1035024959000N01138179EA0042800488000000
B1035064959000N01138179EA0042800488000000
B1035104959000N01138179EA0042800488000000
B1035144959000N01138179EA0042800488000000
B1035184959000N01138179EA0042800488000004
B1035224959000N01138179EA0042800488000000
B1035264959000N01138179EA0042800488000000
B1035304959000N01138179EA0042800488000000
B1035344959000N01138179EA0042800488000004
B1035384959000N01138179EA0042800488000000
B1035424959000N01138179EA0042800488000004
B1035464959000N01138179EA0042800488000004
B1035504959000N01138179EA0042800488000004
B1035544959000N01138179EA0042800488000004
B1035584959000N01138179EA0042800488000004
B1036024959000N01138179EA0042800488000004
B1036064959000N01138179EA0042800488000004
B1036104959000N01138179EA0042800488000004
B1036144959000N01138179EA0042800488000004
B1036184959000N01138179EA0042800488000004
B1036224959000N01138179EA0042800488000000
B1036264959000N01138179EA0042800488000000
B1036304959000N01138179EA0042800488000004
B1036344959000N01138179EA0042800488000000
B1036384959000N01138179EA0042800488000004
B1036424959000N01138179EA0042800488000004
B1036464959000N01138179EA0042800488000028
B1036504959000N01138179EA0042800488000016
B1036544959000N01138179EA0042800488000028
B1036584959000N01138179EA0042800488000028
B1037024959000N01138179EA0042800488000000
B1037064959000N01138179EA0042800488000016
B1037104959000N01138179EA0042800488000004
B1037144959000N01138175EA0042800488000000
B1037184959000N01138179EA0042800488000008
B1037224959000N01138179EA0042800488000008
B1037264959000N01138179EA0042800488000008
B1037304959000N01138179EA0042800488000008
B1037344959000N01138179EA0042800488000008
B1037384959000N01138179EA0042800488000008
B1037424959000N01138179EA0042800488000012
B1037464959000N01138179EA0042800488000008
B1037504959000N01138179EA0042800488000012
B1037544959000N01138179EA0042800488000012
B1037584959000N01138179EA0042800488000004
B1038024959000N01138175EA0042800488000008
B1038064959000N01138175EA0042800488000004
B1038104959000N01138175EA0042800488000004
B1038144959000N01138175EA0042800488000004
B1038184959000N01138175EA0042800488000004
B1038224959000N01138175EA0042800488000004
B1038264959000N01138179EA0042800488000004
B1038304959000N01138179EA0042800488000024
B1038344959000N01138179EA0042800488000016
B1038384959000N01138179EA0042800488000052
B1038424959000N01138179EA0042800488000040
B1038464959000N01138179EA0042800488000000
B1038504959000N01138179EA0042800488000024
B1038544959000N01138179EA0042800488000012
B1038584959000N01138179EA0042800488000008
B1039024959000N01138179EA0042800488000000
B1039064959000N01138179EA0042800488000008
B1039104959000N01138179EA0042800488000008
B1039144959000N01138179EA0042800488000004
B1039184959000N01138179EA0042800488000004
B1039224959000N01138179EA0042800488000008
B1039264959000N01138179EA0042800488000004
B1039304959000N01138179EA0042800488000004
B1039344959000N01138179EA0042800488000004
B1039384959000N01138179EA0042800488000004
B1039424959000N01138179EA0042800488000012
B1039464959000N01138179EA0042600488000008
B1039504959000N01138179EA0042600488000052
B1039544959000N01138179EA0042600488000032
B1039584959000N01138179EA0042600488000096
B1040024959000N01138179EA0042600488000128
B1040064959000N01138179EA0042600488000064
B1040104959000N01138179EA0042600488000096
B1040144959000N01138179EA0042600488000000
B1040184959000N01138179EA0042600488000032
B1040224959000N01138179EA0042600488000012
B1040264959000N01138179EA0042600488000008
B1040304959000N01138179EA0042600488000004
B1040344959000N01138179EA0042600488000008
B1040384959000N01138179EA0042600488000004
B1040424959000N01138179EA0042600488000004
B1040464959000N01138179EA0042600488000008
B1040504959000N01138179EA0042600488000008
B1040544959000N01138179EA0042600488000008
B1040584959000N01138179EA0042600488000008
B1041024959000N01138179EA0042600488000008
B1041064959000N01138179EA0042600488000008
B1041104959000N01138179EA0042600488000024
B1041144959000N01138179EA0042600488000016
B1041184959000N01138179EA0042600488000040
B1041224959000N01138179EA0042600488000032
B1041264959000N01138179EA0042600488000084
B1041304959000N01138179EA0042600488000064
B1041344959000N01138179EA0042600488000040
B1041384959000N01138179EA0042600488000064
B1041424959000N01138179EA0042600488000008
B1041464959000N01138179EA0042800488000024
B1041504959000N01138179EA0042800488000012
B1041544959000N01138179EA0042800488000008
B1041584959000N01138179EA0042800488000040
B1042024959000N01138179EA0042800488000024
B1042064959000N01138179EA0042800488000096
B1042104959000N01138179EA0042800488000068
B1042144959000N01138179EA0042800488000036
B1042184959000N01138179EA0042800488000064
B1042224959000N01138179EA0042800488000000
B1042264959000N01138179EA0042800488000016
B1042304959000N01138179EA0042800488000000
B1042344959000N01138179EA0042800488000000
B1042384959000N01138179EA0042800488000000
B1042424959000N01138179EA0042800488000000
B1042464959000N01138179EA0042800488000000
B1042504959000N01138179EA0042800488000000
B1042544959000N01138179EA0042800488000000
B1042584959000N01138179EA0042800488000000
B1043024959000N01138179EA0042800488000000
B1043064959000N01138179EA0042800488000000
B1043104959000N01138179EA0042800488000000
B1043144959000N01138179EA0042800488000000
B1043184959000N01138179EA0042800488000004
B1043224959000N01138179EA0042800488000000
B1043264959000N01138179EA0042800488000004
B1043304959000N01138179EA0042800488001004
B1043344959000N01138179EA0042800488000040
B1043384959000N01138179EA0042800488000312
B1043424959000N01138179EA0042800488000704
B1043464959000N01138179EA0042800488003424
B1043504959000N01138179EA0042800488014024
B1043544959000N01138179EA0042800488000224
B1043584959000N01138179EA0042800488000040
B1044024959000N01138179EA0042800488005032
B1044064959000N01138179EA0042800488000060
B1044104959000N01138179EA0042800488000208
B1044144959000N01138179EA0042800488000684
B1044184959000N01138179EA0042800488000976
B1044224959000N01138179EA0042800488000984
B1044264959004N01138191EA0042800488017999
B1044304959012N01138212EA0042800488032999
B1044344959025N01138241EA0042800488036999
B1044384959041N01138283EA0042800488042999
B1044424959058N01138337EA0042900488057999
B1044464959083N01138395EA0042900488068999
B1044504959108N01138470EA0042900488086999
B1044544959141N01138550EA0042900488093999
B1044584959170N01138633EA0043700496094999
K104458284008
B1045024959195N01138716EA0045100504091999
B1045064959220N01138795EA0045700512091999
B1045104959241N01138879EA0046100520090999
B1045144959262N01138966EA0046400520092999
B1045184959287N01139058EA0046800528094999
K104518300005
B1045224959308N01139154EA0047000528096999
B1045264959325N01139245EA0047800536093999
B1045304959337N01139341EA0048200544091999
B1045344959345N01139433EA0048600544091999
B1045384959354N01139529EA0049900560090999
K104538224005
B1045424959362N01139620EA0050600568088999
B1045464959366N01139716EA0051300568095999
B1045504959362N01139808EA0052500584096999
B1045544959350N01139900EA0053300592092999
B1045584959329N01139983EA0054200600088999
K104558204012
B1046024959304N01140062EA0054700608092999
B1046064959275N01140137EA0055600616090999
B1046104959237N01140204EA0056500624095999
B1046144959200N01140262EA0058100640092999
B1046184959162N01140320EA0059000656094999
K104618206024
B1046224959125N01140370EA0059700664092999
B1046264959083N01140429EA0059700664093999
B1046304959037N01140475EA0059600656096999
B1046344958987N01140516EA0060500664101999
B1046384958937N01140545EA0062300688099999
K104638214025
B1046424958887N01140562EA0063500704094999
B1046464958837N01140579EA0063900704091999
B1046504958783N01140591EA0064000704094999
B1046544958733N01140600EA0064300712093999
B1046584958683N01140616EA0064700712093999
K104658210019
B1047024958637N01140633EA0065300720092999
B1047064958587N01140666EA0065600720093999
B1047104958541N01140700EA0065800728091999
B1047144958495N01140737EA0066000728093999
B1047184958450N01140775EA0066300728092999
K104718162012
B1047224958404N01140812EA0066900736091999
B1047264958358N01140850EA0067900744091999
B1047304958312N01140891EA0068500752089999
B1047344958270N01140945EA0069400760091999
B1047384958229N01141000EA0070600768093999
K104738142010
B1047424958183N01141058EA0071600784097999
B1047464958141N01141120EA0072700792095999
B1047504958100N01141183EA0074200808101999
B1047544958058N01141245EA0075400824099999
B1047584958020N01141304EA0076000832097999
K104758162009
B1048024957979N01141362EA0076900840096999
B1048064957937N01141425EA0076900840101999
B1048104957895N01141483EA0077500848102999
B1048144957854N01141541EA0078100856097999
B1048184957812N01141604EA0078100856098999
K104818164011
B1048224957770N01141662EA0078200864097999
B1048264957729N01141720EA0078200856099999
B1048304957687N01141787EA0078300856100999
B1048344957641N01141850EA0079700872106999
B1048384957600N01141912EA0081500888101999
K104838176013
B1048424957558N01141970EA0081300888099999
B1048464957512N01142029EA0081200888103999
B1048504957466N01142095EA0081500888105999
B1048544957425N01142154EA0082600896097999
B1048584957383N01142212EA0082700904097999
K104858180014
B1049024957341N01142275EA0082700904098999
B1049064957304N01142337EA0083100912097999
B1049104957262N01142404EA0083500912100999
B1049144957225N01142470EA0083700920100999
B1049184957187N01142541EA0084000920099999
K104918170011
B1049224957150N01142612EA0084200920103999
B1049264957112N01142683EA0084500928101999
B1049304957075N01142758EA0085100928101999
B1049344957045N01142829EA0085900936096999
B1049384957016N01142900EA0086500944095999
K104938150010
B1049424956987N01142970EA0086800952096999
B1049464956958N01143045EA0087000952096999
B1049504956925N01143120EA0087700960102999
B1049544956895N01143187EA0088700968100999
B1049584956862N01143254EA0089200976096999
K104958158013
B1050024956833N01143320EA0089400976097999
B1050064956800N01143387EA0090600992097999
B1050104956770N01143454EA0091901000096999
B1050144956741N01143520EA0093001008093999
B1050184956712N01143591EA0094001024096999
K105018148015
B1050224956691N01143666EA0094501032092999
B1050264956658N01143733EA0095801040096999
B1050304956616N01143787EA0098101064093999
B1050344956566N01143808EA0099001072088999
B1050384956516N01143775EA0099601080091999
K105038174018
B1050424956491N01143691EA0100501088085999
B1050464956508N01143591EA0100101088089999
B1050504956562N01143525EA0099601080092999
B1050544956625N01143520EA0099601080082988
B1050584956675N01143570EA0098601072092932
K105058174018
B1051024956695N01143654EA0099701080091812
B1051064956695N01143729EA0100601088085544
B1051104956658N01143775EA0100001088092200
B1051144956604N01143762EA0099601080093200
B1051184956566N01143687EA0100001088089060
K105118134016
B1051224956566N01143591EA0100101088086128
B1051264956600N01143504EA0099701080090060
B1051304956662N01143450EA0099201072090060
B1051344956725N01143454EA0099101072088036
B1051384956779N01143500EA0099701080092048
K105138134016
B1051424956812N01143566EA0100201088086040
B1051464956816N01143645EA0100501088088040
B1051504956795N01143716EA0100901096090040
B1051544956754N01143750EA0100401088089040
B1051584956695N01143733EA0100001080092040
K105158134016
B1052024956654N01143666EA0100001088092040
B1052064956645N01143566EA0100901096091040
B1052104956670N01143479EA0101601104084040
B1052144956729N01143425EA0101101096095040
B1052184956795N01143412EA0101301104092040
K105218134014
B1052224956854N01143445EA0102201112094040
B1052264956870N01143529EA0102401112094040
B1052304956833N01143591EA0102301112103044
B1052344956779N01143579EA0103101120098040
B1052384956741N01143500EA0103901128098040
K105238128016
B1052424956758N01143395EA0104301128096040
B1052464956816N01143333EA0104701136098036
B1052504956879N01143354EA0106001144097040
B1052544956912N01143425EA0106401152093036
B1052584956895N01143504EA0106401144094036
K105258134014
B1053024956845N01143529EA0106601152095040
B1053064956795N01143483EA0106701152099040
B1053104956775N01143387EA0107601160099040
B1053144956800N01143287EA0107901160096040
B1053184956858N01143225EA0107401160102056
K105318136013
B1053224956929N01143229EA0107501160106048
B1053264956979N01143287EA0108101168098052
B1053304956995N01143383EA0107801176104056
B1053344956975N01143466EA0107901176100048
B1053384956920N01143483EA0107801168100048
K105338134012
B1053424956866N01143429EA0108001176101052
B1053464956845N01143333EA0108801176096048
B1053504956870N01143233EA0109401184093032
B1053544956929N01143175EA0109401184095040
B1053584956991N01143170EA0110601200091040
K105358130013
B1054024957050N01143200EA0110701200092036
B1054064957116N01143220EA0109801192100036
B1054104957187N01143237EA0109601184107040
B1054144957262N01143241EA0109101184110000
B1054184957345N01143237EA0107301168119016
K105418132013
B1054224957433N01143229EA0106101160127028
B1054264957529N01143229EA0104801144139016
B1054304957625N01143225EA0104101136143020
B1054344957725N01143216EA0103201128142024
B1054384957825N01143208EA0102401120142024
K105438200011
B1054424957925N01143200EA0101801112137024
B1054464958025N01143187EA0100801104143020
B1054504958125N01143179EA0099501088144024
B1054544958229N01143170EA0099301088149028
B1054584958329N01143150EA0100401096139024
K105458192014
B1055024958420N01143120EA0100501096137028
B1055064958516N01143091EA0100601096134028
B1055104958612N01143066EA0101001104130028
B1055144958700N01143037EA0102701112117028
B1055184958775N01143004EA0103801128108024
K105518192018
B1055224958850N01142975EA0104601136107024
B1055264958925N01142950EA0104601136101016
B1055304959000N01142933EA0104301128103020
B1055344959079N01142925EA0104001128106020
B1055384959154N01142912EA0103701120105016
K105538210024
B1055424959237N01142908EA0103201120112020
B1055464959316N01142900EA0102501112114020
B1055504959395N01142875EA0101901112114020
B1055544959475N01142833EA0100601096120020
B1055584959554N01142770EA0099701088130020
K105558180015
B1056024959637N01142712EA0100601096126020
B1056064959716N01142662EA0102701112112020
B1056104959791N01142625EA0104301128107020
B1056144959862N01142641EA0106201144093024
B1056184959912N01142704EA0106701152089024
K105618208023
B1056224959929N01142800EA0106101144097040
B1056264959908N01142895EA0106901152099032
B1056304959850N01142929EA0107501160103016
B1056344959808N01142875EA0109401176100028
B1056384959820N01142787EA0110701192085028
K105638208023
B1056424959879N01142733EA0110401192102024
B1056464959950N01142754EA0111901200093028
B1056504959987N01142825EA0111501208084028
B1056544959983N01142929EA0111001192103044
B1056584959941N01143004EA0111601208098036
K105658190013
B1057024959883N01143020EA0112501216100032
B1057064959845N01142954EA0113501224097040
B1057104959866N01142862EA0114501240093016
B1057144959925N01142804EA0115501240100024
B1057184959995N01142829EA0116701256099024
K105718198011
B1057225000020N01142920EA0117101264094020
B1057264959987N01143004EA0116801256101024
B1057304959925N01143004EA0117801272103024
B1057344959904N01142925EA0120001288095028
B1057384959945N01142850EA0120601296096024
K105738198012
B1057425000016N01142862EA0122001304101028
B1057465000045N01142950EA0122501320096028
B1057505000016N01143037EA0122301312102024
B1057544959950N01143033EA0123201320103024
B1057584959912N01142954EA0125001336104028
K105758204008
B1058024959937N01142858EA0125601352094024
B1058065000008N01142820EA0126501352106024
B1058105000070N01142875EA0128401368098024
B1058145000079N01142975EA0128301376098020
B1058185000045N01143066EA0128001368104024
K105818178008
B1058224959995N01143120EA0129301384107016
B1058264959933N01143112EA0130801400097016
B1058304959900N01143029EA0131301400100020
B1058344959920N01142925EA0132701408104016
B1058384959991N01142904EA0132801424099020
K105838176007
B1058425000037N01142991EA0134101424103020
B1058465000016N01143083EA0135501440097024
B1058504959962N01143108EA0136401456099024
B1058544959908N01143054EA0136801464101020
B1058584959912N01142945EA0136801464106024
K105858176007
B1059024959970N01142866EA0138101480109032
B1059065000045N01142887EA0138801488105024
B1059105000075N01142987EA0140001496105016
B1059145000045N01143079EA0140501504106024
B1059184959983N01143095EA0141701512105028
K105918168009
B1059224959937N01143020EA0142701520109024
B1059264959945N01142904EA0143201528107024
B1059305000008N01142825EA0144201544108024
B1059345000079N01142779EA0146001552105028
B1059385000154N01142800EA0147901568103024
K105938162011
B1059425000187N01142891EA0149801600095028
B1059465000166N01142979EA0150301600095028
B1059505000104N01143000EA0150201600103024
B1059545000050N01142941EA0150801608101024
B1059585000045N01142837EA0152201616099028
K105958170011
B1100025000091N01142758EA0153701640091024
B1100065000154N01142704EA0154901648095028
B1100105000220N01142662EA0156301664090028
B1100145000287N01142650EA0156801672094024
B1100185000350N01142700EA0156801672099024
K110018172011
B1100225000370N01142795EA0157701680096020
B1100265000362N01142895EA0158701688096024
B1100305000337N01142979EA0159501696095028
B1100345000308N01143058EA0160001704093024
B1100385000279N01143137EA0159901704107024
K110038166011
B1100425000245N01143225EA0160101704109024
B1100465000220N01143320EA0160501712113024
B1100505000195N01143412EA0160201712116024
B1100545000162N01143508EA0159101696124020
B1100585000125N01143608EA0158401688127024
K110058182018
B1101025000087N01143712EA0158401688124020
B1101065000050N01143804EA0159701704112020
B1101105000020N01143887EA0160201712100024
B1101144959991N01143966EA0160101704094024
B1101184959962N01144045EA0159101696095020
K110118192024
B1101224959933N01144129EA0158401688104024
B1101264959900N01144212EA0158401688098016
B1101304959870N01144295EA0158101688100016
B1101344959837N01144379EA0157501680103004
B1101384959804N01144470EA0155801672113008
K110138182017
B1101424959766N01144570EA0154201648127028
B1101464959725N01144687EA0152101624141016
B1101504959679N01144812EA0151901616145016
B1101544959637N01144945EA0151901624151024
B1101584959595N01145079EA0153301632142016
K110158096010
B1102024959558N01145204EA0154401648139016
B1102064959516N01145325EA0154801648141016
B1102104959470N01145445EA0154101640144016
B1102144959420N01145575EA0153801640156016
B1102184959375N01145704EA0154901648150016
K110218162010
B1102224959333N01145825EA0155201656147020
B1102264959291N01145950EA0155101656143016
B1102304959245N01146070EA0154201648141024
B1102344959195N01146187EA0153801640148024
B1102384959141N01146308EA0153701640154020
K110238180015
B1102424959091N01146429EA0152901632153024
B1102464959037N01146545EA0152001624156016
B1102504958975N01146662EA0151201616159016
B1102544958912N01146779EA0151001608163020
B1102584958850N01146904EA0150001608166016
K110258158013
B1103024958791N01147037EA0149501600175024
B1103064958733N01147175EA0150601608176024
B1103104958675N01147304EA0150801616161024
B1103144958616N01147433EA0150001608165024
B1103184958558N01147566EA0148501592172028
K110318144013
B1103224958495N01147704EA0148001584178024
B1103264958420N01147841EA0148501592181040
B1103304958350N01147966EA0150001600171032
B1103344958283N01148091EA0151001608168016
B1103384958216N01148208EA0153201632152028
K110338188020
B1103424958154N01148325EA0152301632161028
B1103464958083N01148454EA0150901608179024
B1103504958012N01148583EA0154001632162024
B1103544957950N01148695EA0157701672140024
B1103584957895N01148800EA0159301696138028
K110358194012
B1104024957850N01148908EA0160001704135024
B1104064957804N01149025EA0159501704141024
B1104104957758N01149145EA0157701688157024
B1104144957704N01149275EA0156601672165020
B1104184957650N01149404EA0156001664162024
K110418094011
B1104224957591N01149541EA0154501648171024
B1104264957537N01149683EA0153901648174024
B1104304957479N01149825EA0153701640172024
B1104344957425N01149966EA0153401640173024
B1104384957370N01150108EA0153201640172028
K110438118012
B1104424957312N01150254EA0152301632175024
B1104464957254N01150400EA0151201616180024
B1104504957191N01150537EA0150501608176024
B1104544957125N01150675EA0149801600179028
B1104584957058N01150816EA0149201600180024
K110458164014
B1105024956991N01150950EA0149401592182040
B1105064956925N01151087EA0148601584182032
B1105104956854N01151225EA0146801576185016
B1105144956779N01151370EA0145901560192028
B1105184956704N01151512EA0145901552186028
K110518148012
B1105224956620N01151645EA0145101552186024
B1105264956541N01151779EA0144901544184024
B1105304956462N01151908EA0145001544176024
B1105344956383N01152033EA0144201544177028
B1105384956300N01152158EA0142601528179024
K110538202020
B1105424956212N01152283EA0141101512193020
B1105464956120N01152408EA0142601512190024
B1105504956041N01152512EA0147001560160024
B1105544955970N01152595EA0149501592136024
B1105584955904N01152675EA0149601600140024
K110558222028
B1106024955825N01152745EA0147401576157024
B1106064955733N01152804EA0145901560160016
B1106104955633N01152837EA0144601552164020
B1106144955525N01152854EA0143301528166016
B1106184955416N01152854EA0142201520167016
K110618244057
B1106224955308N01152845EA0141201504167020
B1106264955195N01152833EA0140101496169016
B1106304955087N01152820EA0139701496167020
B1106344954979N01152804EA0139501488166020
B1106384954870N01152791EA0139501488162016
K110638260028
B1106424954766N01152775EA0138401480164016
B1106464954658N01152762EA0137501464167016
B1106504954550N01152754EA0136901464168016
B1106544954445N01152737EA0137101464160016
B1106584954341N01152720EA0137301472154016
K110658270012
B1107024954241N01152691EA0139401480145016
B1107064954158N01152654EA0142201512129016
B1107104954083N01152629EA0144601536109016
B1107144954025N01152666EA0146601560098016
B1107184953995N01152745EA0146901568097000
K110718296011
B1107224954008N01152833EA0147401568096008
B1107264954058N01152883EA0147301568091040
B1107304954120N01152887EA0147001568095020
B1107344954191N01152895EA0147201568097052
B1107384954258N01152920EA0147101568104048
K110738296011
B1107424954329N01152962EA0147501568108016
B1107464954400N01153016EA0147601568112032
B1107504954466N01153079EA0148601576113028
B1107544954529N01153141EA0149101584113024
B1107584954591N01153212EA0149101584125020
K110758286018
B1108024954658N01153279EA0147501568123024
B1108064954729N01153354EA0145901552132016
B1108104954800N01153437EA0144201536141016
B1108144954875N01153525EA0143001520149028
B1108184954958N01153612EA0141701504160024
K110818306017
B1108224955041N01153700EA0141601504157024
B1108264955125N01153787EA0140301504155024
B1108304955208N01153870EA0140501512152016
B1108344955287N01153958EA0141001512153020
B1108384955366N01154045EA0141701520147020
K110838324008
B1108424955441N01154129EA0143001536141016
B1108464955512N01154204EA0143301536134028
B1108504955583N01154283EA0143101536131024
B1108544955658N01154354EA0143101536134024
B1108584955733N01154433EA0142801528137024
K110858332002
B1109024955808N01154508EA0142501528138024
B1109064955887N01154583EA0142501528137024
B1109104955966N01154658EA0142101520139024
B1109144956050N01154729EA0141601520140024
B1109184956129N01154791EA0141401512138020
K110918224001
B1109224956212N01154850EA0140901512136024
B1109264956295N01154912EA0140301504139024
B1109304956383N01154970EA0138901496142024
B1109344956470N01155033EA0138201480143044
B1109384956554N01155095EA0137401472140032
K110938236003
B1109424956641N01155158EA0136301464144032
B1109464956729N01155225EA0136001464148040
B1109504956808N01155295EA0136401464143016
B1109544956887N01155366EA0137101472139024
B1109584956954N01155445EA0137801480126020
K110958276010
B1110024957020N01155520EA0137801480127016
B1110064957087N01155595EA0137501472128024
B1110104957158N01155670EA0137201472128024
B1110144957233N01155733EA0137101472132028
B1110184957320N01155750EA0137101472131024
K111018284004
B1110224957412N01155729EA0137101472126028
B1110264957491N01155679EA0137101472124028
B1110304957570N01155616EA0136601464125016
B1110344957650N01155545EA0135301456129024
B1110384957733N01155475EA0133701440135044
K111038284004
B1110424957825N01155400EA0132201424142032
B1110464957916N01155320EA0131701416145032
B1110504958004N01155237EA0130701400148040
B1110544958095N01155150EA0129801392151016
B1110584958187N01155062EA0128701384153024
K111058158010
B1111024958279N01154975EA0128501376152020
B1111064958375N01154891EA0127001368160016
B1111104958475N01154812EA0126301360158024
B1111144958570N01154733EA0125401352160024
B1111184958675N01154654EA0124201336164028
K111118180015
B1111224958775N01154575EA0123401328164024
B1111264958875N01154495EA0123401328159020
B1111304958975N01154425EA0122601320158024
B1111344959075N01154350EA0121901312155020
B1111384959179N01154287EA0120501304158020
K111138200022
B1111424959283N01154220EA0119001288159020
B1111464959391N01154150EA0117501272166020
B1111504959495N01154070EA0117001264168028
B1111544959600N01153991EA0116501256165024
B1111584959704N01153908EA0116001248162024
K111158192019
B1112024959800N01153820EA0115301240159024
B1112064959900N01153733EA0114801240166020
B1112105000004N01153650EA0116701248166024
B1112145000091N01153591EA0122501304134020
B1112185000150N01153508EA0126401344105020
K111218204030
B1112225000154N01153404EA0128601376089008
B1112265000112N01153329EA0129101384097016
B1112305000054N01153329EA0130301392100012
B1112345000029N01153400EA0130501400098008
B1112385000054N01153487EA0130701400106028
K111238204030
B1112425000112N01153533EA0132601416101020
B1112465000179N01153512EA0134001432094004
B1112505000225N01153429EA0134201440100016
B1112545000229N01153312EA0135201448100012
B1112585000187N01153229EA0136501456104008
K111258124016
B1113025000125N01153220EA0138001472098012
B1113065000087N01153279EA0138301488099012
B1113105000091N01153375EA0138801488105028
B1113145000133N01153450EA0139401496101020
B1113185000200N01153462EA0140001504105016
K111318124014
B1113225000254N01153379EA0141001504108024
B1113265000254N01153250EA0141801512111000
B1113305000195N01153179EA0142801528113008
B1113345000137N01153212EA0145001544109028
B1113385000125N01153304EA0145801560097016
K111338120013
B1113425000166N01153379EA0146101560104016
B1113465000237N01153383EA0147601576104024
B1113505000287N01153300EA0149501584104016
B1113545000287N01153187EA0150401600102016
B1113585000229N01153129EA0151301608104004
K111358118012
B1114025000170N01153166EA0152501616107008
B1114065000162N01153258EA0153401632101012
B1114105000208N01153333EA0154301640105008
B1114145000279N01153316EA0156101656105028
B1114185000316N01153212EA0157301664107020
K111418118012
B1114225000275N01153112EA0157901672109000
B1114265000208N01153120EA0158701680112016
B1114305000187N01153220EA0160301696105028
B1114345000225N01153308EA0161801712105016
B1114385000300N01153316EA0163401728103000
K111438128009
B1114425000358N01153233EA0165101744103016
B1114465000354N01153120EA0166601760102012
B1114505000295N01153058EA0167401768106008
B1114545000241N01153100EA0168301784100028
B1114585000245N01153195EA0168801784102020
K111458132011
B1115025000304N01153250EA0169601800102016
B1115065000375N01153195EA0171101808105024
B1115105000387N01153079EA0172301824105000
B1115145000337N01153000EA0173001832108008
B1115185000270N01153020EA0173201832114028
K111518122011
B1115225000250N01153125EA0174001840111016
