ACAM3K9
HFDTE270518
HFFXA050
HFPLTPILOT:Beck Stephan            
HFGTYGLIDERTYPE:ASW22ble    
HFGIDGLIDERID:MM          
HFDTM100GPSDATUM:
HFRFWFIRMWAREVERSION:F2.6
HFRHWHARDWAREVERSION:300 Series Version 2
HFFTYFRTYPE:CAMBRIDGE AERO INSTRUMENTS, 302+
HFGPS:GARMIN,LVS-25,12,18000
HFPRSPRESSALTSENSOR:INTERSEMA, MS5534-AP, 20000
I033638FXA3941ENL4247REX
LCAMSBVER:5FWVER:F26300
C190411084537190411000102
C0000000N00000000WTAKEOFF     
C4737983N00756467EHuetten Hotz
C4901283N01129083EBeilngries  
C4940683N00858433EMichelstadt 
C4737983N00756467EHuetten Hotz
C0000000N00000000WLANDING     
B1047244958986N01138137EA0044700489000996000000
B1047264958986N01138137EA0044700489000996000000
B1047284958986N01138137EA0044700489000996000000
B1047304958986N01138137EA0044800489000996000000
B1047324958986N01138137EA0044800490000996000000
B1047344958986N01138136EA0044800490000996000000
B1047364958986N01138136EA0044800490000996000000
B1047384958986N01138136EA0044800490000996000000
B1047404958986N01138136EA0044700490000996000000
B1047424958986N01138136EA0044900490000996000000
B1047444958986N01138137EA0044900490000996000000
B1047464958986N01138138EA0044900490000996000000
B1047484958988N01138141EA0044900490000996000000
B1047504958989N01138145EA0044800490000996000000
B1047524958991N01138152EA0044900490000996000000
B1047534958994N01138156EA0044800490000996000000
B1047574959002N01138181EA0044900491000996000000
B1048014959015N01138215EA0045000491000996000000
B1048054959032N01138256EA0045000492000996000000
B1048094959050N01138308EA0045000492000996000000
B1048134959073N01138368EA0045000492000996000000
B1048174959099N01138438EA0045300491000996000000
B1048214959129N01138515EA0045200490000996000000
B1048254959162N01138596EA0045600500000996000000
B1048294959193N01138674EA0046500504000996000000
B1048334959225N01138754EA0046900508000996000000
B1048374959258N01138836EA0047100512000996000000
B1048414959287N01138922EA0047600517000996000000
B1048454959314N01139010EA0048200526000996000000
B1048494959339N01139098EA0048900528000996000000
B1048534959362N01139189EA0048900527000996000000
B1048574959384N01139280EA0049100536000996000000
B1049014959402N01139367EA0050100543000996000000
B1049054959419N01139456EA0050300541000996000000
B1049094959436N01139550EA0050400545000996000000
B1049134959454N01139645EA0051300556000996000000
B1049174959474N01139737EA0051900557000996000000
B1049344959565N01140132EA0053800581000996000000
B1049394959587N01140245EA0054600588000996000000
B1049434959602N01140336EA0055000596000996000000
B1049474959612N01140427EA0056300609000996000000
B1049514959610N01140513EA0057200617000996000000
B1049554959600N01140595EA0057400618000996000000
B1049594959580N01140672EA0057600619000996000000
B1050034959550N01140742EA0057800623000996000000
B1050074959514N01140799EA0058300631000996000000
B1050114959475N01140842EA0059300643000996000000
B1050154959433N01140872EA0060600656000996000000
B1050194959389N01140895EA0061500659000996000000
B1050234959342N01140907EA0061500659000996000000
B1050274959294N01140901EA0061500659000996000000
B1050314959245N01140885EA0061300655000996000000
B1050354959196N01140863EA0061100655000996000000
B1050394959145N01140840EA0061100657000996000000
B1050434959095N01140811EA0061500666000996000000
B1050474959050N01140781EA0062400676000996000000
B1050514959006N01140749EA0063300682000996000000
B1050554958962N01140713EA0063700688000996000000
B1050594958919N01140672EA0064600695000996000000
B1051034958880N01140625EA0065000698000996000000
B1051074958841N01140576EA0064900696000996000000
B1051114958800N01140524EA0065000698000996000000
B1051154958760N01140474EA0065100700000996000000
B1051194958720N01140424EA0065300702000996000000
B1051234958679N01140372EA0065400704000996000000
B1051274958642N01140320EA0065800706000996000000
B1051314958603N01140270EA0066100709000996000000
B1051354958564N01140216EA0066600718000996000000
B1051394958526N01140164EA0067800730000996000000
B1051434958491N01140112EA0068600736000996000000
B1051474958455N01140056EA0068700735000996000000
B1051514958413N01140005EA0068900742000996000000
B1051554958369N01139966EA0069600749000996000000
B1051594958326N01139931EA0070300755000996000000
B1052034958276N01139901EA0071000764000996000000
B1052074958227N01139874EA0072400781000996000000
B1052114958176N01139852EA0073700792000996000000
B1052154958122N01139833EA0074200796000996000000
B1052194958070N01139814EA0074900808000996000000
B1052234958023N01139796EA0076000810000996000000
B1052274957975N01139779EA0075600803000996000000
B1052314957922N01139766EA0075500801000996000000
B1052534957641N01139753EA0077000826000996000000
B1052564957603N01139750EA0077600829000996000000
B1053014957539N01139744EA0077800829000996000000
B1053054957486N01139740EA0077700831000996000000
B1053094957434N01139740EA0078100838000996000000
B1053134957386N01139744EA0078600842000996000000
B1053174957337N01139750EA0078900841000996000000
B1053214957287N01139754EA0079000842000996000000
B1053254957236N01139757EA0079000844000996000000
B1053294957186N01139761EA0079100843000996000000
B1053334957135N01139763EA0079200844000996000000
B1053374957084N01139761EA0079300846000996000000
B1053414957036N01139757EA0079500848000996000000
B1053454956988N01139751EA0079500848000996000000
B1053494956940N01139742EA0079400845000996000000
B1053534956891N01139727EA0079000841000996000000
B1053574956841N01139701EA0079100844000996000000
B1054014956792N01139667EA0079300849000996000000
B1054054956746N01139621EA0079900857000996000000
B1054094956713N01139550EA0081200874000996000000
B1054134956702N01139465EA0083000890000996000000
B1054174956718N01139384EA0084000890000996000000
B1054214956758N01139311EA0083700888000996000000
B1054254956818N01139265EA0083700890000996000000
B1054294956883N01139256EA0084600901000996000000
B1054334956939N01139291EA0085600912000996000000
B1054374956976N01139359EA0086400921000996000000
B1054414956993N01139438EA0087400933000996000000
B1054454956988N01139519EA0088400941000996000000
B1054494956962N01139589EA0089000945000996000000
B1054534956923N01139640EA0089700954000996000000
B1054574956876N01139660EA0090300957000996000000
B1055014956826N01139646EA0090800965000996000000
B1055054956781N01139594EA0091900978000996000000
B1055094956757N01139514EA0093100989000996000000
B1055134956759N01139420EA0094201001000996000000
B1055174956787N01139341EA0094901008000996000000
B1055214956836N01139285EA0095101004000996000000
B1055254956901N01139260EA0094901005000996000000
B1055294956966N01139274EA0095801023000996000000
B1055334957014N01139326EA0097301035000996000000
B1055374957039N01139404EA0098401043000996000000
B1055414957032N01139491EA0098801045000996000000
B1055454956997N01139558EA0099501054000996000000
B1055494956947N01139585EA0100001061000996000000
B1055534956895N01139572EA0100901073000996000000
B1055574956852N01139528EA0102101079000996000000
B1056014956819N01139459EA0102301077000996000000
B1056054956809N01139372EA0102201077000884000000
B1056094956826N01139286EA0101901070000568000000
B1056134956867N01139216EA0101001055000408000000
B1056174956927N01139173EA0100001048000284000000
B1056214956992N01139170EA0099401046000212000000
B1056254957048N01139220EA0098901041000192000000
B1056294957078N01139303EA0098601048000152000000
B1056334957073N01139389EA0099101049000120000000
B1056374957035N01139455EA0099001046000104000000
B1056414956984N01139501EA0099001050000092000000
B1056454956928N01139504EA0099501054000088000000
B1056494956876N01139460EA0100001061000080000000
B1056534956861N01139368EA0100801063000080000000
B1056574956898N01139287EA0100601059000080000000
B1057014956963N01139261EA0100001051000080000000
B1057054957027N01139302EA0099701050000076000000
B1057094957052N01139394EA0099701053000080000000
B1057134957032N01139480EA0100301061000080000000
B1057174956987N01139523EA0101201067000080000000
B1057214956934N01139495EA0101201063000080000000
B1057254956908N01139404EA0101201067000080000000
B1057294956934N01139311EA0101401072000080000000
B1057334956995N01139269EA0101401068000080000000
B1057374957058N01139298EA0101201069000076000000
B1057414957101N01139373EA0101401074000076000000
B1057454957104N01139465EA0101801076000068000000
B1057494957070N01139533EA0101901078000064000000
B1057534957014N01139545EA0102301079000072000000
B1057574956962N01139498EA0102401083000076000000
B1058014956947N01139407EA0102901089000076000000
B1058054956974N01139320EA0103201090000080000000
B1058094957034N01139278EA0102901082000076000000
B1058134957103N01139296EA0102401080000076000000
B1058174957153N01139365EA0102601085000076000000
B1058214957168N01139459EA0102901084000076000000
B1058254957143N01139541EA0103001089000076000000
B1059104957151N01139471EA0103901101000028000000
B1059154957086N01139481EA0104601106000048000000
B1059194957045N01139420EA0104201099000060000000
B1059234957051N01139324EA0104001097000064000000
B1059274957108N01139268EA0103601093000068000000
B1059314957177N01139276EA0103501098000072000000
B1059354957234N01139325EA0104001104000068000000
B1059394957270N01139398EA0104401100000068000000
B1059434957275N01139488EA0104001101000072000000
B1059474957249N01139558EA0104801112000072000000
B1059514957200N01139571EA0105601117000076000000
B1059554957160N01139506EA0105701115000076000000
B1059594957168N01139404EA0105701119000076000000
B1100034957218N01139342EA0106201122000076000000
B1100074957282N01139348EA0106201121000068000000
B1100114957333N01139406EA0105901118000068000000
B1100154957355N01139490EA0105901123000068000000
B1100194957339N01139567EA0106501127000064000000
B1100234957298N01139615EA0106901129000080000000
B1100274957252N01139650EA0107301138000076000000
B1100314957201N01139660EA0108201144000080000000
B1100354957152N01139633EA0108401143000076000000
B1100394957116N01139566EA0108101136000076000000
B1100434957095N01139472EA0107701140000084000000
B1100474957101N01139380EA0109001154000080000000
B1100514957138N01139304EA0109401152000080000000
B1100554957197N01139259EA0108801142000076000000
B1100594957265N01139261EA0108201144000076000000
B1101034957321N01139311EA0108701150000076000000
B1101074957340N01139394EA0109401158000076000000
B1101114957326N01139467EA0110301168000076000000
B1101154957278N01139493EA0110201160000076000000
B1101194957225N01139451EA0110001164000080000000
B1101234957201N01139365EA0110501171000076000000
B1101274957212N01139274EA0111101173000068000000
B1101314957253N01139200EA0110901166000068000000
B1101354957317N01139168EA0110501169000068000000
B1101394957379N01139186EA0111101175000068000000
B1101434957425N01139247EA0111101174000068000000
B1101474957443N01139333EA0111401178000072000000
B1101514957421N01139407EA0111801181000068000000
B1101554957372N01139438EA0111901184000072000000
B1101594957318N01139408EA0112601191000072000000
B1102034957294N01139325EA0112901191000072000000
B1102074957314N01139231EA0112801191000076000000
B1102114957373N01139182EA0113001195000072000000
B1102154957435N01139202EA0113401200000076000000
B1102194957473N01139269EA0114101206000072000000
B1102234957472N01139352EA0114301207000072000000
B1102274957434N01139413EA0114301207000068000000
B1102314957379N01139429EA0114501212000076000000
B1102354957330N01139381EA0114901215000076000000
B1102394957314N01139289EA0115301220000072000000
B1102434957338N01139198EA0115401219000068000000
B1102474957389N01139133EA0115301220000072000000
B1102514957454N01139117EA0115801226000068000000
B1102554957509N01139150EA0116401234000064000000
B1102594957537N01139225EA0116801232000072000000
B1103034957521N01139306EA0116601233000072000000
B1103074957472N01139343EA0116601233000072000000
B1103114957413N01139355EA0116401228000072000000
B1103154957350N01139376EA0115801220000072000000
B1103194957286N01139416EA0115301219000084000000
B1103234957226N01139468EA0115401223000092000000
B1103274957170N01139528EA0115901229000096000000
B1103314957113N01139577EA0116601237000092000000
B1103354957056N01139625EA0116801236000088000000
B1103394956996N01139660EA0117201246000088000000
B1103434956936N01139644EA0118201255000084000000
B1103474956898N01139573EA0119001259000084000000
B1103514956908N01139476EA0119001257000088000000
B1103554956963N01139416EA0119101265000088000000
B1103594957023N01139449EA0120401278000088000000
B1104034957040N01139542EA0121101286000084000000
B1104074957009N01139614EA0122001296000084000000
B1104114956956N01139614EA0122701296000080000000
B1104154956918N01139540EA0122101288000088000000
B1104194956921N01139434EA0121701289000088000000
B1104234956973N01139367EA0122301299000084000000
B1104274957039N01139374EA0123001305000084000000
B1104314957090N01139441EA0124401321000084000000
B1104354957108N01139529EA0125101324000084000000
B1104394957087N01139614EA0125301326000080000000
B1104434957036N01139657EA0125701330000080000000
B1104474956980N01139623EA0126101335000088000000
B1104514956962N01139532EA0126501337000092000000
B1104554956987N01139437EA0126901344000096000000
B1104594957045N01139390EA0127501350000100000000
B1105034957112N01139416EA0128401364000104000000
B1105074957143N01139494EA0129801375000096000000
B1105114957125N01139579EA0129701368000088000000
B1105154957070N01139616EA0129601373000088000000
B1105194957014N01139581EA0130101379000084000000
B1105234956995N01139488EA0130601384000088000000
B1105274957018N01139393EA0131901402000088000000
B1105314957064N01139326EA0133101407000080000000
B1105354957132N01139306EA0133301411000080000000
B1105394957188N01139354EA0134301426000080000000
B1105434957197N01139443EA0135201427000080000000
B1105474957156N01139511EA0135001426000084000000
B1105514957095N01139511EA0135301433000084000000
B1105554957048N01139443EA0135701438000076000000
B1105594957041N01139341EA0136401452000056000000
B1106034957083N01139256EA0137301456000036000000
B1106074957152N01139228EA0137601461000024000000
B1106114957213N01139274EA0138401472000020000000
B1106154957231N01139365EA0139501484000016000000
B1106194957199N01139442EA0140001484000016000000
B1106234957136N01139455EA0140101487000012000000
B1106274957082N01139395EA0140601491000012000000
B1106314957061N01139295EA0141201503000012000000
B1106354957087N01139198EA0142501512000008000000
B1106394957152N01139155EA0142901515000008000000
B1106434957216N01139198EA0143201522000008000000
B1106474957234N01139289EA0144401535000012000000
B1106514957196N01139358EA0145301540000012000000
B1106554957138N01139351EA0145801548000012000000
B1106594957105N01139270EA0147001561000012000000
B1107034957123N01139177EA0147801566000008000000
B1107074957181N01139121EA0147901565000012000000
B1107114957249N01139134EA0147901569000008000000
B1107154957303N01139191EA0148801584000008000000
B1107194957312N01139280EA0149801588000008000000
B1107234957268N01139341EA0149901588000008000000
B1107274957207N01139330EA0150101595000008000000
B1107314957170N01139255EA0151001606000012000000
B1107354957177N01139160EA0152201613000012000000
B1107394957227N01139095EA0152501615000012000000
B1107434957295N01139103EA0152701618000008000000
B1107474957339N01139173EA0152901622000008000000
B1107514957342N01139270EA0153601630000008000000
B1107554957308N01139347EA0154101633000008000000
B1107594957251N01139376EA0154401638000008000000
B1108034957195N01139335EA0154901644000008000000
B1108074957170N01139242EA0155201648000012000000
B1108114957200N01139144EA0155801655000012000000
B1108154957261N01139103EA0157201667000008000000
B1108194957322N01139130EA0157401669000008000000
B1108234957356N01139212EA0157601676000008000000
B1108274957340N01139300EA0158401678000008000000
B1108314957288N01139338EA0158701679000008000000
B1108354957233N01139293EA0158401676000008000000
B1108394957209N01139194EA0158801684000008000000
B1108434957235N01139095EA0159501691000008000000
B1108474957294N01139042EA0160401702000008000000
B1108514957359N01139053EA0160901702000008000000
B1108554957403N01139125EA0160801701000008000000
B1108594957404N01139222EA0160901710000008000000
B1109034957364N01139285EA0161801715000008000000
B1109074957303N01139277EA0161901710000008000000
B1109114957259N01139199EA0161901712000008000000
B1109154957264N01139091EA0162301719000008000000
B1109194957313N01139022EA0163201728000008000000
B1109234957379N01139022EA0163401728000008000000
B1109274957429N01139090EA0163401727000008000000
B1109314957430N01139185EA0164201738000004000000
B1109354957395N01139255EA0165401743000004000000
B1109394957347N01139309EA0165401746000008000000
B1109434957290N01139335EA0165401748000004000000
B1109474957234N01139293EA0165701750000004000000
B1109514957207N01139196EA0166401758000008000000
B1109554957230N01139096EA0166901762000008000000
B1109594957291N01139059EA0167401767000008000000
B1110034957351N01139095EA0167801771000004000000
B1110074957378N01139177EA0168101775000004000000
B1110114957365N01139264EA0168901779000008000000
B1110154957326N01139330EA0169101782000008000000
B1110194957270N01139367EA0169401787000004000000
B1110234957209N01139358EA0170301796000004000000
B1110274957153N01139307EA0170901801000008000000
B1110314957118N01139222EA0171401808000012000000
B1110354957125N01139124EA0171901809000008000000
B1110394957171N01139051EA0171701807000008000000
B1110434957238N01139042EA0171601806000004000000
B1110474957292N01139101EA0171601810000004000000
B1110514957304N01139192EA0172401820000008000000
B1110554957275N01139272EA0173401828000008000000
B1110594957223N01139315EA0174201835000008000000
B1111034957162N01139296EA0174501835000012000000
B1111074957123N01139212EA0174601841000008000000
B1111114957132N01139109EA0175401846000008000000
B1111154957183N01139043EA0175501846000008000000
B1111194957249N01139047EA0175301844000008000000
B1111234957298N01139116EA0175401849000004000000
B1111274957303N01139211EA0176001858000016000000
B1111314957270N01139286EA0176801866000056000000
B1111354957214N01139319EA0177401868000048000000
B1111394957153N01139281EA0177601871000036000000
B1111434957122N01139191EA0178401883000024000000
B1111474957136N01139094EA0179301889000016000000
B1111514957188N01139033EA0179501888000012000000
B1111554957253N01139042EA0179501889000008000000
B1111594957298N01139107EA0179701893000008000000
B1112034957300N01139198EA0180101901000008000000
B1112074957260N01139259EA0181101908000008000000
B1112114957200N01139263EA0181501910000008000000
B1112154957145N01139211EA0181801914000008000000
B1112194957112N01139121EA0182301920000008000000
B1112234957113N01139010EA0182701927000012000000
B1112274957151N01138912EA0183401932000012000000
B1112314957218N01138879EA0184101933000012000000
B1112354957282N01138932EA0183801926000012000000
B1112394957326N01139030EA0182501913000012000000
B1112434957359N01139147EA0181901916000016000000
B1112474957369N01139265EA0183001932000016000000
B1112514957357N01139380EA0184401945000016000000
B1112554957333N01139488EA0185501951000016000000
B1112594957300N01139592EA0185501949000016000000
B1113034957257N01139689EA0185101943000016000000
B1113074957199N01139762EA0184701943000012000000
B1113114957130N01139813EA0184701940000012000000
B1113154957062N01139858EA0184601941000016000000
B1113194957001N01139915EA0184501939000016000000
B1113234956949N01139991EA0184101933000016000000
B1113274956909N01140087EA0183501928000016000000
B1113314956878N01140192EA0183201925000016000000
B1113354956853N01140301EA0182701919000016000000
B1113394956828N01140409EA0182001913000012000000
B1113434956807N01140518EA0181601905000012000000
B1113474956787N01140632EA0180101891000012000000
B1113514956761N01140749EA0179101882000016000000
B1113554956732N01140863EA0178801886000020000000
B1113594956706N01140973EA0179401890000020000000
B1114034956683N01141084EA0179401886000020000000
B1114074956661N01141198EA0178801877000020000000
B1114114956641N01141319EA0177901869000012000000
B1114154956635N01141443EA0177301866000016000000
B1114194956638N01141565EA0177301868000016000000
B1114234956644N01141681EA0177501868000016000000
B1114274956651N01141795EA0177001863000016000000
B1114314956663N01141907EA0176601855000016000000
B1114354956675N01142024EA0175501843000020000000
B1114394956693N01142142EA0174201829000016000000
B1114434956713N01142270EA0172701815000020000000
B1114474956739N01142401EA0172101810000020000000
B1114514956770N01142530EA0171601806000020000000
B1114554956801N01142658EA0171201800000020000000
B1114594956833N01142787EA0170601793000020000000
B1115034956867N01142914EA0170101790000020000000
B1115074956901N01143039EA0169901791000020000000
B1115114956934N01143160EA0170301795000020000000
B1115154956966N01143274EA0170401798000024000000
B1115194956997N01143386EA0170801798000020000000
B1115234957030N01143497EA0170601795000020000000
B1115274957064N01143607EA0170401794000020000000
B1115314957097N01143714EA0170301795000016000000
B1115354957132N01143818EA0170501794000020000000
B1115394957166N01143921EA0170101789000016000000
B1115434957199N01144023EA0169801788000020000000
B1115474957234N01144122EA0169501781000020000000
B1115514957268N01144223EA0168601770000020000000
B1115554957304N01144329EA0167801764000020000000
B1115594957342N01144434EA0167101759000016000000
B1116034957378N01144545EA0166501751000016000000
B1116074957418N01144655EA0166001754000024000000
B1116114957459N01144763EA0166401758000024000000
B1116154957500N01144862EA0166801759000020000000
B1116194957543N01144959EA0166501754000016000000
B1116234957586N01145054EA0166301754000016000000
B1116274957632N01145145EA0166001749000016000000
B1116314957678N01145240EA0165301740000016000000
B1116354957724N01145334EA0165001740000016000000
B1116394957773N01145418EA0165001740000012000000
B1116434957819N01145504EA0165001739000012000000
B1116474957860N01145594EA0164701737000012000000
B1116514957901N01145683EA0164601735000012000000
B1116554957945N01145769EA0164501734000016000000
B1116594957993N01145850EA0164401731000016000000
B1117034958052N01145908EA0164101729000012000000
B1117074958123N01145929EA0163601722000012000000
B1117114958201N01145912EA0162901721000016000000
B1117154958270N01145874EA0163301729000020000000
B1117194958334N01145829EA0164001733000020000000
B1117234958397N01145790EA0164401728000020000000
B1117274958465N01145748EA0163301723000016000000
B1117314958534N01145711EA0163701732000020000000
B1117354958599N01145674EA0165001748000020000000
B1117394958659N01145635EA0166101754000016000000
B1117434958716N01145583EA0166201750000012000000
B1117474958781N01145523EA0165701742000012000000
B1117514958854N01145471EA0165301748000012000000
B1117554958924N01145429EA0166701775000016000000
B1117594958989N01145432EA0169601792000012000000
B1118034959032N01145500EA0170101790000012000000
B1118074959028N01145595EA0170201795000012000000
B1118114958984N01145653EA0171301813000012000000
B1118154958925N01145634EA0173501831000012000000
B1118194958897N01145540EA0174301827000012000000
B1118234958906N01145423EA0173801838000012000000
B1118274958952N01145336EA0175401857000012000000
B1118314959020N01145322EA0177101874000012000000
B1118354959071N01145373EA0178501878000008000000
B1118394959084N01145461EA0178501875000008000000
B1118434959049N01145538EA0178401881000008000000
B1118474958993N01145564EA0180301911000012000000
B1118514958945N01145533EA0182901926000012000000
B1118554958912N01145444EA0182101904000024000000
B1118594958916N01145321EA0181401918000020000000
B1119034958956N01145230EA0184001939000016000000
B1119074959019N01145188EA0184901948000012000000
B1119114959080N01145222EA0185501952000012000000
B1119154959108N01145309EA0185701955000012000000
B1119194959089N01145393EA0186401968000012000000
B1119234959032N01145417EA0188001982000012000000
B1119274958975N01145378EA0189702001000012000000
B1119314958937N01145291EA0190401996000008000000
B1119354958929N01145170EA0190102002000012000000
B1119394958960N01145063EA0191102014000008000000
B1119434959024N01145009EA0191702016000012000000
B1119474959092N01145031EA0192202024000012000000
B1119514959124N01145111EA0193002028000012000000
B1119554959108N01145197EA0193302037000012000000
B1119594959064N01145253EA0194302050000008000000
B1120034959006N01145274EA0195402056000012000000
B1120074958942N01145243EA0195802059000012000000
B1120114958903N01145143EA0196102063000012000000
B1120154958913N01145026EA0196902074000012000000
B1120194958962N01144941EA0197802078000012000000
B1120234959030N01144906EA0198402078000012000000
B1120274959103N01144886EA0198402080000012000000
B1120314959175N01144846EA0198302083000012000000
B1120354959240N01144776EA0198602089000012000000
B1120394959293N01144684EA0199002082000016000000
B1120434959339N01144572EA0197802077000016000000
B1120474959375N01144456EA0198202087000012000000
B1120514959407N01144346EA0199302093000012000000
B1120554959436N01144235EA0199402090000016000000
B1120594959465N01144121EA0198902089000016000000
B1121034959497N01144001EA0199502099000016000000
B1121074959531N01143887EA0200602113000020000000
B1121114959560N01143779EA0202002127000016000000
B1121154959582N01143664EA0202602126000012000000
B1121194959605N01143544EA0202402126000008000000
B1121234959632N01143419EA0203002139000008000000
B1121274959658N01143300EA0203802141000008000000
B1121314959684N01143180EA0203302131000012000000
B1121354959712N01143061EA0202502122000012000000
B1121394959745N01142944EA0201602114000012000000
B1121434959778N01142823EA0200802105000012000000
B1121474959812N01142700EA0200002094000012000000
B1121514959842N01142570EA0199202091000012000000
B1121554959874N01142449EA0199002095000016000000
B1121594959909N01142341EA0199502098000012000000
B1122034959946N01142234EA0199502095000008000000
B1122074959991N01142129EA0199202094000012000000
B1122115000043N01142033EA0199402094000020000000
B1122155000099N01141947EA0199002088000016000000
B1122195000161N01141868EA0198302080000016000000
B1122235000229N01141796EA0198102084000016000000
B1122275000294N01141735EA0198502086000012000000
B1122315000358N01141669EA0198102070000008000000
B1122355000423N01141586EA0195902051000008000000
B1122395000485N01141495EA0195102056000008000000
B1122435000542N01141406EA0195802057000004000000
B1122475000588N01141306EA0195402051000008000000
B1122515000619N01141188EA0194902049000012000000
B1122555000652N01141071EA0195002050000012000000
B1122595000691N01140963EA0195002048000012000000
B1123035000746N01140875EA0194602038000012000000
B1123075000826N01140837EA0193602029000012000000
B1123115000908N01140868EA0192702022000012000000
B1123155000975N01140947EA0191902016000012000000
B1123195001031N01141049EA0191302009000020000000
B1123235001078N01141161EA0190602001000020000000
B1123275001113N01141282EA0189901993000020000000
B1123315001139N01141406EA0189301990000024000000
B1123355001157N01141534EA0189401991000028000000
B1123395001165N01141660EA0189501995000024000000
B1123435001165N01141782EA0189901996000020000000
B1123475001152N01141900EA0189601990000016000000
B1123515001129N01142016EA0188901982000016000000
B1123555001094N01142127EA0188601983000016000000
B1123595001060N01142236EA0188601983000016000000
B1124035001026N01142345EA0188601985000020000000
B1124075000991N01142446EA0189001989000016000000
B1124115000948N01142536EA0189301986000016000000
B1124155000899N01142618EA0188901987000016000000
B1124195000841N01142680EA0189301994000012000000
B1124235000782N01142726EA0189901998000008000000
B1124275000719N01142761EA0190001996000008000000
B1124315000655N01142801EA0190102000000012000000
B1124355000590N01142842EA0190802009000008000000
B1124395000528N01142881EA0191202011000012000000
B1124435000466N01142914EA0191702016000008000000
B1124475000399N01142936EA0192002018000008000000
B1124515000333N01142947EA0192802024000008000000
B1124555000268N01142973EA0193002032000004000000
B1124595000216N01143037EA0193902048000008000000
B1125035000181N01143115EA0195902068000004000000
B1125075000155N01143198EA0197502079000008000000
B1125115000121N01143281EA0198202078000008000000
B1125155000082N01143369EA0198502093000008000000
B1125195000043N01143445EA0200502112000008000000
B1125234959991N01143494EA0202502133000012000000
B1125274959927N01143495EA0203902142000012000000
B1125314959860N01143464EA0204502152000016000000
B1125354959791N01143421EA0206302182000020000000
B1125394959722N01143364EA0208402190000020000000
B1125434959654N01143272EA0208502188000024000000
B1125474959582N01143167EA0208902196000032000000
B1125514959510N01143065EA0209502202000036000000
B1125554959459N01142951EA0210102208000032000000
B1125594959440N01142822EA0210902220000028000000
B1126034959459N01142704EA0212302232000024000000
B1126074959510N01142611EA0212402223000016000000
B1126114959580N01142545EA0211802216000016000000
B1126154959657N01142488EA0210902209000012000000
B1126194959730N01142416EA0210202204000012000000
B1126234959794N01142325EA0209902202000012000000
B1126274959849N01142223EA0209702200000008000000
B1126314959900N01142112EA0209402197000012000000
B1126354959948N01141997EA0209302199000012000000
B1126394959989N01141880EA0209702204000016000000
B1126435000026N01141764EA0210002205000012000000
B1126475000064N01141647EA0209902203000012000000
B1126515000104N01141530EA0209702201000012000000
B1126555000150N01141418EA0209702204000012000000
B1126595000206N01141318EA0210002207000012000000
B1127035000271N01141236EA0210202210000012000000
B1127075000343N01141181EA0210702215000012000000
B1127115000418N01141154EA0210902216000008000000
B1127155000493N01141135EA0210602209000008000000
B1127195000570N01141111EA0210002202000008000000
B1127235000646N01141077EA0209502195000008000000
B1127275000718N01141015EA0209002194000008000000
B1127315000770N01140920EA0208802194000008000000
B1127355000793N01140801EA0208902191000008000000
B1127395000775N01140682EA0208402186000016000000
B1127435000720N01140602EA0207902184000016000000
B1127475000652N01140590EA0207502178000012000000
B1127515000594N01140643EA0206902173000008000000
B1127555000555N01140728EA0206602171000012000000
B1127595000529N01140824EA0206502170000008000000
B1128035000505N01140920EA0206602169000008000000
B1128075000473N01141014EA0206202162000004000000
B1128115000442N01141110EA0205702159000008000000
B1128155000415N01141211EA0205502160000008000000
B1128195000392N01141313EA0205402156000008000000
B1128235000367N01141417EA0204902145000016000000
B1128275000334N01141519EA0203702135000012000000
B1128315000302N01141622EA0203002131000012000000
B1128355000264N01141720EA0202502124000012000000
B1128395000217N01141805EA0202402128000012000000
B1128435000164N01141869EA0203202139000012000000
B1128475000111N01141925EA0204102144000012000000
B1128515000063N01141986EA0204302146000012000000
B1128555000018N01142054EA0204402145000012000000
B1128594959983N01142140EA0203802134000008000000
B1129034959968N01142246EA0203002130000008000000
B1129074959968N01142357EA0202902132000008000000
B1129114959978N01142468EA0202902133000012000000
B1129154959992N01142582EA0203102132000012000000
B1129195000017N01142697EA0203002132000012000000
B1129235000060N01142806EA0203102135000012000000
B1129275000112N01142913EA0204002144000012000000
B1129315000147N01143034EA0204802155000020000000
B1129355000151N01143169EA0205502161000028000000
B1129395000119N01143304EA0205802160000032000000
B1129435000046N01143406EA0205802162000048000000
B1129474959946N01143428EA0206402167000052000000
B1129514959843N01143412EA0208002199000052000000
B1129554959749N01143411EA0211102225000048000000
B1129594959665N01143430EA0212502232000036000000
B1130034959588N01143486EA0212602231000032000000
B1130074959527N01143575EA0212602233000028000000
B1130114959480N01143677EA0212902240000024000000
B1130154959435N01143772EA0213502244000020000000
B1130194959372N01143831EA0213802244000016000000
B1130234959301N01143833EA0213702244000016000000
B1130274959241N01143767EA0214102250000016000000
B1130314959215N01143661EA0214602256000012000000
B1130354959227N01143542EA0214802251000008000000
B1130394959271N01143434EA0214202245000008000000
B1130434959336N01143347EA0213602236000004000000
B1130474959407N01143265EA0212702231000008000000
B1130514959478N01143178EA0212402230000012000000
B1130554959539N01143081EA0212102228000016000000
B1130594959591N01142970EA0212402230000016000000
B1131034959641N01142862EA0212602234000016000000
B1131074959693N01142761EA0212802235000008000000
B1131114959744N01142657EA0212802233000008000000
B1131154959795N01142552EA0212602235000008000000
B1131194959844N01142445EA0212702233000008000000
B1131234959896N01142342EA0212602232000012000000
B1131274959952N01142249EA0212702236000008000000
B1131315000008N01142162EA0213202239000008000000
B1131355000064N01142077EA0213402236000008000000
B1131395000115N01141978EA0212602232000012000000
B1131435000163N01141876EA0212802235000008000000
B1131475000210N01141773EA0212902234000008000000
B1131515000252N01141672EA0213102238000008000000
B1131555000291N01141571EA0213302240000004000000
B1131595000340N01141480EA0213502241000004000000
B1132035000397N01141401EA0214002240000004000000
B1132075000447N01141309EA0213202236000020000000
B1132115000481N01141194EA0212902237000016000000
B1132155000489N01141074EA0213202241000012000000
B1132195000463N01140967EA0213402240000008000000
B1132235000412N01140890EA0213302236000008000000
B1132275000345N01140863EA0212802232000008000000
B1132315000281N01140897EA0212502230000008000000
B1132355000241N01140977EA0212202226000008000000
B1132395000223N01141080EA0211802222000008000000
B1132435000228N01141191EA0211702221000012000000
B1132475000262N01141289EA0211302218000012000000
B1132515000321N01141363EA0210902214000012000000
B1132555000397N01141405EA0210702215000008000000
B1132595000479N01141406EA0211002218000008000000
B1133035000559N01141376EA0211202220000004000000
B1133075000631N01141317EA0211402221000004000000
B1133115000691N01141232EA0211502221000008000000
B1133155000736N01141127EA0211302218000012000000
B1133195000758N01141006EA0211102217000024000000
B1133235000756N01140881EA0210602213000024000000
B1133275000726N01140769EA0210402211000024000000
B1133315000675N01140684EA0210402211000024000000
B1133355000609N01140637EA0210102207000024000000
B1133395000535N01140629EA0209802204000020000000
B1133435000470N01140665EA0209902207000016000000
B1133475000420N01140734EA0210102209000020000000
B1133515000385N01140821EA0210202208000024000000
B1133555000366N01140921EA0209902203000020000000
B1133595000363N01141032EA0209602200000016000000
B1134035000381N01141140EA0209502200000016000000
B1134075000419N01141237EA0209402201000012000000
B1134115000476N01141313EA0209502202000008000000
B1134155000549N01141350EA0209602201000004000000
B1134195000628N01141337EA0209202193000004000000
B1134235000701N01141275EA0208502189000008000000
B1134275000761N01141183EA0207902183000016000000
B1134315000819N01141087EA0207402176000016000000
B1134355000882N01140992EA0206602168000016000000
B1134395000934N01140881EA0206402169000016000000
B1134435000960N01140756EA0206402169000016000000
B1134475000965N01140632EA0206402166000016000000
B1134515000957N01140508EA0206202167000012000000
B1134555000943N01140391EA0206702171000012000000
B1134595000923N01140282EA0207202170000008000000
B1135035000875N01140200EA0206302165000004000000
B1135075000810N01140175EA0205902164000004000000
B1135115000752N01140213EA0205702161000016000000
B1135155000710N01140290EA0205302155000020000000
B1135195000684N01140386EA0205002154000024000000
B1135235000661N01140485EA0205002151000024000000
B1135275000640N01140589EA0204302146000020000000
B1135315000618N01140694EA0204202149000028000000
B1135355000596N01140798EA0204502147000028000000
B1135395000572N01140905EA0204002144000024000000
B1135435000548N01141011EA0204002145000024000000
B1135475000522N01141113EA0204202146000024000000
B1135515000498N01141215EA0204002142000020000000
B1135555000475N01141318EA0203602138000016000000
B1135595000454N01141421EA0203402141000012000000
B1136035000431N01141521EA0203602138000012000000
B1136075000405N01141618EA0203402136000012000000
B1136115000379N01141712EA0203502143000016000000
B1136155000351N01141803EA0204302150000024000000
B1136195000325N01141893EA0204802154000024000000
B1136235000298N01141976EA0205802163000020000000
B1136275000269N01142054EA0206702164000016000000
B1136315000258N01142145EA0206002164000012000000
B1136355000263N01142242EA0205802159000008000000
B1136395000256N01142345EA0205202155000008000000
B1136435000239N01142448EA0205202161000012000000
B1136475000217N01142541EA0206302173000012000000
B1136515000198N01142631EA0207002176000012000000
B1136555000187N01142725EA0206902176000012000000
B1136595000167N01142810EA0207602187000012000000
B1137035000128N01142869EA0208602198000012000000
B1137075000070N01142887EA0209302199000008000000
B1137115000013N01142834EA0209202198000008000000
B1137154959987N01142726EA0209402206000008000000
B1137195000002N01142615EA0210502212000008000000
B1137235000041N01142517EA0211102204000012000000
B1137275000070N01142405EA0210102203000016000000
B1137315000072N01142280EA0210002206000016000000
B1137355000059N01142160EA0210502213000016000000
B1137395000057N01142042EA0210802211000012000000
B1137435000086N01141929EA0210402204000008000000
B1137475000134N01141828EA0209802196000012000000
B1137515000186N01141726EA0208602184000016000000
B1137555000258N01141657EA0208102184000020000000
B1137595000332N01141672EA0208302185000020000000
B1138035000363N01141757EA0207802179000020000000
B1138075000337N01141850EA0207002169000024000000
B1138115000285N01141921EA0205902159000024000000
B1138155000223N01141982EA0205002152000020000000
B1138195000150N01142007EA0204602151000016000000
B1138235000080N01141968EA0204802153000016000000
B1138275000039N01141870EA0205202159000012000000
B1138315000043N01141756EA0205602157000008000000
B1138355000090N01141659EA0204602143000012000000
B1138395000163N01141597EA0203602132000012000000
B1138435000242N01141545EA0203002122000020000000
B1138475000308N01141458EA0201902119000020000000
B1138515000371N01141370EA0202202125000024000000
B1138555000444N01141324EA0202002118000020000000
B1138595000523N01141331EA0201102108000020000000
B1139035000587N01141391EA0200302101000020000000
B1139075000615N01141491EA0199402091000024000000
B1139115000607N01141597EA0198902085000028000000
B1139155000587N01141703EA0197902075000024000000
B1139195000563N01141809EA0196902064000024000000
B1139235000535N01141915EA0195902056000024000000
B1139275000507N01142024EA0195202050000020000000
B1139315000488N01142138EA0194802048000020000000
B1139355000470N01142249EA0194802050000016000000
B1139395000454N01142357EA0195002051000016000000
B1139435000437N01142462EA0195102058000012000000
B1139475000421N01142559EA0196602079000008000000
B1139515000399N01142640EA0198302088000004000000
B1139555000358N01142701EA0198502083000004000000
B1139595000299N01142727EA0198002085000008000000
B1140035000241N01142706EA0198802093000008000000
B1140075000195N01142641EA0199202094000004000000
B1140115000181N01142543EA0199002094000008000000
B1140155000200N01142441EA0199102093000004000000
B1140195000252N01142367EA0199102094000008000000
B1140235000321N01142346EA0199802102000008000000
B1140275000388N01142383EA0200902111000008000000
B1140315000441N01142448EA0201002111000008000000
B1140355000468N01142541EA0201102119000008000000
B1140395000458N01142628EA0202202131000004000000
B1140435000414N01142680EA0202502124000004000000
B1140475000354N01142682EA0202002124000008000000
B1140515000295N01142644EA0201902124000008000000
B1140555000255N01142565EA0202002128000008000000
B1140595000249N01142465EA0202602130000012000000
B1141035000290N01142376EA0202502125000008000000
B1141075000362N01142341EA0202102125000008000000
B1141115000431N01142384EA0202302131000008000000
B1141155000473N01142476EA0203202134000008000000
B1141195000505N01142574EA0203502146000008000000
B1141235000522N01142667EA0204702153000008000000
B1141275000537N01142761EA0204902155000012000000
B1141315000546N01142855EA0205002155000008000000
B1141355000538N01142947EA0205402155000008000000
B1141395000518N01143037EA0205502161000008000000
B1141435000497N01143129EA0206102176000004000000
B1141475000455N01143194EA0207602188000004000000
B1141515000395N01143206EA0208102186000004000000
B1141555000338N01143157EA0208402197000008000000
B1141595000295N01143081EA0210202217000012000000
B1142035000259N01143004EA0211502223000012000000
B1142075000229N01142921EA0211502218000008000000
B1142115000202N01142822EA0210402204000012000000
B1142155000185N01142701EA0208702189000020000000
B1142195000197N01142566EA0207502179000020000000
B1142235000246N01142446EA0207302190000024000000
B1142275000327N01142392EA0209602205000020000000
B1142315000412N01142393EA0209802202000016000000
B1142355000492N01142440EA0209802207000012000000
B1142395000554N01142519EA0210402211000016000000
B1142435000580N01142632EA0210402209000016000000
B1142475000568N01142748EA0210002206000016000000
B1142515000533N01142849EA0210502216000020000000
B1142555000473N01142900EA0211302222000016000000
B1142595000410N01142881EA0211802230000016000000
B1143035000364N01142791EA0213002237000016000000
B1143075000342N01142676EA0213202239000016000000
B1143115000355N01142556EA0213502241000016000000
B1143155000411N01142467EA0213902246000016000000
B1143195000492N01142445EA0214002245000016000000
B1143235000570N01142479EA0213902246000012000000
B1143275000633N01142558EA0213602237000012000000
B1143315000671N01142676EA0212802229000012000000
B1143355000687N01142805EA0212302227000020000000
B1143395000672N01142927EA0212002222000020000000
B1143435000627N01143024EA0211402213000020000000
B1143475000557N01143083EA0210002192000024000000
B1143515000472N01143098EA0208302183000028000000
B1143555000388N01143059EA0207502182000032000000
B1143595000319N01142981EA0209002207000036000000
B1144035000268N01142895EA0211602230000028000000
B1144075000225N01142816EA0213002235000020000000
B1144115000185N01142732EA0212902233000016000000
B1144155000150N01142640EA0213102233000012000000
B1144195000115N01142545EA0212602226000012000000
B1144235000065N01142458EA0211802215000012000000
B1144275000012N01142370EA0210902215000012000000
B1144314959976N01142266EA0211202218000012000000
B1144354959966N01142147EA0211202213000008000000
B1144394959991N01142030EA0210502207000008000000
B1144435000042N01141934EA0209902201000008000000
B1144475000107N01141860EA0209002192000008000000
B1144515000185N01141820EA0208202186000016000000
B1144555000265N01141808EA0208302193000016000000
B1144595000341N01141830EA0209202201000020000000
B1145035000407N01141885EA0209702206000024000000
B1145075000459N01141969EA0210302210000024000000
B1145115000494N01142076EA0210802217000024000000
B1145155000505N01142194EA0211502222000024000000
B1145195000493N01142311EA0211702222000024000000
B1145235000466N01142424EA0211102210000024000000
B1145275000429N01142541EA0209602198000024000000
B1145315000398N01142670EA0209502204000028000000
B1145355000373N01142803EA0209902210000028000000
B1145395000350N01142929EA0210802222000028000000
B1145435000324N01143044EA0211902230000024000000
B1145475000291N01143148EA0212602234000016000000
B1145515000256N01143245EA0212702230000020000000
B1145555000230N01143354EA0212102230000020000000
B1145595000215N01143469EA0213202244000024000000
B1146035000199N01143588EA0213402234000028000000
B1146075000172N01143718EA0212402231000028000000
B1146115000141N01143849EA0213002242000032000000
B1146155000096N01143971EA0214102254000032000000
B1146195000030N01144071EA0214902257000044000000
B1146234959947N01144138EA0215402266000044000000
B1146274959868N01144196EA0216202271000048000000
B1146314959782N01144210EA0217002279000048000000
B1146354959692N01144178EA0216302263000052000000
B1146394959597N01144126EA0215002256000052000000
B1146434959511N01144062EA0215502269000048000000
B1146474959437N01143982EA0216202270000040000000
B1146514959400N01143858EA0216302272000032000000
B1146554959409N01143720EA0216702280000028000000
B1146594959441N01143598EA0217502287000024000000
B1147034959491N01143495EA0218002287000020000000
B1147074959552N01143411EA0217702285000020000000
B1147114959622N01143343EA0217602280000020000000
B1147154959696N01143278EA0217202273000020000000
B1147194959757N01143186EA0216102266000024000000
B1147234959816N01143092EA0216002272000024000000
B1147274959872N01143005EA0216802278000020000000
B1147314959929N01142925EA0217002274000016000000
B1147355000004N01142886EA0216402267000012000000
B1147395000078N01142918EA0215702260000020000000
B1147435000116N01143020EA0214802246000016000000
B1147475000108N01143144EA0212602219000024000000
B1147515000082N01143274EA0210702209000028000000
B1147555000046N01143398EA0210402211000028000000
B1147595000004N01143503EA0211802237000032000000
B1148034959957N01143589EA0214502249000024000000
B1148074959911N01143685EA0213202231000024000000
B1148114959865N01143801EA0211602219000024000000
B1148154959817N01143922EA0211602229000028000000
B1148194959765N01144028EA0212602241000028000000
B1148234959708N01144117EA0213502243000028000000
B1148274959647N01144203EA0213202238000028000000
B1148314959579N01144286EA0213302244000036000000
B1148354959508N01144366EA0213802246000036000000
B1148394959437N01144456EA0213202234000036000000
B1148434959368N01144561EA0212202229000032000000
B1148474959305N01144675EA0212102228000032000000
B1148514959249N01144797EA0211802223000028000000
B1148554959202N01144932EA0211302217000032000000
B1148594959166N01145078EA0210102202000032000000
B1149034959129N01145231EA0208602185000032000000
B1149074959072N01145375EA0207002169000036000000
B1149114959004N01145516EA0205302150000044000000
B1149154958939N01145665EA0203602140000056000000
B1149194958886N01145826EA0203502143000060000000
B1149234958838N01145993EA0202502121000056000000
B1149274958787N01146168EA0200702104000056000000
B1149314958733N01146342EA0200702126000056000000
B1149354958678N01146506EA0202902142000060000000
B1149394958621N01146662EA0204702163000060000000
B1149434958565N01146808EA0206502175000056000000
B1149474958512N01146951EA0206702172000052000000
B1149514958462N01147098EA0206402168000048000000
B1149554958419N01147250EA0205802162000048000000
B1149594958382N01147410EA0205002153000048000000
B1150034958351N01147575EA0204402148000044000000
B1150074958331N01147744EA0203902142000044000000
B1150114958326N01147918EA0203302137000040000000
B1150154958325N01148088EA0203002137000040000000
B1150194958323N01148256EA0203002133000040000000
B1150234958321N01148421EA0202602130000036000000
B1150274958313N01148582EA0202402130000036000000
B1150314958306N01148740EA0202602132000040000000
B1150354958300N01148893EA0202602130000036000000
B1150394958295N01149044EA0202302122000036000000
B1150434958289N01149195EA0201602120000032000000
B1150474958282N01149336EA0201602118000040000000
B1150514958273N01149475EA0201202113000036000000
B1150554958260N01149613EA0200802107000040000000
B1150594958239N01149746EA0200202104000032000000
B1151034958210N01149872EA0199802097000036000000
B1151074958172N01149993EA0199702103000036000000
B1151114958137N01150103EA0202102139000040000000
B1151154958102N01150194EA0205302163000028000000
B1151194958071N01150280EA0206802174000020000000
B1151234958035N01150363EA0207102176000020000000
B1151274957998N01150444EA0207702201000020000000
B1151314957964N01150501EA0211002238000016000000
B1151354957933N01150549EA0214202250000008000000
B1151394957898N01150608EA0214102240000008000000
B1151434957858N01150688EA0212602229000008000000
B1151474957821N01150788EA0211902220000012000000
B1151514957786N01150902EA0210902212000016000000
B1151554957749N01151016EA0210302208000020000000
B1151594957711N01151128EA0210002204000020000000
B1152034957673N01151242EA0209302191000020000000
B1152074957636N01151363EA0208302190000024000000
B1152114957600N01151481EA0208302196000028000000
B1152154957568N01151600EA0209002194000028000000
B1152194957529N01151721EA0208202187000024000000
B1152234957490N01151843EA0208302199000024000000
B1152274957452N01151953EA0210302220000024000000
B1152314957413N01152056EA0211802227000024000000
B1152354957374N01152160EA0212102231000024000000
B1152394957334N01152263EA0212502230000020000000
B1152434957294N01152371EA0211702214000020000000
B1152474957251N01152489EA0210002200000020000000
B1152514957208N01152612EA0209002193000020000000
B1152554957164N01152737EA0208302186000028000000
B1152594957117N01152862EA0207702178000036000000
B1153034957071N01152987EA0207502183000040000000
B1153074957023N01153104EA0207702185000040000000
B1153114956974N01153217EA0207902183000044000000
B1153154956926N01153330EA0207602178000040000000
B1153194956876N01153443EA0206702168000032000000
B1153234956823N01153554EA0206002164000032000000
B1153274956772N01153660EA0205802165000032000000
B1153314956724N01153765EA0205902164000032000000
B1153354956676N01153871EA0205702161000028000000
B1153394956627N01153972EA0205302158000028000000
B1153434956577N01154077EA0205002153000028000000
B1153474956531N01154183EA0204602150000024000000
B1153514956485N01154289EA0204302146000024000000
B1153554956440N01154396EA0204002141000028000000
B1153594956393N01154501EA0203402136000028000000
B1154034956345N01154604EA0203002134000024000000
B1154074956294N01154707EA0202802132000024000000
B1154114956248N01154815EA0203002136000024000000
B1154154956203N01154920EA0203402138000024000000
B1154194956159N01155024EA0203102131000024000000
B1154234956113N01155130EA0202502127000024000000
B1154274956064N01155231EA0202802140000024000000
B1154314956016N01155318EA0204602163000024000000
B1154354955970N01155396EA0206002165000016000000
B1154394955923N01155479EA0205802155000016000000
B1154434955877N01155574EA0204402144000016000000
B1154474955827N01155671EA0203802139000016000000
B1154514955782N01155773EA0203202128000020000000
B1154554955734N01155877EA0202102116000020000000
B1154594955684N01155981EA0201202112000020000000
B1155034955634N01156082EA0201002113000020000000
B1155074955585N01156178EA0200902111000020000000
B1155114955537N01156273EA0201002111000020000000
B1155154955493N01156368EA0200702107000016000000
B1155194955449N01156467EA0200602109000016000000
B1155234955409N01156566EA0201002116000016000000
B1155274955371N01156661EA0201702124000016000000
B1155314955335N01156757EA0202502129000016000000
B1155354955298N01156849EA0203402146000012000000
B1155394955259N01156928EA0204802150000012000000
B1155434955220N01157009EA0204202142000012000000
B1155474955177N01157090EA0203802141000012000000
B1155514955136N01157168EA0203602129000012000000
B1155554955090N01157253EA0201802108000016000000
B1155594955041N01157352EA0199502082000020000000
B1156034954985N01157459EA0197402068000020000000
B1156074954928N01157569EA0196502062000024000000
B1156114954869N01157676EA0196102064000024000000
B1156154954809N01157780EA0196702070000028000000
B1156194954753N01157886EA0196902065000028000000
B1156234954698N01157994EA0196502066000028000000
B1156274954640N01158101EA0197102076000028000000
B1156314954586N01158204EA0197702081000032000000
B1156354954531N01158305EA0197902077000028000000
B1156394954475N01158404EA0197402075000028000000
B1156434954418N01158504EA0197202072000028000000
B1156474954358N01158603EA0196902070000028000000
B1156514954297N01158702EA0196902071000028000000
B1156554954237N01158800EA0197002071000028000000
B1156594954178N01158898EA0196902069000028000000
B1157034954118N01158993EA0196702066000024000000
B1157074954059N01159086EA0196302060000024000000
B1157114954002N01159177EA0195802060000024000000
B1157154953947N01159270EA0195802055000028000000
B1157194953892N01159363EA0194802045000024000000
B1157234953836N01159456EA0194102041000024000000
B1157274953780N01159548EA0193902039000024000000
B1157314953725N01159638EA0193702037000024000000
B1157354953671N01159725EA0193402035000024000000
B1157394953617N01159813EA0193102027000024000000
B1157434953563N01159903EA0192502023000024000000
B1157474953508N01159991EA0192202016000024000000
B1157514953452N01200082EA0190902002000024000000
B1157554953395N01200178EA0189901996000024000000
B1157594953339N01200276EA0189801996000024000000
B1158034953283N01200372EA0189801996000024000000
B1158074953230N01200468EA0189501989000024000000
B1158114953177N01200566EA0188701981000024000000
B1158154953121N01200661EA0187901974000028000000
B1158194953062N01200749EA0187301967000028000000
B1158234953002N01200837EA0186401960000028000000
B1158274952944N01200926EA0185901957000024000000
B1158314952884N01201012EA0185501951000024000000
B1158354952826N01201100EA0185001944000020000000
B1158394952764N01201186EA0184201936000020000000
B1158434952701N01201266EA0183601931000020000000
B1158474952636N01201346EA0183301931000020000000
B1158514952572N01201419EA0183701939000020000000
B1158554952511N01201491EA0184901956000024000000
B1158594952454N01201563EA0186601974000020000000
B1159034952402N01201629EA0188301991000020000000
B1159074952354N01201692EA0190102010000016000000
B1159114952311N01201755EA0191402018000012000000
B1159154952273N01201829EA0191902021000012000000
B1159194952237N01201910EA0191902023000008000000
B1159234952200N01201996EA0193002040000008000000
B1159274952166N01202072EA0195102056000012000000
B1159314952138N01202154EA0195202048000012000000
B1159354952109N01202247EA0193402024000012000000
B1159394952078N01202352EA0191402007000012000000
B1159434952047N01202465EA0190101994000016000000
B1159474952012N01202582EA0188901983000024000000
B1159514951978N01202704EA0187601971000024000000
B1159554951942N01202829EA0186401961000024000000
B1159594951906N01202954EA0185701954000028000000
B1200034951870N01203079EA0185301950000028000000
B1200074951832N01203201EA0184601942000028000000
B1200114951793N01203322EA0183901935000028000000
B1200154951754N01203441EA0183201930000028000000
B1200194951713N01203558EA0183301934000024000000
B1200234951674N01203678EA0183901947000024000000
B1200274951639N01203788EA0185801969000028000000
B1200314951604N01203889EA0187201970000020000000
B1200354951565N01203996EA0186301955000020000000
B1200394951523N01204111EA0184701941000020000000
B1200434951480N01204232EA0183501931000024000000
B1200474951441N01204358EA0182401920000024000000
B1200514951402N01204484EA0181501915000020000000
B1200554951362N01204610EA0181201906000028000000
B1200594951319N01204737EA0180301899000028000000
B1201034951277N01204865EA0179101890000028000000
B1201074951234N01204995EA0178701886000032000000
B1201114951191N01205122EA0178601884000032000000
B1201154951151N01205250EA0178301881000032000000
B1201194951111N01205380EA0178001877000032000000
B1201234951072N01205511EA0177701875000032000000
B1201274951033N01205644EA0177801880000036000000
B1201314950994N01205775EA0178301886000032000000
B1201354950956N01205906EA0179001895000032000000
B1201394950917N01206031EA0179501897000028000000
B1201434950877N01206154EA0179601898000032000000
B1201474950835N01206275EA0179501893000032000000
B1201514950790N01206399EA0179001889000028000000
B1201554950744N01206520EA0178601884000032000000
B1201594950697N01206639EA0178201880000032000000
B1202034950649N01206759EA0177301870000028000000
B1202074950600N01206881EA0176701864000028000000
B1202114950551N01207005EA0176501861000032000000
B1202154950495N01207123EA0176401865000036000000
B1202194950436N01207231EA0176901869000032000000
B1202234950380N01207339EA0177101871000032000000
B1202274950323N01207445EA0177101868000028000000
B1202314950265N01207553EA0176601861000028000000
B1202354950205N01207665EA0176001858000028000000
B1202394950145N01207778EA0175901860000028000000
B1202434950086N01207893EA0176101859000032000000
B1202474950028N01208007EA0176101863000032000000
B1202514949969N01208120EA0176301860000032000000
B1202554949910N01208234EA0176001858000032000000
B1202594949849N01208344EA0175901857000028000000
B1203034949786N01208452EA0175501848000032000000
B1203074949726N01208562EA0174701844000036000000
B1203114949668N01208670EA0174401841000032000000
B1203154949609N01208779EA0173801830000032000000
B1203194949553N01208896EA0172601819000032000000
B1203234949498N01209012EA0171801811000032000000
B1203274949447N01209134EA0170901800000032000000
B1203314949399N01209256EA0169801792000032000000
B1203354949352N01209377EA0168901779000036000000
B1203394949304N01209498EA0167601773000040000000
B1203434949256N01209614EA0167801778000040000000
B1203474949208N01209723EA0168501787000040000000
B1203514949162N01209826EA0169401797000040000000
B1203554949121N01209927EA0169801793000036000000
B1203594949079N01210036EA0169101783000032000000
B1204034949035N01210148EA0168501779000032000000
B1204074948992N01210268EA0167901774000036000000
B1204114948949N01210389EA0168001781000040000000
B1204154948907N01210509EA0169201801000044000000
B1204194948872N01210617EA0171601822000036000000
B1204234948838N01210720EA0172601816000028000000
B1204274948803N01210832EA0170601785000024000000
B1204314948762N01210958EA0167401760000028000000
B1204354948718N01211091EA0165401746000028000000
B1204394948673N01211227EA0164701739000028000000
B1204434948628N01211366EA0164001733000032000000
B1204474948581N01211509EA0163901737000036000000
B1204514948541N01211652EA0164901756000036000000
B1204554948502N01211781EA0167101775000036000000
B1204594948464N01211900EA0168001773000028000000
B1205034948425N01212024EA0166501749000032000000
B1205074948383N01212158EA0164101728000032000000
B1205114948337N01212296EA0162701720000032000000
B1205154948286N01212431EA0162001711000032000000
B1205194948235N01212567EA0161301707000036000000
B1205234948188N01212700EA0161501713000032000000
B1205274948146N01212833EA0161501705000032000000
B1205314948104N01212969EA0160201692000032000000
B1205354948060N01213107EA0159201685000032000000
B1205394948016N01213239EA0159001686000032000000
B1205434947973N01213367EA0159101685000032000000
B1205474947932N01213493EA0158801677000032000000
B1205514947892N01213622EA0157501663000036000000
B1205554947853N01213752EA0156301651000036000000
B1205594947815N01213882EA0156001652000032000000
B1206034947779N01214006EA0156201656000032000000
B1206074947745N01214129EA0156701657000028000000
B1206114947709N01214248EA0156401653000028000000
B1206154947675N01214369EA0156201654000028000000
B1206194947642N01214490EA0156601656000024000000
B1206234947607N01214606EA0157001667000024000000
B1206274947574N01214715EA0158701691000024000000
B1206314947545N01214807EA0161101710000020000000
B1206354947518N01214896EA0162201709000016000000
B1206394947490N01214993EA0161101694000020000000
B1206434947459N01215098EA0159801687000024000000
B1206474947429N01215209EA0159901692000024000000
B1206514947398N01215316EA0160401695000020000000
B1206554947367N01215423EA0160301693000020000000
B1206594947333N01215531EA0159601681000016000000
B1207034947293N01215637EA0158701679000020000000
B1207074947249N01215728EA0159401691000024000000
B1207114947203N01215803EA0160601699000020000000
B1207154947159N01215864EA0161901711000016000000
B1207194947126N01215933EA0162601719000008000000
B1207234947111N01216018EA0163301722000008000000
B1207274947115N01216111EA0163501728000012000000
B1207314947132N01216201EA0164101734000012000000
B1207354947148N01216288EA0164401732000012000000
B1207394947167N01216375EA0163901726000012000000
B1207434947189N01216471EA0161901698000012000000
B1207474947211N01216583EA0159401678000012000000
B1207514947233N01216704EA0157401658000016000000
B1207554947255N01216829EA0156401646000020000000
B1207594947277N01216955EA0155401641000020000000
B1208034947297N01217081EA0154701627000020000000
B1208074947314N01217210EA0153401618000020000000
B1208114947329N01217337EA0152701610000024000000
B1208154947347N01217468EA0150901588000024000000
B1208194947366N01217610EA0149101573000028000000
B1208234947384N01217753EA0148101563000028000000
B1208274947401N01217897EA0147101555000028000000
B1208314947415N01218042EA0147001557000028000000
B1208354947431N01218186EA0146801548000028000000
B1208394947441N01218332EA0145501535000024000000
B1208434947450N01218482EA0144501525000032000000
B1208474947458N01218631EA0143801523000032000000
B1208514947466N01218776EA0143901524000032000000
B1208554947472N01218915EA0144101526000032000000
B1208594947477N01219052EA0144001521000028000000
B1209034947483N01219187EA0143601516000028000000
B1209074947484N01219321EA0142901510000024000000
B1209114947481N01219453EA0142601509000024000000
B1209154947476N01219583EA0142401500000020000000
B1209194947466N01219715EA0140901480000024000000
B1209234947450N01219847EA0138901467000024000000
B1209274947432N01219973EA0138601472000028000000
B1209314947414N01220089EA0139501480000024000000
B1209354947398N01220202EA0139601477000024000000
B1209394947379N01220313EA0139601483000024000000
B1209434947351N01220414EA0140101479000020000000
B1209474947320N01220521EA0139101470000020000000
B1209514947286N01220630EA0139001477000024000000
B1209554947255N01220735EA0140201491000020000000
B1209594947229N01220838EA0141601503000020000000
B1210034947202N01220939EA0142601514000016000000
B1210074947168N01221030EA0144001533000016000000
B1210114947116N01221082EA0145601549000012000000
B1210154947061N01221064EA0147701570000016000000
B1210194947033N01220980EA0149501588000012000000
B1210234947067N01220886EA0150701594000012000000
B1210274947138N01220874EA0151201603000012000000
B1210314947182N01220946EA0151801606000008000000
B1210354947174N01221039EA0152101614000012000000
B1210394947128N01221099EA0153301626000008000000
B1210434947067N01221094EA0154701646000004000000
B1210474947028N01221010EA0156601661000008000000
B1210514947054N01220904EA0158401681000008000000
B1210554947122N01220872EA0160001693000012000000
B1210594947180N01220925EA0161201708000012000000
B1211034947184N01221016EA0162301717000008000000
B1211074947141N01221081EA0163501732000008000000
B1211114947076N01221085EA0164801753000012000000
B1211154947025N01221010EA0167001778000012000000
B1211194947044N01220902EA0169401797000012000000
B1211234947113N01220865EA0171101813000008000000
B1211274947161N01220926EA0173001832000008000000
B1211314947148N01221012EA0174601846000012000000
B1211354947089N01221041EA0176501867000012000000
B1211394947029N01220989EA0178501889000012000000
B1211434947030N01220876EA0180401906000012000000
B1211474947090N01220808EA0181701924000008000000
B1211514947151N01220843EA0183401941000008000000
B1211554947147N01220928EA0185201960000008000000
B1211594947089N01220952EA0187101984000008000000
B1212034947044N01220881EA0189502003000008000000
B1212074947054N01220769EA0191002014000012000000
B1212114947119N01220709EA0191502017000012000000
B1212154947186N01220742EA0192702042000016000000
B1212194947200N01220824EA0195402063000012000000
B1212234947159N01220881EA0196502074000012000000
B1212274947099N01220856EA0198002099000008000000
B1212314947086N01220751EA0200202110000008000000
B1212354947143N01220673EA0200802117000008000000
B1212394947211N01220700EA0202002137000012000000
B1212434947230N01220783EA0204502158000012000000
B1212474947199N01220855EA0205602159000012000000
B1212514947132N01220857EA0206002179000012000000
B1212554947096N01220766EA0208702202000012000000
B1212594947124N01220659EA0210302214000012000000
B1213034947191N01220623EA0211402227000012000000
B1213074947245N01220681EA0212502238000008000000
B1213114947245N01220768EA0214302251000008000000
B1213154947197N01220826EA0214902265000008000000
B1213194947138N01220792EA0216602290000012000000
B1213234947129N01220687EA0218802300000012000000
B1213274947177N01220597EA0219602315000012000000
B1213314947246N01220591EA0221202328000012000000
B1213354947284N01220664EA0222302337000012000000
B1213394947259N01220750EA0223002345000012000000
B1213434947199N01220774EA0224902370000012000000
B1213474947148N01220711EA0227302394000012000000
B1213514947148N01220599EA0229002404000008000000
B1213554947210N01220522EA0229402410000012000000
B1213594947281N01220552EA0230302424000012000000
B1214034947299N01220643EA0231902439000012000000
B1214074947255N01220708EA0233402455000012000000
B1214114947195N01220677EA0235402477000012000000
B1214154947180N01220569EA0237702500000012000000
B1214194947216N01220470EA0238802506000012000000
B1214234947288N01220443EA0239402512000012000000
B1214274947343N01220504EA0240002518000016000000
B1214314947336N01220597EA0240802527000012000000
B1214354947277N01220639EA0241602540000012000000
B1214394947219N01220592EA0243402560000008000000
B1214434947213N01220479EA0245202576000012000000
B1214474947271N01220387EA0245902575000012000000
B1214514947359N01220387EA0245402569000020000000
B1214554947415N01220487EA0245502573000020000000
B1214594947407N01220622EA0245002556000028000000
B1215034947355N01220757EA0243102543000032000000
B1215074947290N01220893EA0243002548000040000000
B1215114947229N01221033EA0243102544000040000000
B1215154947172N01221185EA0242002525000040000000
B1215194947116N01221346EA0240502515000040000000
B1215234947056N01221506EA0238902496000044000000
B1215274946994N01221669EA0237402485000044000000
B1215314946926N01221825EA0236702483000044000000
B1215354946857N01221972EA0236802488000048000000
B1215394946784N01222111EA0237602494000048000000
B1215434946716N01222251EA0238202502000048000000
B1215474946656N01222395EA0238702505000044000000
B1215514946601N01222545EA0238102487000044000000
B1215554946548N01222702EA0236402470000040000000
B1215594946498N01222870EA0234502450000040000000
B1216034946452N01223044EA0232502432000040000000
B1216074946405N01223221EA0230902417000040000000
B1216114946354N01223402EA0229302402000044000000
B1216154946300N01223585EA0227702382000048000000
B1216194946241N01223767EA0225902367000056000000
B1216234946175N01223944EA0225302365000056000000
B1216274946101N01224115EA0225102365000060000000
B1216314946027N01224286EA0225502366000064000000
B1216354945967N01224466EA0224702354000068000000
B1216394945924N01224661EA0223902350000064000000
B1216434945886N01224856EA0224002356000064000000
B1216474945843N01225040EA0224902366000060000000
B1216514945776N01225197EA0225002361000052000000
B1216554945690N01225324EA0224002350000048000000
B1216594945595N01225439EA0222802341000052000000
B1217034945501N01225549EA0222502337000048000000
B1217074945410N01225664EA0221602326000044000000
B1217114945318N01225777EA0221002327000052000000
B1217154945227N01225887EA0220902323000048000000
B1217194945141N01226003EA0220402321000052000000
B1217234945067N01226126EA0221602343000048000000
B1217274945002N01226254EA0222902343000044000000
B1217314944940N01226388EA0222002331000040000000
B1217354944879N01226531EA0221202324000040000000
B1217394944818N01226675EA0220702323000040000000
B1217434944760N01226819EA0220802326000040000000
B1217474944702N01226957EA0220902321000036000000
B1217514944642N01227095EA0219702306000032000000
B1217554944580N01227234EA0218902305000032000000
B1217594944521N01227373EA0218802302000032000000
B1218034944463N01227512EA0218502301000032000000
B1218074944404N01227649EA0218302295000032000000
B1218114944347N01227788EA0217502291000032000000
B1218154944296N01227932EA0217302287000032000000
B1218194944244N01228075EA0216602280000032000000
B1218234944187N01228212EA0216502279000040000000
B1218274944129N01228343EA0216402280000040000000
B1218314944067N01228469EA0216602282000048000000
B1218354944004N01228589EA0216702278000044000000
B1218394943935N01228704EA0215802270000040000000
B1218434943863N01228815EA0215402267000040000000
B1218474943788N01228919EA0214702256000036000000
B1218514943706N01229014EA0213902252000036000000
B1218554943618N01229092EA0213602249000036000000
B1218594943524N01229159EA0212602233000032000000
B1219034943427N01229223EA0211002220000044000000
B1219074943326N01229288EA0210002210000044000000
B1219114943228N01229352EA0209302204000040000000
B1219154943130N01229413EA0209002201000036000000
B1219194943033N01229473EA0208702196000036000000
B1219234942936N01229531EA0208302190000036000000
B1219274942840N01229584EA0207702184000036000000
B1219314942744N01229634EA0207102177000032000000
B1219354942648N01229678EA0206802177000032000000
B1219394942554N01229713EA0207302186000028000000
B1219434942466N01229746EA0208502199000028000000
B1219474942380N01229775EA0209202200000028000000
B1219514942293N01229807EA0209002199000032000000
B1219554942208N01229839EA0210202219000028000000
B1219594942132N01229864EA0212802247000032000000
B1220034942059N01229885EA0214102250000028000000
B1220074941980N01229908EA0213702241000024000000
B1220114941899N01229933EA0213402248000024000000
B1220154941828N01229955EA0214402258000020000000
B1220194941760N01229985EA0214802257000016000000
B1220234941692N01230021EA0214702253000016000000
B1220274941622N01230061EA0214102247000016000000
B1220314941549N01230106EA0213602240000016000000
B1220354941474N01230154EA0212902231000020000000
B1220394941396N01230207EA0211802220000020000000
B1220434941317N01230260EA0211102215000028000000
B1220474941237N01230308EA0210602209000028000000
B1220514941158N01230353EA0209902201000028000000
B1220554941079N01230389EA0209102196000028000000
B1220594941001N01230418EA0209002198000024000000
B1221034940923N01230436EA0208902190000024000000
B1221074940845N01230461EA0208202185000024000000
B1221114940771N01230500EA0208302189000024000000
B1221154940704N01230541EA0209002200000024000000
B1221194940643N01230574EA0209502200000028000000
B1221234940581N01230601EA0209202191000028000000
B1221274940520N01230641EA0207902179000020000000
B1221314940459N01230700EA0207102180000020000000
B1221354940404N01230760EA0208402203000020000000
B1221394940359N01230814EA0210402217000024000000
B1221434940320N01230877EA0210902211000020000000
B1221474940275N01230949EA0209902197000016000000
B1221514940226N01231029EA0208602188000016000000
B1221554940177N01231109EA0208302189000016000000
B1221594940130N01231191EA0208202180000020000000
B1222034940078N01231274EA0207302177000024000000
B1222074940026N01231359EA0207302178000032000000
B1222114939976N01231445EA0208002192000032000000
B1222154939933N01231528EA0209202201000028000000
B1222194939892N01231614EA0209402199000024000000
B1222234939852N01231707EA0209402205000024000000
B1222274939815N01231794EA0211402236000020000000
B1222314939784N01231874EA0213602244000016000000
B1222354939757N01231962EA0213202231000016000000
B1222394939741N01232074EA0211102205000020000000
B1222434939732N01232203EA0208902186000024000000
B1222474939723N01232342EA0207502178000024000000
B1222514939718N01232482EA0207002170000028000000
B1222554939714N01232630EA0205302153000028000000
B1222594939712N01232785EA0204202145000028000000
B1223034939711N01232941EA0203702140000032000000
B1223074939711N01233097EA0203302138000032000000
B1223114939709N01233249EA0203502142000028000000
B1223154939706N01233397EA0203602139000028000000
B1223194939701N01233542EA0203002133000028000000
B1223234939697N01233688EA0202302122000028000000
B1223274939690N01233838EA0201002110000032000000
B1223314939684N01233991EA0200002104000028000000
B1223354939679N01234143EA0199502100000032000000
B1223394939672N01234296EA0199302096000032000000
B1223434939666N01234445EA0198902094000032000000
B1223474939660N01234591EA0199002097000036000000
B1223514939654N01234728EA0199502101000032000000
B1223554939645N01234858EA0200002107000032000000
B1223594939625N01234983EA0200402108000028000000
B1224034939597N01235102EA0200602107000028000000
B1224074939555N01235211EA0201502123000028000000
B1224114939511N01235306EA0203902150000020000000
B1224154939481N01235404EA0206102168000020000000
B1224194939498N01235503EA0207302186000016000000
B1224234939556N01235546EA0209002199000012000000
B1224274939619N01235502EA0209602199000008000000
B1224314939642N01235397EA0209602200000008000000
B1224354939614N01235297EA0209902207000008000000
B1224394939560N01235238EA0211402222000012000000
B1224434939497N01235237EA0212402231000012000000
B1224474939452N01235303EA0213002238000008000000
B1224514939462N01235397EA0213902250000008000000
B1224554939523N01235441EA0214502247000008000000
B1224594939586N01235389EA0214302252000008000000
B1225034939607N01235285EA0215202265000012000000
B1225074939579N01235191EA0216302271000012000000
B1225114939517N01235161EA0217102283000008000000
B1225154939468N01235213EA0218102291000008000000
B1225194939460N01235312EA0218802297000012000000
B1225234939504N01235390EA0219002295000012000000
B1225274939577N01235385EA0218602296000012000000
B1225314939620N01235294EA0219102301000012000000
B1225354939598N01235190EA0219302302000012000000
B1225394939533N01235160EA0219802315000012000000
B1225434939478N01235215EA0220902321000012000000
B1225474939443N01235311EA0220802313000012000000
B1225514939412N01235424EA0219902302000016000000
B1225554939384N01235551EA0217902281000020000000
B1225594939352N01235683EA0216802276000024000000
B1226034939321N01235815EA0216402266000028000000
B1226074939290N01235953EA0214902254000028000000
B1226114939257N01236096EA0214102244000028000000
B1226154939225N01236242EA0213002233000024000000
B1226194939194N01236387EA0212302228000024000000
B1226234939161N01236534EA0211702221000028000000
B1226274939133N01236681EA0211202218000028000000
B1226314939107N01236825EA0211302221000028000000
B1226354939081N01236961EA0211402220000036000000
B1226394939055N01237093EA0211102215000036000000
B1226434939026N01237223EA0210702209000032000000
B1226474938999N01237352EA0210102203000036000000
B1226514938973N01237482EA0209302192000032000000
B1226554938952N01237617EA0208302184000036000000
B1226594938935N01237752EA0207602177000036000000
B1227034938921N01237886EA0207002171000032000000
B1227074938909N01238023EA0206202163000032000000
B1227114938897N01238158EA0205602157000032000000
B1227154938884N01238293EA0205102151000032000000
B1227194938869N01238424EA0204702149000036000000
B1227234938856N01238557EA0204302145000036000000
B1227274938844N01238688EA0204102143000036000000
B1227314938834N01238820EA0204002141000032000000
B1227354938826N01238950EA0203902141000036000000
B1227394938819N01239080EA0203602135000032000000
B1227434938812N01239211EA0202902130000028000000
B1227474938804N01239342EA0202702128000028000000
B1227514938799N01239473EA0202502127000024000000
B1227554938793N01239602EA0202302126000028000000
B1227594938792N01239731EA0202202124000028000000
B1228034938791N01239860EA0202002121000032000000
B1228074938788N01239986EA0201602118000036000000
B1228114938786N01240109EA0201502118000040000000
B1228154938784N01240230EA0201502118000036000000
B1228194938782N01240347EA0201602119000036000000
B1228234938779N01240459EA0201902125000032000000
B1228274938776N01240567EA0202302126000024000000
B1228314938771N01240673EA0202102122000020000000
B1228354938760N01240784EA0201602120000024000000
B1228394938752N01240893EA0202102128000020000000
B1228434938745N01241000EA0203002139000028000000
B1228474938736N01241101EA0204202148000024000000
B1228514938715N01241196EA0204402146000020000000
B1228554938679N01241284EA0204002137000016000000
B1228594938630N01241365EA0202702118000012000000
B1229034938572N01241448EA0200402096000016000000
B1229074938511N01241539EA0198602084000024000000
B1229114938450N01241633EA0197602076000028000000
B1229154938388N01241724EA0197002073000032000000
B1229194938329N01241816EA0196602072000028000000
B1229234938273N01241911EA0196802073000028000000
B1229274938219N01242005EA0196602069000024000000
B1229314938163N01242097EA0196502075000020000000
B1229354938110N01242189EA0197602087000024000000
B1229394938061N01242280EA0198102082000016000000
B1229434938012N01242374EA0197102069000016000000
B1229474937960N01242469EA0196002061000024000000
B1229514937909N01242566EA0195602059000020000000
B1229554937861N01242668EA0195402055000020000000
B1229594937816N01242773EA0194902050000020000000
B1230034937772N01242877EA0194602048000020000000
B1230074937731N01242981EA0194602046000024000000
B1230114937694N01243087EA0194002040000024000000
B1230154937653N01243190EA0193502034000024000000
B1230194937613N01243293EA0192802024000024000000
B1230234937571N01243397EA0191602014000020000000
B1230274937532N01243501EA0190902011000016000000
B1230314937492N01243602EA0190802007000020000000
B1230354937452N01243702EA0190402003000016000000
B1230394937410N01243804EA0190002000000020000000
B1230434937369N01243903EA0189901999000016000000
B1230474937326N01244001EA0189601996000016000000
B1230514937283N01244096EA0189702000000012000000
B1230554937246N01244194EA0190002001000012000000
B1230594937211N01244291EA0189901998000012000000
B1231034937174N01244386EA0189501993000012000000
B1231074937141N01244484EA0189101991000012000000
B1231114937114N01244584EA0188901988000012000000
B1231154937093N01244686EA0188701986000020000000
B1231194937072N01244789EA0188501983000024000000
B1231234937054N01244893EA0188201979000020000000
B1231274937032N01244996EA0187801975000016000000
B1231314937007N01245097EA0187601975000016000000
B1231354936986N01245195EA0187601975000012000000
B1231394936968N01245290EA0187501971000012000000
B1231434936950N01245385EA0186501958000012000000
B1231474936932N01245489EA0185501951000012000000
B1231514936919N01245591EA0185301953000012000000
B1231554936904N01245691EA0185601955000012000000
B1231594936882N01245786EA0185801960000012000000
B1232034936855N01245873EA0186301965000012000000
B1232074936828N01245957EA0186301960000008000000
B1232114936795N01246042EA0185601945000008000000
B1232154936759N01246137EA0183801928000012000000
B1232194936721N01246241EA0182701921000016000000
B1232234936683N01246345EA0182301922000016000000
B1232274936651N01246451EA0182501924000016000000
B1232314936624N01246557EA0182701926000016000000
B1232354936599N01246661EA0183101933000016000000
B1232394936576N01246760EA0183601936000016000000
B1232434936555N01246860EA0183301928000016000000
B1232474936535N01246964EA0183001930000012000000
B1232514936516N01247063EA0183301926000012000000
B1232554936499N01247169EA0182501918000012000000
B1232594936485N01247279EA0181701910000012000000
B1233034936468N01247389EA0181101907000012000000
B1233074936451N01247497EA0180701901000012000000
B1233114936435N01247606EA0180101895000012000000
B1233154936418N01247717EA0179701891000012000000
B1233194936403N01247826EA0179501889000012000000
B1233234936388N01247936EA0178901877000012000000
B1233274936374N01248056EA0177001853000016000000
B1233314936360N01248190EA0174701835000016000000
B1233354936344N01248329EA0173701828000020000000
B1233394936327N01248468EA0173501833000028000000
B1233434936312N01248602EA0174301839000032000000
B1233474936303N01248731EA0174601841000028000000
B1233514936297N01248856EA0174701841000024000000
B1233554936292N01248979EA0174501839000024000000
B1233594936283N01249100EA0174401839000020000000
B1234034936274N01249217EA0174501841000016000000
B1234074936257N01249327EA0174801845000020000000
B1234114936219N01249421EA0175201846000016000000
B1234154936157N01249477EA0175001844000016000000
B1234194936080N01249489EA0174801841000016000000
B1234234936002N01249469EA0174501837000012000000
B1234274935927N01249429EA0174101833000012000000
B1234314935851N01249374EA0173301827000012000000
B1234354935777N01249313EA0172701822000012000000
B1234394935705N01249246EA0172101815000012000000
B1234434935632N01249173EA0171501810000016000000
B1234474935559N01249105EA0170801803000012000000
B1234514935482N01249044EA0170201799000012000000
B1234554935406N01248991EA0169801795000012000000
B1234594935325N01248937EA0168901786000012000000
B1235034935247N01248878EA0168301781000016000000
B1235074935169N01248815EA0168101781000020000000
B1235114935092N01248752EA0168201779000016000000
B1235154935017N01248680EA0167901777000016000000
B1235194934944N01248606EA0168101784000016000000
B1235234934876N01248528EA0169001790000012000000
B1235274934811N01248445EA0168901782000012000000
B1235314934743N01248362EA0167701767000016000000
B1235354934667N01248273EA0166201754000016000000
B1235394934590N01248187EA0165601752000020000000
B1235434934516N01248102EA0165701756000020000000
B1235474934449N01248016EA0166101756000016000000
B1235514934384N01247923EA0165701748000016000000
B1235554934317N01247823EA0165101746000020000000
B1235594934249N01247726EA0165101748000020000000
B1236034934180N01247631EA0165201749000016000000
B1236074934113N01247536EA0165501753000016000000
B1236114934050N01247442EA0166001759000016000000
B1236154933989N01247349EA0166701764000016000000
B1236194933929N01247259EA0167101767000016000000
B1236234933870N01247169EA0167101766000012000000
B1236274933810N01247078EA0166901763000012000000
B1236314933748N01246987EA0166501759000012000000
B1236354933684N01246896EA0166101750000012000000
B1236394933617N01246802EA0164701732000016000000
B1236434933541N01246701EA0162901719000016000000
B1236474933465N01246605EA0162601725000020000000
B1236514933392N01246526EA0164401740000064000000
B1236554933324N01246457EA0165201743000084000000
B1236594933255N01246389EA0164401734000060000000
B1237034933183N01246319EA0163501727000044000000
B1237074933110N01246252EA0163101722000032000000
B1237114933036N01246187EA0162601718000024000000
B1237154932962N01246123EA0162201714000020000000
B1237194932886N01246059EA0161601703000016000000
B1237234932809N01245992EA0160801697000020000000
B1237274932730N01245927EA0160101689000020000000
B1237314932650N01245854EA0159301682000016000000
B1237354932570N01245771EA0158901675000020000000
B1237394932491N01245684EA0158101667000020000000
B1237434932412N01245595EA0157401662000020000000
B1237474932331N01245511EA0157101659000020000000
B1237514932250N01245426EA0156701656000020000000
B1237554932172N01245342EA0156701660000020000000
B1237594932097N01245258EA0157201663000024000000
B1238034932027N01245171EA0156901656000020000000
B1238074931955N01245082EA0156301651000016000000
B1238114931883N01244993EA0156001651000016000000
B1238154931807N01244915EA0156001648000020000000
B1238194931729N01244844EA0155501641000020000000
B1238234931652N01244772EA0155001636000016000000
B1238274931574N01244705EA0154301626000016000000
B1238314931493N01244634EA0153301617000016000000
B1238354931411N01244564EA0152601611000016000000
B1238394931326N01244495EA0152101610000016000000
B1238434931243N01244426EA0152201613000016000000
B1238474931164N01244354EA0152701619000016000000
B1238514931086N01244280EA0153001619000020000000
B1238554931008N01244205EA0152801616000020000000
B1238594930930N01244133EA0152801617000020000000
B1239034930853N01244060EA0152801617000016000000
B1239074930778N01243986EA0152901618000020000000
B1239114930703N01243912EA0153501627000020000000
B1239154930631N01243839EA0153401616000016000000
B1239194930550N01243763EA0152001601000016000000
B1239234930467N01243684EA0150801589000016000000
B1239274930382N01243604EA0149801579000020000000
B1239314930294N01243524EA0148701570000024000000
B1239354930208N01243442EA0147901565000024000000
B1239394930122N01243360EA0147401558000024000000
B1239434930038N01243276EA0146601550000024000000
B1239474929953N01243188EA0146001544000020000000
B1239514929870N01243100EA0145501540000024000000
B1239554929787N01243012EA0145301541000024000000
B1239594929706N01242921EA0145601543000024000000
B1240034929630N01242824EA0146101550000024000000
B1240074929556N01242731EA0146601555000020000000
B1240114929489N01242632EA0146901557000020000000
B1240154929427N01242525EA0147201557000016000000
B1240194929368N01242413EA0146701550000016000000
B1240234929302N01242313EA0146501555000016000000
B1240274929229N01242259EA0147701572000016000000
B1240314929169N01242270EA0149401590000012000000
B1240354929134N01242318EA0150501588000008000000
B1240394929125N01242389EA0149801579000008000000
B1240434929153N01242461EA0149301580000008000000
B1240474929206N01242493EA0150201591000008000000
B1240514929270N01242475EA0151501602000008000000
B1240554929324N01242422EA0151701598000008000000
B1240594929361N01242322EA0151001586000004000000
B1241034929358N01242188EA0149501574000008000000
B1241074929322N01242057EA0148101561000008000000
B1241114929268N01241934EA0147101554000012000000
B1241154929211N01241810EA0146301545000012000000
B1241194929150N01241681EA0145701542000020000000
B1241234929089N01241552EA0145601542000024000000
B1241274929026N01241425EA0145201532000028000000
B1241314928963N01241291EA0143701520000032000000
B1241354928898N01241152EA0143101513000036000000
B1241394928830N01241013EA0142601509000040000000
B1241434928764N01240880EA0142801518000036000000
B1241474928699N01240751EA0143101513000032000000
B1241514928636N01240619EA0142501506000032000000
B1241554928571N01240493EA0142401510000036000000
B1241594928506N01240367EA0142301506000036000000
B1242034928447N01240234EA0141801497000032000000
B1242074928389N01240092EA0140101481000032000000
B1242114928334N01239949EA0139301475000028000000
B1242154928278N01239809EA0138901471000028000000
B1242194928222N01239671EA0138501466000024000000
B1242234928166N01239533EA0138101462000024000000
B1242274928109N01239399EA0138001464000028000000
B1242314928054N01239265EA0138001466000028000000
B1242354928003N01239135EA0139501488000028000000
B1242394927958N01239016EA0142101513000024000000
B1242434927919N01238909EA0144401539000020000000
B1242474927890N01238809EA0146601556000016000000
B1242514927876N01238700EA0147601546000016000000
B1242554927850N01238586EA0145701531000012000000
B1242594927802N01238483EA0144601530000016000000
B1243034927750N01238383EA0144901540000016000000
B1243074927700N01238285EA0145801547000012000000
B1243114927647N01238194EA0146201548000020000000
B1243154927594N01238098EA0146001545000020000000
B1243194927535N01238001EA0145501538000020000000
B1243234927472N01237906EA0144801528000020000000
B1243274927400N01237811EA0143301516000024000000
B1243314927322N01237718EA0142801512000028000000
B1243354927240N01237630EA0142601511000028000000
B1243394927157N01237547EA0142101499000028000000
B1243434927070N01237458EA0140801489000024000000
B1243474926982N01237374EA0140201486000028000000
B1243514926894N01237289EA0139901483000032000000
B1243554926806N01237209EA0139601478000032000000
B1243594926716N01237130EA0138601466000032000000
B1244034926625N01237050EA0137501454000028000000
B1244074926533N01236970EA0136601438000032000000
B1244114926441N01236885EA0135301434000032000000
B1244154926348N01236805EA0134901430000032000000
B1244194926257N01236725EA0134601427000028000000
B1244234926165N01236652EA0134101423000024000000
B1244274926074N01236584EA0134101422000028000000
B1244314925982N01236513EA0133601412000024000000
B1244354925887N01236443EA0132701408000032000000
B1244394925796N01236374EA0133301418000032000000
B1244434925706N01236314EA0134001434000028000000
B1244474925622N01236262EA0136401461000024000000
B1244514925542N01236218EA0139001483000020000000
B1244554925464N01236191EA0141101501000020000000
B1244594925396N01236225EA0142601518000020000000
B1245034925368N01236309EA0144601539000016000000
B1245074925398N01236385EA0146201546000012000000
B1245114925464N01236399EA0145901536000016000000
B1245154925528N01236330EA0145301540000020000000
B1245194925546N01236212EA0146601563000024000000
B1245234925510N01236109EA0149001579000032000000
B1245274925448N01236064EA0150201596000032000000
B1245314925385N01236101EA0151201604000036000000
B1245354925375N01236199EA0151701610000032000000
B1245394925427N01236246EA0153401628000028000000
B1245434925488N01236204EA0154301632000024000000
B1245474925514N01236100EA0155601653000024000000
B1245514925484N01235996EA0157501668000020000000
B1245554925416N01235963EA0158401679000036000000
B1245594925357N01236014EA0158801680000036000000
B1246034925340N01236113EA0159701693000036000000
B1246074925375N01236194EA0160701708000036000000
B1246114925429N01236236EA0162701717000032000000
B1246154925496N01236221EA0162301716000032000000
B1246194925542N01236129EA0162201714000032000000
B1246234925550N01236005EA0162901732000032000000
B1246274925523N01235900EA0165501755000028000000
B1246314925459N01235865EA0166801770000028000000
B1246354925415N01235930EA0168901787000036000000
B1246394925438N01236015EA0169901792000040000000
B1246434925503N01236010EA0170601807000040000000
B1246474925536N01235919EA0172701830000036000000
B1246514925510N01235828EA0174901846000028000000
B1246554925448N01235800EA0175401852000020000000
B1246594925402N01235867EA0176201858000020000000
B1247034925420N01235963EA0176701864000020000000
B1247074925481N01235980EA0177901879000016000000
B1247114925524N01235896EA0178801880000020000000
B1247154925513N01235780EA0179701900000020000000
B1247194925453N01235718EA0181901919000016000000
B1247234925386N01235736EA0182501923000016000000
B1247274925353N01235823EA0182701923000016000000
B1247314925370N01235921EA0182501917000012000000
B1247354925432N01235963EA0181901919000012000000
B1247394925498N01235926EA0182201923000012000000
B1247434925541N01235836EA0183301935000012000000
B1247474925553N01235724EA0184801949000008000000
B1247514925523N01235623EA0186101965000008000000
B1247554925463N01235571EA0187201976000008000000
B1247594925401N01235589EA0188201983000008000000
B1248034925367N01235666EA0188301977000008000000
B1248074925377N01235768EA0187101967000012000000
B1248114925429N01235837EA0187601984000012000000
B1248154925492N01235827EA0189501998000008000000
B1248194925540N01235752EA0190001995000008000000
B1248234925554N01235635EA0189101983000008000000
B1248274925519N01235512EA0188401989000012000000
B1248314925451N01235425EA0189601996000016000000
B1248354925370N01235367EA0189201988000024000000
B1248394925280N01235313EA0188501982000024000000
B1248434925186N01235260EA0187401970000028000000
B1248474925089N01235206EA0186901969000028000000
B1248514924990N01235156EA0186501962000028000000
B1248554924887N01235108EA0185601948000028000000
B1248594924781N01235059EA0184501939000028000000
B1249034924675N01235007EA0184201947000036000000
B1249074924575N01234959EA0185501959000036000000
B1249114924476N01234909EA0185001941000032000000
B1249154924371N01234852EA0183401927000036000000
B1249194924266N01234792EA0182701928000040000000
B1249234924166N01234735EA0183601939000040000000
B1249274924071N01234670EA0184701954000036000000
B1249314923981N01234597EA0186001961000032000000
B1249354923894N01234514EA0186001958000032000000
B1249394923811N01234418EA0185601949000032000000
B1249434923724N01234312EA0184601938000032000000
B1249474923637N01234201EA0183401930000036000000
B1249514923547N01234095EA0182901929000040000000
B1249554923459N01233997EA0183501938000036000000
B1249594923375N01233903EA0184301945000036000000
B1250034923296N01233811EA0184901952000032000000
B1250074923223N01233721EA0185701958000032000000
B1250114923156N01233625EA0185801957000028000000
B1250154923091N01233523EA0185201943000028000000
B1250194923027N01233412EA0183601927000024000000
B1250234922963N01233296EA0182501926000028000000
B1250274922905N01233180EA0183001933000024000000
B1250314922855N01233061EA0183401930000024000000
B1250354922807N01232936EA0182601921000024000000
B1250394922763N01232810EA0182301924000024000000
B1250434922723N01232686EA0182401920000020000000
B1250474922681N01232565EA0182001916000020000000
B1250514922643N01232444EA0181701917000016000000
B1250554922607N01232325EA0181901917000020000000
B1250594922572N01232204EA0181701918000020000000
B1251034922539N01232084EA0182301922000016000000
B1251074922508N01231969EA0182501926000016000000
B1251114922482N01231853EA0183401933000016000000
B1251154922459N01231745EA0184501946000012000000
B1251194922439N01231640EA0185301952000008000000
B1251234922420N01231533EA0185501952000008000000
B1251274922399N01231424EA0185801965000008000000
B1251314922402N01231313EA0187301977000008000000
B1251354922439N01231217EA0188101974000008000000
B1251394922486N01231122EA0188101971000008000000
B1251434922511N01231008EA0187601974000012000000
B1251474922507N01230891EA0187801974000016000000
B1251514922481N01230782EA0187301973000012000000
B1251554922447N01230684EA0187501972000012000000
B1251594922404N01230591EA0186101953000012000000
B1252034922344N01230505EA0184501936000016000000
B1252074922281N01230412EA0183701937000016000000
B1252114922230N01230299EA0184301945000016000000
B1252154922186N01230176EA0184901946000016000000
B1252194922143N01230054EA0185701969000016000000
B1252234922107N01229946EA0188301989000012000000
B1252274922073N01229837EA0189301993000012000000
B1252314922047N01229725EA0190102007000012000000
B1252354922030N01229614EA0191402015000012000000
B1252394922014N01229497EA0191502014000012000000
B1252434921993N01229378EA0191102005000016000000
B1252474921973N01229250EA0190802014000016000000
B1252514921961N01229129EA0192702036000016000000
B1252554921960N01229021EA0194802060000016000000
B1252594921988N01228925EA0196202054000012000000
B1253034922029N01228824EA0195202045000020000000
B1253074922049N01228703EA0194602049000024000000
B1253114922052N01228583EA0195902071000024000000
B1253154922045N01228474EA0197502071000028000000
B1253194922029N01228353EA0196202056000024000000
B1253234922010N01228227EA0195702069000028000000
B1253274921993N01228119EA0198302092000024000000
B1253314921978N01228013EA0198702080000020000000
B1253354921967N01227888EA0196502055000020000000
B1253394921964N01227746EA0194302038000024000000
B1253434921958N01227602EA0194402051000028000000
B1253474921951N01227468EA0196502072000024000000
B1253514921931N01227337EA0196702062000024000000
B1253554921906N01227199EA0195102050000020000000
B1253594921893N01227053EA0194502042000020000000
B1254034921883N01226905EA0193902036000032000000
B1254074921873N01226757EA0194102056000036000000
B1254114921866N01226627EA0197302105000032000000
B1254154921861N01226527EA0202302140000024000000
B1254194921844N01226437EA0205102145000028000000
B1254234921796N01226369EA0204602144000028000000
B1254274921730N01226342EA0203802142000020000000
B1254314921667N01226346EA0205202161000016000000
B1254354921618N01226389EA0206502167000016000000
B1254394921597N01226476EA0206702171000016000000
B1254434921628N01226553EA0208002191000024000000
B1254474921684N01226563EA0209602201000020000000
B1254514921737N01226501EA0209902204000024000000
B1254554921746N01226393EA0210602208000028000000
B1254594921714N01226299EA0211702232000028000000
B1255034921658N01226250EA0212902236000024000000
B1255074921593N01226210EA0212602231000028000000
B1255114921528N01226142EA0211802213000028000000
B1255154921460N01226048EA0209002188000032000000
B1255194921392N01225937EA0207102164000032000000
B1255234921319N01225812EA0204802142000032000000
B1255274921246N01225679EA0203002128000044000000
B1255314921172N01225543EA0201702116000044000000
B1255354921096N01225404EA0200302101000044000000
B1255394921021N01225259EA0198902088000044000000
B1255434920946N01225111EA0197702076000044000000
B1255474920870N01224963EA0196802065000040000000
B1255514920794N01224817EA0196002059000036000000
B1255554920717N01224672EA0195302053000040000000
B1255594920641N01224526EA0194702047000036000000
B1256034920567N01224382EA0194002038000040000000
B1256074920493N01224239EA0193202032000040000000
B1256114920419N01224102EA0192802026000044000000
B1256154920345N01223968EA0191902017000056000000
B1256194920272N01223832EA0191102010000052000000
B1256234920201N01223701EA0190802008000048000000
B1256274920131N01223571EA0190802007000040000000
B1256314920058N01223448EA0190502003000036000000
B1256354919985N01223330EA0190402006000036000000
B1256394919913N01223217EA0190702005000032000000
B1256434919837N01223112EA0190001994000032000000
B1256474919754N01223017EA0189301992000036000000
B1256514919668N01222931EA0188801982000032000000
B1256554919575N01222853EA0187201969000032000000
B1256594919481N01222776EA0186501961000032000000
B1257034919386N01222705EA0186001956000028000000
B1257074919288N01222633EA0185001944000028000000
B1257114919189N01222563EA0184401942000032000000
B1257154919092N01222495EA0184001937000032000000
B1257194918994N01222429EA0183701934000032000000
B1257234918898N01222365EA0183501933000032000000
B1257274918805N01222303EA0183501932000032000000
B1257314918711N01222246EA0183501932000028000000
B1257354918621N01222191EA0183501933000028000000
B1257394918532N01222141EA0183401931000028000000
B1257434918443N01222090EA0183201930000024000000
B1257474918357N01222034EA0183201929000024000000
B1257514918272N01221978EA0183001929000024000000
B1257554918188N01221920EA0183001923000024000000
B1257594918104N01221862EA0182301919000024000000
B1258034918021N01221808EA0182001916000024000000
B1258074917937N01221754EA0181301910000024000000
B1258114917853N01221701EA0180901901000020000000
B1258154917770N01221649EA0180101890000020000000
B1258194917684N01221600EA0178801881000024000000
B1258234917599N01221554EA0178501886000020000000
B1258274917520N01221513EA0179101888000020000000
B1258314917442N01221475EA0178801879000016000000
B1258354917362N01221436EA0178701891000020000000
B1258394917290N01221401EA0180801916000020000000
B1258434917225N01221374EA0183701946000016000000
B1258474917167N01221362EA0185901963000012000000
B1258514917112N01221320EA0186801960000020000000
B1258554917073N01221232EA0186601968000016000000
B1258594917070N01221132EA0187601973000012000000
B1259034917105N01221052EA0187101964000008000000
B1259074917165N01221037EA0185901951000008000000
B1259114917212N01221097EA0184701939000008000000
B1259154917217N01221194EA0183501925000008000000
B1259194917169N01221271EA0183001928000008000000
B1259234917098N01221293EA0183901941000008000000
B1259274917029N01221294EA0185501957000012000000
B1259314916964N01221290EA0186401962000008000000
B1259354916900N01221267EA0186301958000008000000
B1259394916836N01221218EA0185401944000008000000
B1259434916779N01221132EA0184401937000012000000
B1259474916731N01221026EA0184301940000012000000
B1259514916688N01220924EA0186201975000016000000
B1259554916656N01220838EA0189902004000012000000
B1259594916660N01220737EA0190602003000012000000
B1300034916715N01220659EA0190402008000012000000
B1300074916786N01220665EA0191402023000008000000
B1300114916814N01220748EA0193202042000008000000
B1300154916777N01220820EA0195202065000012000000
B1300194916715N01220803EA0197202073000012000000
B1300234916697N01220701EA0198102088000008000000
B1300274916744N01220617EA0199102094000008000000
B1300314916814N01220629EA0199602102000008000000
B1300354916834N01220721EA0201302125000008000000
B1300394916786N01220776EA0203902145000008000000
B1300434916730N01220726EA0205002156000012000000
B1300474916728N01220618EA0206002171000012000000
B1300514916783N01220549EA0207002174000012000000
B1300554916848N01220581EA0207202184000012000000
B1300594916851N01220675EA0208702199000016000000
B1301034916791N01220709EA0210402217000016000000
B1301074916743N01220642EA0212102237000016000000
B1301114916756N01220538EA0213602246000012000000
B1301154916819N01220491EA0213702241000012000000
B1301194916879N01220543EA0214302255000016000000
B1301234916875N01220636EA0216102276000012000000
B1301274916821N01220673EA0218502298000012000000
B1301314916767N01220616EA0219502308000012000000
B1301354916752N01220504EA0220702312000020000000
B1301394916754N01220378EA0220302304000020000000
B1301434916761N01220236EA0218802289000020000000
B1301474916766N01220081EA0218002291000024000000
B1301514916777N01219921EA0218702298000024000000
B1301554916787N01219756EA0218902296000028000000
B1301594916801N01219586EA0218702293000032000000
B1302034916814N01219411EA0218102284000032000000
B1302074916827N01219234EA0216502267000036000000
B1302114916840N01219056EA0215102254000036000000
B1302154916852N01218876EA0214202251000036000000
B1302194916862N01218702EA0214102246000036000000
B1302234916871N01218525EA0213202237000032000000
B1302274916877N01218347EA0212902239000032000000
B1302314916882N01218182EA0214702271000036000000
B1302354916884N01218030EA0217302282000032000000
B1302394916884N01217874EA0216802269000028000000
B1302434916882N01217711EA0217002290000032000000
B1302474916879N01217567EA0219802315000028000000
B1302514916873N01217427EA0219802300000028000000
B1302554916865N01217273EA0218002284000024000000
B1302594916855N01217116EA0217702293000028000000
B1303034916844N01216969EA0219802313000028000000
B1303074916832N01216830EA0219502299000028000000
B1303114916816N01216679EA0217802274000024000000
B1303154916793N01216521EA0216102270000032000000
B1303194916766N01216365EA0215702260000028000000
B1303234916736N01216207EA0215002259000028000000
B1303274916701N01216054EA0215102258000028000000
B1303314916663N01215902EA0214902256000032000000
B1303354916623N01215748EA0214902260000032000000
B1303394916583N01215602EA0216602282000036000000
B1303434916543N01215461EA0217502277000032000000
B1303474916497N01215313EA0216002263000032000000
B1303514916448N01215160EA0215102257000032000000
B1303554916394N01215015EA0215502264000036000000
B1303594916337N01214876EA0215802266000036000000
B1304034916280N01214736EA0215702263000036000000
B1304074916223N01214593EA0215102256000032000000
B1304114916163N01214448EA0214302241000032000000
B1304154916098N01214305EA0212302221000032000000
B1304194916033N01214156EA0210702206000032000000
B1304234915964N01214010EA0209602202000036000000
B1304274915891N01213875EA0209902208000036000000
B1304314915822N01213743EA0210102208000036000000
B1304354915757N01213610EA0210102205000032000000
B1304394915691N01213476EA0209102187000032000000
B1304434915618N01213340EA0207502176000032000000
B1304474915545N01213204EA0206502166000040000000
B1304514915473N01213067EA0205402155000056000000
B1304554915392N01212937EA0205102154000052000000
B1304594915309N01212816EA0205202151000052000000
B1305034915226N01212697EA0204502136000048000000
B1305074915140N01212575EA0202902126000044000000
B1305114915055N01212454EA0202502129000040000000
B1305154914973N01212337EA0202802126000040000000
B1305194914893N01212220EA0202302120000044000000
B1305234914814N01212102EA0201602112000044000000
B1305274914734N01211984EA0200402098000040000000
B1305314914654N01211861EA0199802098000040000000
B1305354914577N01211743EA0199902101000036000000
B1305394914500N01211627EA0199902095000032000000
B1305434914425N01211513EA0199102086000028000000
B1305474914347N01211400EA0198402081000028000000
B1305514914268N01211287EA0197702072000032000000
B1305554914188N01211171EA0196802063000044000000
B1305594914109N01211055EA0196302062000044000000
B1306034914028N01210945EA0196402063000040000000
B1306074913949N01210836EA0196402062000048000000
